:100000000C945D000C9485000C9485000C94850084
:100010000C9485000C9485000C9485000C9485004C
:100020000C9485000C9485000C9485000C9485003C
:100030000C9485000C9485000C9485000C9485002C
:100040000C9444030C9485000C94B4030C948E031C
:100050000C9485000C9485000C9485000C9485000C
:100060000C9485000C9485000000000024002700FB
:100070002A0000000000250028002B0004040404CE
:100080000404040402020202020203030303030342
:10009000010204081020408001020408102001021F
:1000A00004081020000000080002010000030407FB
:1000B00000000000000000005E0511241FBECFEF0D
:1000C000D8E0DEBFCDBF11E0A0E0B1E0E2EEFFE09E
:1000D00002C005900D92AC32B107D9F721E0ACE235
:1000E000B1E001C01D92AF3DB207E1F710E0CDE5F0
:1000F000D0E004C02197FE010E94E907CC35D1076A
:10010000C9F70E94E6030C94EF070C94000090E0FE
:10011000FC01EC55FF4F2491FC01E057FF4F349157
:10012000FC01E458FF4FE491EE23C9F0222339F09B
:10013000233001F1A8F4213019F1223029F1F0E047
:10014000EE0FFF1FEE58FF4FA591B4918FB7F894B3
:10015000EC91611126C030953E233C938FBF0895EA
:100160002730A9F02830C9F0243049F78091800069
:100170008F7D03C0809180008F7780938000DFCFD8
:1001800084B58F7784BDDBCF84B58F7DFBCF809125
:10019000B0008F778093B000D2CF8091B0008F7D78
:1001A000F9CF3E2BDACF8E50806480937C00809113
:1001B0007A00806480937A0080917A0086FDFCCF7B
:1001C000809178009091790008953FB7F8948091DC
:1001D0003E0190913F01A0914001B091410126B5AF
:1001E000A89B05C02F3F19F00196A11DB11D3FBF6F
:1001F000BA2FA92F982F8827BC01CD01620F711D3E
:10020000811D911D42E0660F771F881F991F4A9537
:10021000D1F70895AF92BF92CF92DF92EF92FF9203
:100220000F931F93CF93DF936C017B018B01040F1E
:10023000151FEB015E01AE18BF08C017D10759F0BA
:100240006991D601ED91FC910190F081E02DC601FC
:100250000995892B79F7C501DF91CF911F910F91F6
:10026000FF90EF90DF90CF90BF90AF900895FC018A
:10027000538D448D252F30E0842F90E0821B930B0B
:10028000541710F0CF96089501970895FC01918DB1
:10029000828D981761F0A28DAE0FBF2FB11D5D96B4
:1002A0008C91928D9F5F9F73928F90E008958FEF56
:1002B0009FEF0895FC01918D828D981731F0828D0A
:1002C000E80FF11D858D90E008958FEF9FEF089561
:1002D000FC01918D228D892F90E0805C9F4F821BC5
:1002E00091098F739927089582E491E00E94680133
:1002F00021E0892B09F420E0822F089580E090E02E
:10030000892B29F00E94740181110C94000008953A
:10031000FC01A48DA80FB92FB11DA35ABF4F2C917A
:10032000848D90E001968F739927848FA689B78971
:100330002C93A089B1898C91837080648C93938D68
:10034000848D981306C00288F389E02D80818F7D0B
:1003500080830895EF92FF920F931F93CF93DF93C3
:10036000EC0181E0888F9B8D8C8D98131AC0E889F1
:10037000F989808185FF15C09FB7F894EE89FF89C0
:100380006083E889F98980818370806480839FBF5E
:1003900081E090E0DF91CF911F910F91FF90EF905E
:1003A0000895F62E0B8D10E00F5F1F4F0F7311276E
:1003B000E02E8C8D8E110CC00FB607FCFACFE889A9
:1003C000F989808185FFF5CFCE010E948801F1CFA8
:1003D000EB8DEC0FFD2FF11DE35AFF4FF0829FB71D
:1003E000F8940B8FEA89FB8980818062CFCFCF930D
:1003F000DF93EC01888D8823B9F0AA89BB89E8894D
:10040000F9898C9185FD03C0808186FD0DC00FB6F2
:1004100007FCF7CF8C9185FFF2CF808185FFEDCF70
:10042000CE010E948801E9CFDF91CF910895FC01B0
:1004300001900020E9F73197AF01481B590BBC012F
:1004400082E491E00C940A018F929F92AF92BF9246
:100450000F931F93CF93DF93CDB7DEB7A1970FB65E
:10046000F894DEBF0FBECDBF19A2423008F44AE0B7
:100470008E010F5D1F4F842E912CB12CA12CA50154
:1004800094010E94C707E62FB901CA01EA30F4F4CB
:10049000E05DD801EE938D01232B242B252B79F7DA
:1004A00090E080E0109719F0CD010E941702A1960C
:1004B0000FB6F894DEBF0FBECDBFDF91CF911F9175
:1004C0000F91BF90AF909F908F900895E95CE1CF1E
:1004D0004F925F926F927F928F929F92AF92BF9254
:1004E000CF92DF92EF92FF920F931F93CF936B0106
:1004F0007C01742EAC019B010E94C207882399F0F5
:1005000082E191E0CF911F910F91FF90EF90DF90EA
:10051000CF90BF90AF909F908F907F906F905F90A3
:100520004F900C94170246015701E894B7F82FEF4B
:100530003FEF4FE75FE7C501B4010E94C207811199
:100540000DC02FEF3FEF4FE75FE7C501B4010E94F9
:10055000F80518161CF486E191E0D4CF2FEF3FEF99
:100560004FE75FE4C701B6010E94500718161CF45C
:100570008AE191E0C7CF2FEF3FEF4FE75FECC70174
:10058000B6010E94F80587FDF3CF20E030E0A90115
:10059000C701B6010E94F80510E000E087FF0AC01D
:1005A0006DE282E491E00E94AA018C01F7FAF094D6
:1005B000F7F8F094C0E060E070E080E09FE37C1624
:1005C00041F020E030E040E251E40E94FD05CF5FC1
:1005D000F6CFA70196010E948C052B013C010E94D9
:1005E0006F064B015C014AE00E9424027C01E00E90
:1005F000F11ECC23C1F1C501B4010E949E069B01EE
:10060000AC01C301B2010E948B054B015C016EE29B
:1006100082E491E00E94AA01E80EF91EC15018F18F
:1006200020E030E040E251E4C501B4010E945507EA
:100630002B013C010E946F064B01B12CA12C4AE01A
:10064000C501B4010E942402E80EF91EC501B401DF
:100650000E949E069B01AC01C301B2010E948B0562
:100660004B015C01DBCFC701CF911F910F91FF9030
:10067000EF90DF90CF90BF90AF909F908F907F9042
:100680006F905F904F9008951F920F920FB60F9248
:1006900011242F933F938F939F93AF93BF93809198
:1006A0003A0190913B01A0913C01B0913D01309104
:1006B000390123E0230F2D3758F50196A11DB11DF7
:1006C0002093390180933A0190933B01A0933C0120
:1006D000B0933D0180913E0190913F01A091400176
:1006E000B09141010196A11DB11D80933E019093EF
:1006F0003F01A0934001B0934101BF91AF919F9101
:100700008F913F912F910F900FBE0F901F901895D2
:1007100026E8230F0296A11DB11DD2CF1F920F9282
:100720000FB60F9211242F933F934F935F936F93C4
:100730007F938F939F93AF93BF93EF93FF9382E445
:1007400091E00E948801FF91EF91BF91AF919F913D
:100750008F917F916F915F914F913F912F910F906A
:100760000FBE0F901F9018951F920F920FB60F9209
:1007700011242F938F939F93EF93FF93E091520156
:10078000F09153018081E0915801F091590182FD6F
:100790001BC0908180915B018F5F8F7320915C0102
:1007A000821741F0E0915B01F0E0EE5BFE4F958F28
:1007B00080935B01FF91EF919F918F912F910F900B
:1007C0000FBE0F901F9018958081F4CF789484B558
:1007D000826084BD84B5816084BD85B5826085BD3D
:1007E00085B5816085BD80916E00816080936E00CB
:1007F00010928100809181008260809381008091BD
:10080000810081608093810080918000816080936D
:1008100080008091B10084608093B1008091B0002D
:1008200081608093B00080917A00846080937A0028
:1008300080917A00826080937A0080917A00816052
:1008400080937A0080917A00806880937A00109279
:10085000C100E0915201F091530182E08083E09168
:100860004E01F0914F011082E0915001F091510141
:1008700080E1808310925A01E0915601F091570176
:1008800086E08083E0915401F09155018081806180
:100890008083E0915401F0915501808188608083CC
:1008A000E0915401F0915501808180688083E0914E
:1008B0005401F091550180818F7D8083EDE9F0E056
:1008C0002491E9E8F0E08491882399F090E0880F82
:1008D000991FFC01E859FF4FA591B491FC01EE5816
:1008E000FF4F859194918FB7F894EC91E22BEC93A4
:1008F0008FBF60E08DE00E948700C0E0D0E08EE016
:100900000E94D300BC01990F880B990B0E94A0068E
:1009100020E030E042E054E40E94550720E030EC53
:100920004FE754E40E94FD056B017C01C092350144
:10093000D0923601E0923701F092380180E10E94B6
:10094000D300BC01990F880B990B0E94A00620E0F0
:1009500030E042E054E40E94550720E030EC4FE7DD
:1009600054E40E94FD05609331017093320180933D
:1009700033019093340120E030E040EA50E4C701B5
:10098000B6010E94F80587FF1BC0809130018111DC
:1009900073C081E0809330012FB7F89480913A01C1
:1009A00090913B01A0913C01B0913D012FBF8093FC
:1009B0002C0190932D01A0932E01B0932F0106C01E
:1009C00060E08DE00E948700109230018EE191E09E
:1009D0000E941702609135017091360180913701B4
:1009E0009091380142E00E94680283E291E00E9407
:1009F000170286E291E00E94170260913101709126
:100A00003201809133019091340142E00E946802EA
:100A100083E291E00E9417020E94E5004B015C0115
:100A200084EFC82EDD24D394E12CF12C0E94E50044
:100A3000681979098A099B09683E73408105910507
:100A4000A8F381E0C81AD108E108F10828EE820E67
:100A500023E0921EA11CB11CC114D104E104F104D5
:100A600029F7209709F44BCF0E947401882309F4D9
:100A700046CF0E94000043CF2FB7F89480913A01EF
:100A800090913B01A0913C01B0913D012FBF40915D
:100A90002C0150912D0160912E0170912F01841B2A
:100AA000950BA60BB70B88389341A105B10508F447
:100AB0008DCF61E08DE00E94870088CFE2E4F1E015
:100AC0001382128288EE93E0A0E0B0E084839583E5
:100AD000A683B78384E091E09183808385EC90E0E6
:100AE0009587848784EC90E09787868780EC90E0F8
:100AF000918B808B81EC90E0938B828B82EC90E0E9
:100B0000958B848B86EC90E0978B868B118E128E62
:100B1000138E148E08955058BB27AA270E94A30550
:100B20000C9416070E94080738F00E940F0720F067
:100B300039F49F3F19F426F40C9405070EF4E09560
:100B4000E7FB0C94FF06E92F0E94270758F3BA171A
:100B5000620773078407950720F079F4A6F50C94D3
:100B600049070EF4E0950B2EBA2FA02D0B01B90109
:100B700090010C01CA01A0011124FF27591B99F013
:100B8000593F50F4503E68F11A16F040A22F232F1F
:100B9000342F4427585FF3CF469537952795A7956F
:100BA000F0405395C9F77EF41F16BA0B620B730B16
:100BB000840BBAF09150A1F0FF0FBB1F661F771F87
:100BC000881FC2F70EC0BA0F621F731F841F48F43C
:100BD000879577956795B795F7959E3F08F0B0CFC5
:100BE0009395880F08F09927EE0F979587950895AC
:100BF0000E94DB0608F481E008950E9411060C941F
:100C000016070E940F0758F00E94080740F029F4C9
:100C10005F3F29F00C94FF0651110C944A070C9485
:100C200005070E94270768F39923B1F3552391F331
:100C3000951B550BBB27AA2762177307840738F04B
:100C40009F5F5F4F220F331F441FAA1FA9F335D0A8
:100C50000E2E3AF0E0E832D091505040E695001C5C
:100C6000CAF72BD0FE2F29D0660F771F881FBB1F16
:100C7000261737074807AB07B0E809F0BB0B802DF4
:100C8000BF01FF2793585F4F3AF09E3F510578F020
:100C90000C94FF060C944A075F3FE4F3983ED4F3AC
:100CA000869577956795B795F7959F5FC9F7880FF4
:100CB000911D9695879597F90895E1E0660F771F46
:100CC000881FBB1F621773078407BA0720F0621BD7
:100CD000730B840BBA0BEE1F88F7E09508950E9402
:100CE0002F0788F09F5798F0B92F9927B751B0F088
:100CF000E1F0660F771F881F991F1AF0BA95C9F7A0
:100D000014C0B13091F00E944907B1E008950C94ED
:100D10004907672F782F8827B85F39F0B93FCCF3A0
:100D2000869577956795B395D9F73EF4909580951C
:100D3000709561957F4F8F4F9F4F0895E89409C03C
:100D400097FB3EF490958095709561957F4F8F4FFE
:100D50009F4F9923A9F0F92F96E9BB279395F69514
:100D6000879577956795B795F111F8CFFAF4BB0F92
:100D700011F460FF1BC06F5F7F4F8F4F9F4F16C0F6
:100D8000882311F096E911C0772321F09EE8872F80
:100D9000762F05C0662371F096E8862F70E060E03C
:100DA0002AF09A95660F771F881FDAF7880F9695B5
:100DB000879597F90895990F0008550FAA0BE0E859
:100DC000FEEF16161706E807F907C0F0121613060D
:100DD000E407F50798F0621B730B840B950B39F44D
:100DE0000A2661F0232B242B252B21F408950A26B3
:100DF00009F4A140A6958FEF811D811D089597F9F3
:100E00009F6780E870E060E008959FEF80EC0895B0
:100E100000240A94161617061806090608950024D9
:100E20000A9412161306140605060895092E039453
:100E3000000C11F4882352F0BB0F40F4BF2B11F4C7
:100E400060FF04C06F5F7F4F8F4F9F4F089557FD26
:100E50009058440F551F59F05F3F71F04795880F28
:100E600097FB991F61F09F3F79F0879508951216BF
:100E700013061406551FF2CF4695F1DF08C016166B
:100E800017061806991FF1CF86957105610508941C
:100E90000895E894BB2766277727CB0197F9089533
:100EA0000E94DB0608F48FEF08950E9468070C94F7
:100EB00016070E94080738F00E940F0720F09523BC
:100EC00011F00C94FF060C94050711240C944A07AA
:100ED0000E94270770F3959FC1F3950F50E0551FAF
:100EE000629FF001729FBB27F00DB11D639FAA277F
:100EF000F00DB11DAA1F649F6627B00DA11D661FCE
:100F0000829F2227B00DA11D621F739FB00DA11DEE
:100F1000621F839FA00D611D221F749F3327A00DA8
:100F2000611D231F849F600D211D822F762F6A2F44
:100F300011249F5750409AF0F1F088234AF0EE0FA9
:100F4000FF1FBB1F661F771F881F91505040A9F7D6
:100F50009E3F510580F00C94FF060C944A075F3FBA
:100F6000E4F3983ED4F3869577956795B795F79512
:100F7000E7959F5FC1F7FE2B880F911D969587958A
:100F800097F908950E94DB06880B990B0895A1E25A
:100F90001A2EAA1BBB1BFD010DC0AA1FBB1FEE1FF3
:100FA000FF1FA217B307E407F50720F0A21BB30B3E
:100FB000E40BF50B661F771F881F991F1A9469F7BA
:100FC00060957095809590959B01AC01BD01CF0116
:100FD0000895EE0FFF1F0590F491E02D0994F89409
:020FE000FFCF41
:100FE20000000000AA010A013701F7016801460169
:100FF2005A016E616E00696E66006F76660053314B
:0C1002003A20000D0A0053323A20000092
:00000001FF
