:100000000C945D000C9485000C9485000C94850084
:100010000C9485000C9485000C9485000C9485004C
:100020000C9485000C9485000C9485000C9485003C
:100030000C9485000C9485000C9485000C9485002C
:100040000C9453040C9485000C94C3040C949D04EC
:100050000C9485000C9485000C9485000C9485000C
:100060000C9485000C9485000000000024002700FB
:100070002A0000000000250028002B0004040404CE
:100080000404040402020202020203030303030342
:10009000010204081020408001020408102001021F
:1000A00004081020000000080002010000030407FB
:1000B00000000000000000002B0711241FBECFEF3E
:1000C000D8E0DEBFCDBF11E0A0E0B1E0ECE7F3E1A6
:1000D00002C005900D92A634B107D9F722E0A6E43C
:1000E000B1E001C01D92AF30B207E1F710E0CDE5FD
:1000F000D0E004C02197FE010E94B609CC35D1079B
:10010000C9F70E94F5040C94BC090C94000090E01F
:10011000FC01EC55FF4F2491FC01E057FF4F349157
:10012000FC01E458FF4FE491EE23C9F0222339F09B
:10013000233001F1A8F4213019F1223029F1F0E047
:10014000EE0FFF1FEE58FF4FA591B4918FB7F894B3
:10015000EC91611126C030953E233C938FBF0895EA
:100160002730A9F02830C9F0243049F78091800069
:100170008F7D03C0809180008F7780938000DFCFD8
:1001800084B58F7784BDDBCF84B58F7DFBCF809125
:10019000B0008F778093B000D2CF8091B0008F7D78
:1001A000F9CF3E2BDACF8E50806480937C00809113
:1001B0007A00806480937A0080917A0086FDFCCF7B
:1001C000809178009091790008953FB7F8948091DC
:1001D000640190916501A0916601B091670126B517
:1001E000A89B05C02F3F19F00196A11DB11D3FBF6F
:1001F000BA2FA92F982F8827BC01CD01620F711D3E
:10020000811D911D42E0660F771F881F991F4A9537
:10021000D1F708952FB7F894609160017091610152
:1002200080916201909163012FBF0895AF92BF92B8
:10023000CF92DF92EF92FF920F931F93CF93DF93B2
:100240006C017B018B01040F151FEB015E01AE18E1
:10025000BF08C017D10759F06991D601ED91FC9103
:100260000190F081E02DC6010995892B79F7C50130
:10027000DF91CF911F910F91FF90EF90DF90CF9082
:10028000BF90AF900895FC01538D448D252F30E031
:10029000842F90E0821B930B541710F0CF96089593
:1002A00001970895FC01918D828D981761F0A28DC0
:1002B000AE0FBF2FB11D5D968C91928D9F5F9F7386
:1002C000928F90E008958FEF9FEF0895FC01918D3C
:1002D000828D981731F0828DE80FF11D858D90E0A9
:1002E00008958FEF9FEF0895FC01918D228D892F46
:1002F00090E0805C9F4F821B91098F73992708952E
:1003000082E791E00E94740121E0892B09F420E04A
:10031000822F089580E090E0892B29F00E948001CF
:1003200081110C9400000895FC01A48DA80FB92F31
:10033000B11DA35ABF4F2C91848D90E001968F730D
:100340009927848FA689B7892C93A089B1898C912C
:10035000837080648C93938D848D981306C002887B
:10036000F389E02D80818F7D80830895EF92FF9245
:100370000F931F93CF93DF93EC0181E0888F9B8DC8
:100380008C8D98131AC0E889F989808185FF15C082
:100390009FB7F894EE89FF896083E889F9898081A5
:1003A0008370806480839FBF81E090E0DF91CF9174
:1003B0001F910F91FF90EF900895F62E0B8D10E096
:1003C0000F5F1F4F0F731127E02E8C8D8E110CC005
:1003D0000FB607FCFACFE889F989808185FFF5CF50
:1003E000CE010E949401F1CFEB8DEC0FFD2FF11D9A
:1003F000E35AFF4FF0829FB7F8940B8FEA89FB898D
:1004000080818062CFCFCF93DF93EC01888D8823EA
:10041000B9F0AA89BB89E889F9898C9185FD03C067
:10042000808186FD0DC00FB607FCF7CF8C9185FF4C
:10043000F2CF808185FFEDCFCE010E949401E9CFFC
:10044000DF91CF91089520E030E040EE50E46091DC
:100450006E0170916F0180917001909171010E9405
:10046000C50787FF12C020E030E040EE50E4609105
:100470006A0170916B0180916C0190916D010E94F5
:10048000C507881F8827881F089580E00895FC010C
:1004900001900020E9F73197AF01481B590BBC01CF
:1004A00082E791E00C9416018F929F92AF92BF92D7
:1004B0000F931F93CF93DF93CDB7DEB7A1970FB6FE
:1004C000F894DEBF0FBECDBF19A2423008F44AE057
:1004D0008E010F5D1F4F842E912CB12CA12CA501F4
:1004E00094010E949409E62FB901CA01EA30F4F49C
:1004F000E05DD801EE938D01232B242B252B79F77A
:1005000090E080E0109719F0CD010E944702A1967B
:100510000FB6F894DEBF0FBECDBFDF91CF911F9114
:100520000F91BF90AF909F908F900895E95CE1CFBD
:100530004F925F926F927F928F929F92AF92BF92F3
:10054000CF92DF92EF92FF920F931F93CF93DF939F
:1005500000D000D000D0CDB7DEB70FEA12E0109384
:100560006901009368018091000190910101892B3C
:1005700009F4A4C084E191E00E9447028EE190E07A
:100580009E838D83C12CD12C7601460157018EE0CC
:100590000E94D300BC01990F880B990B0E946D0833
:1005A00020E030E042E054E40E94220920E030ECF8
:1005B0004FE754E40E94CA079B01AC01C501B40196
:1005C0000E9459074B015C0180E10E94D300BC01ED
:1005D000990F880B990B0E946D0820E030E042E0F3
:1005E00054E40E94220920E030EC4FE754E40E94DA
:1005F000CA079B01AC01C701B6010E9459076B01F4
:100600007C010E94E5002B013C0184E190E0A0E028
:10061000B0E089839A83AB83BC830E94E5006419B0
:10062000750986099709683E734081059105A8F30D
:1006300089819A81AB81BC810197A109B109898324
:100640009A83AB83BC8398EE490E93E0591E611CDC
:10065000711C89819A81AB81BC81892B8A2B8B2B60
:10066000E1F68D819E8101979E838D83892B09F010
:100670008ECF20E030E040EF51E4C501B4010E948C
:10068000CA0760936E0170936F018093700190931D
:10069000710120E030E040EF51E4C701B6010E9453
:1006A000CA0760936A0170936B0180936C01909309
:1006B0006D01109201011092000151CF90E080E095
:1006C00026960FB6F894DEBF0FBECDBFDF91CF9157
:1006D0001F910F91FF90EF90DF90CF90BF90AF9060
:1006E0009F908F907F906F905F904F9008954F9262
:1006F0005F926F927F928F929F92AF92BF92CF92B2
:10070000DF92EF92FF920F931F93CF936B017C01C7
:10071000742EAC019B010E948F09882399F08DE211
:1007200091E0CF911F910F91FF90EF90DF90CF90CC
:10073000BF90AF909F908F907F906F905F904F9001
:100740000C94470246015701E894B7F82FEF3FEFAA
:100750004FE75FE7C501B4010E948F0981110DC009
:100760002FEF3FEF4FE75FE7C501B4010E94C507D8
:1007700018161CF481E391E0D4CF2FEF3FEF4FE741
:100780005FE4C701B6010E941D0918161CF485E339
:1007900091E0C7CF2FEF3FEF4FE75FECC701B60106
:1007A0000E94C50787FDF3CF20E030E0A901C70113
:1007B000B6010E94C50710E000E087FF0AC06DE2A5
:1007C00082E791E00E94B6018C01F7FAF094F7F805
:1007D000F094C0E060E070E080E09FE37C1641F0C0
:1007E00020E030E040E251E40E94CA07CF5FF6CF3C
:1007F000A70196010E9459072B013C010E943C0869
:100800004B015C014AE00E9454027C01E00EF11EA3
:10081000CC23C1F1C501B4010E946B089B01AC015E
:10082000C301B2010E9458074B015C016EE282E7EE
:1008300091E00E94B601E80EF91EC15018F120E0C7
:1008400030E040E251E4C501B4010E9422092B01CD
:100850003C010E943C084B01B12CA12C4AE0C5018F
:10086000B4010E945402E80EF91EC501B4010E94B1
:100870006B089B01AC01C301B2010E9458074B01F8
:100880005C01DBCFC701CF911F910F91FF90EF90DB
:10089000DF90CF90BF90AF909F908F907F906F90A0
:1008A0005F904F9008951F920F920FB60F921124F0
:1008B0002F933F938F939F93AF93BF93809160014A
:1008C00090916101A0916201B091630130915F014B
:1008D00023E0230F2D3758F50196A11DB11D20935C
:1008E0005F018093600190936101A0936201B093D6
:1008F00063018091640190916501A0916601B091BE
:1009000067010196A11DB11D80936401909365015B
:10091000A0936601B0936701BF91AF919F918F91B2
:100920003F912F910F900FBE0F901F90189526E8C2
:10093000230F0296A11DB11DD2CF1F920F920FB6A9
:100940000F9211242F933F934F935F936F937F9355
:100950008F939F93AF93BF93EF93FF9382E791E0C1
:100960000E949401FF91EF91BF91AF919F918F9160
:100970007F916F915F914F913F912F910F900FBE9B
:100980000F901F9018951F920F920FB60F9211247F
:100990002F938F939F93EF93FF93E0918201F091B8
:1009A00083018081E0918801F091890182FD1BC063
:1009B000908180918B018F5F8F7320918C018217C2
:1009C00041F0E0918B01F0E0EE58FE4F958F80935F
:1009D0008B01FF91EF919F918F912F910F900FBEFF
:1009E0000F901F9018958081F4CFCF93DF93CDB7F0
:1009F000DEB760970FB6F894DEBF0FBECDBF789418
:100A000084B5826084BD84B5816084BD85B5826013
:100A100085BD85B5816085BD80916E0081608093C4
:100A20006E0010928100809181008260809381002D
:100A3000809181008160809381008091800081603D
:100A4000809380008091B10084608093B100809198
:100A5000B00081608093B00080917A0084608093C0
:100A60007A0080917A00826080937A0080917A0087
:100A7000816080937A0080917A00806880937A0008
:100A80001092C100E0918201F091830182E08083A5
:100A9000E0917E01F0917F011082E0918001F09160
:100AA000810180E1808310928A01E0918601F091BA
:100AB000870186E08083E0918401F0918501808147
:100AC00080618083E0918401F0918501808188605C
:100AD0008083E0918401F09185018081806880832A
:100AE000E0918401F091850180818F7D8083EDE923
:100AF000F0E02491E9E8F0E08491882399F090E017
:100B0000880F991FFC01E859FF4FA591B491FC0192
:100B1000EE58FF4F859194918FB7F894EC91E22BAA
:100B2000EC938FBF60E08DE00E9487001092690116
:100B30001092680101E010E080E0A82E80E0B82E5D
:100B40000E94980220E030E040EE50E460916E0197
:100B500070916F0180917001909171010E94C507A1
:100B600087FF22C020E030E040EE50E460916A014F
:100B700070916B0180916C0190916D010E94C5078D
:100B800087FF12C080914A0181117BC081E0809370
:100B90004A010E940A0160934601709347018093C5
:100BA00048019093490106C060E08DE00E948700F3
:100BB00010924A0180915E0181117CC020E030E0FA
:100BC00040EE50E460916E0170916F018091700170
:100BD000909171010E94C50787FF6CC020E030E052
:100BE00040EE50E460916A0170916B0180916C015C
:100BF00090916D010E94C50787FD5CC081E08093E4
:100C00005E010E940A0160935A0170935B01809318
:100C10005C0190935D0189E391E00E94470260913D
:100C20006E0170916F01809170019091710142E0AD
:100C30000E9477038EE391E00E94470281E491E0F5
:100C40000E94470260916A0170916B0180916C0172
:100C500090916D0142E00E9477038EE391E00E9443
:100C600047021093010100930001A114B10409F49B
:100C700067CF0E948001882309F462CF0E940000A0
:100C80005FCF0E940A01C0904601D0904701E090DA
:100C90004801F09049016C197D098E099F09683E51
:100CA00073408105910508F485CF61E08DE00E94D5
:100CB000870080CF80915901811104C00E942302D6
:100CC000811150C080915801811178C020E030E03E
:100CD00040EE50E460916E0170916F01809170015F
:100CE000909171010E94C50787FD68C020E030E047
:100CF00040EE50E460916A0170916B0180916C014B
:100D000090916D010E94C50787FF58C0109259014C
:100D1000C0905401D0905501E0905601F0905701D9
:100D20000E940A01C61AD70AE80AF90AC986DA86B1
:100D3000EB86FC8689859A85AB85BC85893E934088
:100D4000A105B10508F067CF81E0809358010E94AA
:100D50000A0160934F017093500180935101909369
:100D6000520159CF10925E01C0905A01D0905B01A0
:100D7000E0905C01F0905D010E940A01C61AD70A5A
:100D8000E80AF90ACD86DE86EF86F88A8D859E858B
:100D9000AF85B889893E9340A105B10508F03BCFE6
:100DA00081E0809359010E940A016093540170937D
:100DB000550180935601909357012DCFF090530128
:100DC0000E942302F1102EC0882371F11092580165
:100DD000C0904F01D0905001E0905101F09052012D
:100DE0000E940A01C61AD70AE80AF90ACD82DE82F1
:100DF000EF82F8868D819E81AF81B885893E9340D0
:100E0000A105B10508F007CF81E0809353010E944E
:100E10000A0160934B0170934C0180934D019093B4
:100E20004E01F9CE8111F7CEC0904B01D0904C010C
:100E3000E0904D01F0904E010E940A01C61AD70AB7
:100E4000E80AF90AC982DA82EB82FC8289819A81F6
:100E5000AB81BC81E0CEE2E7F1E01382128288EE42
:100E600093E0A0E0B0E084839583A683B78386E017
:100E700091E09183808385EC90E09587848784EC72
:100E800090E09787868780EC90E0918B808B81EC57
:100E900090E0938B828B82EC90E0958B848B86EC38
:100EA00090E0978B868B118E128E138E148E089580
:100EB0005058BB27AA270E9470070C94E3080E9491
:100EC000D50838F00E94DC0820F039F49F3F19F46F
:100ED00026F40C94D2080EF4E095E7FB0C94CC08B1
:100EE000E92F0E94F40858F3BA17620773078407C2
:100EF000950720F079F4A6F50C9416090EF4E09508
:100F00000B2EBA2FA02D0B01B90190010C01CA01C3
:100F1000A0011124FF27591B99F0593F50F4503E6E
:100F200068F11A16F040A22F232F342F4427585F60
:100F3000F3CF469537952795A795F0405395C9F778
:100F40007EF41F16BA0B620B730B840BBAF0915030
:100F5000A1F0FF0FBB1F661F771F881FC2F70EC0CF
:100F6000BA0F621F731F841F48F4879577956795A2
:100F7000B795F7959E3F08F0B0CF9395880F08F08E
:100F80009927EE0F9795879508950E94A80808F471
:100F900081E008950E94DE070C94E3080E94DC08BB
:100FA00058F00E94D50840F029F45F3F29F00C94D6
:100FB000CC0851110C9417090C94D2080E94F40823
:100FC00068F39923B1F3552391F3951B550BBB2778
:100FD000AA2762177307840738F09F5F5F4F220FBD
:100FE000331F441FAA1FA9F335D00E2E3AF0E0E8B4
:100FF00032D091505040E695001CCAF72BD0FE2FFE
:1010000029D0660F771F881FBB1F26173707480791
:10101000AB07B0E809F0BB0B802DBF01FF27935849
:101020005F4F3AF09E3F510578F00C94CC080C9439
:1010300017095F3FE4F3983ED4F38695779567955B
:10104000B795F7959F5FC9F7880F911D969587957E
:1010500097F90895E1E0660F771F881FBB1F62179D
:1010600073078407BA0720F0621B730B840BBA0B5B
:10107000EE1F88F7E09508950E94FC0888F09F57BE
:1010800098F0B92F9927B751B0F0E1F0660F771FAC
:10109000881F991F1AF0BA95C9F714C0B13091F0A2
:1010A0000E941609B1E008950C941609672F782F55
:1010B0008827B85F39F0B93FCCF386957795679567
:1010C000B395D9F73EF490958095709561957F4FD3
:1010D0008F4F9F4F0895E89409C097FB3EF4909579
:1010E0008095709561957F4F8F4F9F4F9923A9F001
:1010F000F92F96E9BB279395F69587957795679590
:10110000B795F111F8CFFAF4BB0F11F460FF1BC0D3
:101110006F5F7F4F8F4F9F4F16C0882311F096E966
:1011200011C0772321F09EE8872F762F05C0662314
:1011300071F096E8862F70E060E02AF09A95660FCD
:10114000771F881FDAF7880F9695879597F9089586
:10115000990F0008550FAA0BE0E8FEEF16161706C8
:10116000E807F907C0F012161306E407F50798F030
:10117000621B730B840B950B39F40A2661F0232B49
:10118000242B252B21F408950A2609F4A140A695C5
:101190008FEF811D811D089597F99F6780E870E0AA
:1011A00060E008959FEF80EC089500240A941616DD
:1011B000170618060906089500240A941216130645
:1011C000140605060895092E0394000C11F48823D3
:1011D00052F0BB0F40F4BF2B11F460FF04C06F5FEF
:1011E0007F4F8F4F9F4F089557FD9058440F551FC5
:1011F00059F05F3F71F04795880F97FB991F61F099
:101200009F3F79F087950895121613061406551F0F
:10121000F2CF4695F1DF08C0161617061806991F7B
:10122000F1CF86957105610508940895E894BB2770
:1012300066277727CB0197F908950E94A80808F43C
:101240008FEF08950E9435090C94E3080E94D50899
:1012500038F00E94DC0820F0952311F00C94CC08A3
:101260000C94D20811240C9417090E94F40870F30E
:10127000959FC1F3950F50E0551F629FF001729F3B
:10128000BB27F00DB11D639FAA27F00DB11DAA1F4A
:10129000649F6627B00DA11D661F829F2227B00D97
:1012A000A11D621F739FB00DA11D621F839FA00D22
:1012B000611D221F749F3327A00D611D231F849F72
:1012C000600D211D822F762F6A2F11249F575040C9
:1012D0009AF0F1F088234AF0EE0FFF1FBB1F661F44
:1012E000771F881F91505040A9F79E3F510580F00D
:1012F0000C94CC080C9417095F3FE4F3983ED4F3A8
:10130000869577956795B795F795E7959F5FC1F7B0
:10131000FE2B880F911D9695879597F908950E9449
:10132000A808880B990B0895A1E21A2EAA1BBB1BD3
:10133000FD010DC0AA1FBB1FEE1FFF1FA217B307A1
:10134000E407F50720F0A21BB30BE40BF50B661FB7
:10135000771F881F991F1A9469F76095709580957B
:1013600090959B01AC01BD01CF010895EE0FFF1FC9
:0C1370000590F491E02D0994F894FFCF53
:10137C00010000000000B6011601430103027401D4
:10138C0052016601617665726167652074686561FA
:10139C006420706572666F6D696E670A006E616EAF
:1013AC0000696E66006F76660053313A20000D0AB4
:0613BC000053323A20004C
:00000001FF
