:020000040000FA
:100000000C945D000C9485000C9485000C94850084
:100010000C9485000C9485000C9485000C9485004C
:100020000C9485000C9485000C9485000C9485003C
:100030000C9485000C9485000C9485000C9485002C
:100040000C9474030C9485000C94E4030C94BE038C
:100050000C9485000C9485000C9485000C9485000C
:100060000C9485000C9485000000000024002700FB
:100070002A0000000000250028002B0004040404CE
:100080000404040402020202020203030303030342
:10009000010204081020408001020408102001021F
:1000A00004081020000000080002010000030407FB
:1000B0000000000000000000950611241FBECFEFD5
:1000C000D8E0DEBFCDBF11E0A0E0B1E0E0E5F2E1B5
:1000D00002C005900D92AC32B107D9F721E0ACE235
:1000E000B1E001C01D92A33FB207E1F710E0CDE5FA
:1000F000D0E004C02197FE010E942009CC35D10731
:10010000C9F70E9416040C9426090C94000090E094
:10011000FC01EC55FF4F2491FC01E057FF4F349157
:10012000FC01E458FF4FE491EE23C9F0222339F09B
:10013000233001F1A8F4213019F1223029F1F0E047
:10014000EE0FFF1FEE58FF4FA591B4918FB7F894B3
:10015000EC91611126C030953E233C938FBF0895EA
:100160002730A9F02830C9F0243049F78091800069
:100170008F7D03C0809180008F7780938000DFCFD8
:1001800084B58F7784BDDBCF84B58F7DFBCF809125
:10019000B0008F778093B000D2CF8091B0008F7D78
:1001A000F9CF3E2BDACF8E50806480937C00809113
:1001B0007A00806480937A0080917A0086FDFCCF7B
:1001C000809178009091790008953FB7F8948091DC
:1001D000520190915301A0915401B091550126B55F
:1001E000A89B05C02F3F19F00196A11DB11D3FBF6F
:1001F000BA2FA92F982F8827BC01CD01620F711D3E
:10020000811D911D42E0660F771F881F991F4A9537
:10021000D1F708952FB7F89460914E0170914F0176
:1002200080915001909151012FBF0895AF92BF92DC
:10023000CF92DF92EF92FF920F931F93CF93DF93B2
:100240006C017B018B01040F151FEB015E01AE18E1
:10025000BF08C017D10759F06991D601ED91FC9103
:100260000190F081E02DC6010995892B79F7C50130
:10027000DF91CF911F910F91FF90EF90DF90CF9082
:10028000BF90AF900895FC01538D448D252F30E031
:10029000842F90E0821B930B541710F0CF96089593
:1002A00001970895FC01918D828D981761F0A28DC0
:1002B000AE0FBF2FB11D5D968C91928D9F5F9F7386
:1002C000928F90E008958FEF9FEF0895FC01918D3C
:1002D000828D981731F0828DE80FF11D858D90E0A9
:1002E00008958FEF9FEF0895FC01918D228D892F46
:1002F00090E0805C9F4F821B91098F73992708952E
:1003000086E591E00E94740121E0892B09F420E048
:10031000822F089580E090E0892B29F00E948001CF
:1003200081110C9400000895FC01A48DA80FB92F31
:10033000B11DA35ABF4F2C91848D90E001968F730D
:100340009927848FA689B7892C93A089B1898C912C
:10035000837080648C93938D848D981306C002887B
:10036000F389E02D80818F7D80830895EF92FF9245
:100370000F931F93CF93DF93EC0181E0888F9B8DC8
:100380008C8D98131AC0E889F989808185FF15C082
:100390009FB7F894EE89FF896083E889F9898081A5
:1003A0008370806480839FBF81E090E0DF91CF9174
:1003B0001F910F91FF90EF900895F62E0B8D10E096
:1003C0000F5F1F4F0F731127E02E8C8D8E110CC005
:1003D0000FB607FCFACFE889F989808185FFF5CF50
:1003E000CE010E949401F1CFEB8DEC0FFD2FF11D9A
:1003F000E35AFF4FF0829FB7F8940B8FEA89FB898D
:1004000080818062CFCFCF93DF93EC01888D8823EA
:10041000B9F0AA89BB89E889F9898C9185FD03C067
:10042000808186FD0DC00FB607FCF7CF8C9185FF4C
:10043000F2CF808185FFEDCFCE010E949401E9CFFC
:10044000DF91CF91089520E030E040EE50E46091DC
:10045000490170914A0180914B0190914C010E9499
:100460002F0787FF12C020E030E040EE50E460919B
:1004700045017091460180914701909148010E9489
:100480002F07881F8827881F089580E00895FC01A2
:1004900001900020E9F73197AF01481B590BBC01CF
:1004A00086E591E00C9416018F929F92AF92BF92D5
:1004B0000F931F93CF93DF93CDB7DEB7A1970FB6FE
:1004C000F894DEBF0FBECDBF19A2423008F44AE057
:1004D0008E010F5D1F4F842E912CB12CA12CA501F4
:1004E00094010E94FE08E62FB901CA01EA30F4F433
:1004F000E05DD801EE938D01232B242B252B79F77A
:1005000090E080E0109719F0CD010E944702A1967B
:100510000FB6F894DEBF0FBECDBFDF91CF911F9114
:100520000F91BF90AF909F908F900895E95CE1CFBD
:100530004F925F926F927F928F929F92AF92BF92F3
:10054000CF92DF92EF92FF920F931F93CF936B01A5
:100550007C01742EAC019B010E94F908882399F05C
:1005600082E191E0CF911F910F91FF90EF90DF908A
:10057000CF90BF90AF909F908F907F906F905F9043
:100580004F900C94470246015701E894B7F82FEFBB
:100590003FEF4FE75FE7C501B4010E94F908811101
:1005A0000DC02FEF3FEF4FE75FE7C501B4010E9499
:1005B0002F0718161CF486E191E0D4CF2FEF3FEF00
:1005C0004FE75FE4C701B6010E94870818161CF4C4
:1005D0008AE191E0C7CF2FEF3FEF4FE75FECC70114
:1005E000B6010E942F0787FDF3CF20E030E0A9017C
:1005F000C701B6010E942F0710E000E087FF0AC084
:100600006DE286E591E00E94B6018C01F7FAF09464
:10061000F7F8F094C0E060E070E080E09FE37C16C3
:1006200041F020E030E040E251E40E943407CF5F27
:10063000F6CFA70196010E94C3062B013C010E9440
:10064000A6074B015C014AE00E9454027C01E00EC7
:10065000F11ECC23C1F1C501B4010E94D5079B0155
:10066000AC01C301B2010E94C2064B015C016EE203
:1006700086E591E00E94B601E80EF91EC15018F11E
:1006800020E030E040E251E4C501B4010E948C0852
:100690002B013C010E94A6074B01B12CA12C4AE082
:1006A000C501B4010E945402E80EF91EC501B4014F
:1006B0000E94D5079B01AC01C301B2010E94C20692
:1006C0004B015C01DBCFC701CF911F910F91FF90D0
:1006D000EF90DF90CF90BF90AF909F908F907F90E2
:1006E0006F905F904F9008951F920F920FB60F92E8
:1006F00011242F933F938F939F93AF93BF93809138
:100700004E0190914F01A0915001B0915101309153
:100710004D0123E0230F2D3758F50196A11DB11D82
:1007200020934D0180934E0190934F01A09350016F
:10073000B09351018091520190915301A0915401C5
:10074000B09155010196A11DB11D80935201909366
:100750005301A0935401B0935501BF91AF919F9164
:100760008F913F912F910F900FBE0F901F90189572
:1007700026E8230F0296A11DB11DD2CF1F920F9222
:100780000FB60F9211242F933F934F935F936F9364
:100790007F938F939F93AF93BF93EF93FF9386E5E0
:1007A00091E00E949401FF91EF91BF91AF919F91D1
:1007B0008F917F916F915F914F913F912F910F900A
:1007C0000FBE0F901F9018951F920F920FB60F92A9
:1007D00011242F938F939F93EF93FF93E0916601E2
:1007E000F09167018081E0916C01F0916D0182FDD3
:1007F0001BC0908180916F018F5F8F73209170017A
:10080000821741F0E0916F01F0E0EA5AFE4F958FB8
:1008100080936F01FF91EF919F918F912F910F9096
:100820000FBE0F901F9018958081F4CFCF93DF9368
:10083000CDB7DEB760970FB6F894DEBF0FBECDBF61
:10084000789484B5826084BD84B5816084BD85B5AB
:10085000826085BD85B5816085BD80916E008160B7
:1008600080936E001092810080918100826080935D
:10087000810080918100816080938100809180005F
:100880008160809380008091B10084608093B1008A
:100890008091B00081608093B00080917A00846084
:1008A00080937A0080917A00826080937A008091B0
:1008B0007A00816080937A0080917A0080688093CA
:1008C0007A001092C100E0916601F091670182E028
:1008D0008083E0916201F09163011082E0916401F4
:1008E000F091650180E1808310926E01E0916A01D0
:1008F000F0916B0186E08083E0916801F0916901DD
:10090000808180618083E0916801F091690180813C
:1009100088608083E0916801F0916901808180683E
:100920008083E0916801F091690180818F7D8083EF
:10093000EDE9F0E02491E9E8F0E08491882399F072
:1009400090E0880F991FFC01E859FF4FA591B491E1
:10095000FC01EE58FF4F859194918FB7F894EC917C
:10096000E22BEC938FBF60E08DE00E94870000E0F7
:1009700010E08EE00E94D300BC01990F880B990B08
:100980000E94D70720E030E042E054E40E948C0847
:1009900020E030EC4FE754E40E9434076B017C0107
:1009A000C0924901D0924A01E0924B01F0924C0171
:1009B00080E10E94D300BC01990F880B990B0E9423
:1009C000D70720E030E042E054E40E948C0820E0A9
:1009D00030EC4FE754E40E9434074B015C018092F5
:1009E000450190924601A0924701B092480120E053
:1009F00030E040EE50E4C701B6010E942F0787FFA8
:100A00001CC020E030E040EE50E4C501B4010E947B
:100A10002F0787FF12C08091300181119CC081E0B7
:100A2000809330010E940A0160932C0170932D0184
:100A300080932E0190932F0106C060E08DE00E940C
:100A40008700109230018091440181119DC020E007
:100A500030E040EE50E46091490170914A0180918C
:100A60004B0190914C010E942F0787FF8DC020E021
:100A700030E040EE50E46091450170914601809174
:100A80004701909148010E942F0787FD7DC081E0BA
:100A9000809344010E940A016093400170934101D8
:100AA00080934201909343018EE191E00E944702BE
:100AB0006091490170914A0180914B0190914C01E4
:100AC00042E00E94980283E291E00E94470286E29F
:100AD00091E00E944702609145017091460180912A
:100AE00047019091480142E00E94980283E291E020
:100AF0000E9447020E94E5004B015C0184EFC82E72
:100B0000DD24D394E12CF12C0E94E50068197909C9
:100B10008A099B09683E734081059105A8F381E02D
:100B2000C81AD108E108F10828EE820E23E0921ECF
:100B3000A11CB11CC114D104E104F10429F7011571
:100B4000110509F416CF0E948001882309F411CF02
:100B50000E9400000ECF0E940A01C0902C01D0908C
:100B60002D01E0902E01F0902F016C197D098E0966
:100B70009F09683E73408105910508F464CF61E0E8
:100B80008DE00E9487005FCF80913F01811104C0FA
:100B90000E942302811150C080913E01811178C0D2
:100BA00020E030E040EE50E46091490170914A014C
:100BB00080914B0190914C010E942F0787FD68C0E6
:100BC00020E030E040EE50E4609145017091460134
:100BD00080914701909148010E942F0787FF58C0DC
:100BE00010923F01C0903A01D0903B01E0903C014F
:100BF000F0903D010E940A01C61AD70AE80AF90AD4
:100C0000C986DA86EB86FC8689859A85AB85BC85A4
:100C1000893E9340A105B10508F046CF81E080935D
:100C20003E010E940A016093350170933601809362
:100C300037019093380138CF10924401C0904001A1
:100C4000D0904101E0904201F09043010E940A01DE
:100C5000C61AD70AE80AF90ACD86DE86EF86F88A30
:100C60008D859E85AF85B889893E9340A105B105E4
:100C700008F01ACF81E080933F010E940A0160933F
:100C80003A0170933B0180933C0190933D010CCF5E
:100C9000F09039010E942302F1102EC0882371F1D7
:100CA00010923E01C0903501D0903601E09037019E
:100CB000F09038010E940A01C61AD70AE80AF90A18
:100CC000CD82DE82EF82F8868D819E81AF81B885EC
:100CD000893E9340A105B10508F0E6CE81E08093FE
:100CE00039010E940A0160933101709332018093AF
:100CF000330190933401D8CE8111D6CEC09031010A
:100D0000D0903201E0903301F09034010E940A014A
:100D1000C61AD70AE80AF90AC982DA82EB82FC828B
:100D200089819A81AB81BC81BFCEE6E5F1E0138277
:100D3000128288EE93E0A0E0B0E084839583A683DE
:100D4000B78384E091E09183808385EC90E0958780
:100D5000848784EC90E09787868780EC90E0918B85
:100D6000808B81EC90E0938B828B82EC90E0958B72
:100D7000848B86EC90E0978B868B118E128E138E6F
:100D8000148E08955058BB27AA270E94DA060C94A7
:100D90004D080E943F0838F00E94460820F039F4C0
:100DA0009F3F19F426F40C943C080EF4E095E7FB01
:100DB0000C943608E92F0E945E0858F3BA176207B0
:100DC00073078407950720F079F4A6F50C94800842
:100DD0000EF4E0950B2EBA2FA02D0B01B901900156
:100DE0000C01CA01A0011124FF27591B99F0593F9A
:100DF00050F4503E68F11A16F040A22F232F342FE2
:100E00004427585FF3CF469537952795A795F0402F
:100E10005395C9F77EF41F16BA0B620B730B840B44
:100E2000BAF09150A1F0FF0FBB1F661F771F881FFC
:100E3000C2F70EC0BA0F621F731F841F48F4879554
:100E400077956795B795F7959E3F08F0B0CF939546
:100E5000880F08F09927EE0F9795879508950E94BF
:100E6000120808F481E008950E9448070C944D0888
:100E70000E94460858F00E943F0840F029F45F3F66
:100E800029F00C94360851110C9481080C943C08FC
:100E90000E945E0868F39923B1F3552391F3951BE3
:100EA000550BBB27AA2762177307840738F09F5F8B
:100EB0005F4F220F331F441FAA1FA9F335D00E2EF8
:100EC0003AF0E0E832D091505040E695001CCAF765
:100ED0002BD0FE2F29D0660F771F881FBB1F261728
:100EE00037074807AB07B0E809F0BB0B802DBF01FF
:100EF000FF2793585F4F3AF09E3F510578F00C94CE
:100F000036080C9481085F3FE4F3983ED4F386954D
:100F100077956795B795F7959F5FC9F7880F911DEE
:100F20009695879597F90895E1E0660F771F881FDA
:100F3000BB1F621773078407BA0720F0621B730B8D
:100F4000840BBA0BEE1F88F7E09508950E9466089F
:100F500088F09F5798F0B92F9927B751B0F0E1F07A
:100F6000660F771F881F991F1AF0BA95C9F714C02A
:100F7000B13091F00E948008B1E008950C9480088F
:100F8000672F782F8827B85F39F0B93FCCF3869563
:100F900077956795B395D9F73EF4909580957095C0
:100FA00061957F4F8F4F9F4F0895E89409C097FB3D
:100FB0003EF490958095709561957F4F8F4F9F4F30
:100FC0009923A9F0F92F96E9BB279395F695879574
:100FD00077956795B795F111F8CFFAF4BB0F11F437
:100FE00060FF1BC06F5F7F4F8F4F9F4F16C08823DE
:100FF00011F096E911C0772321F09EE8872F762F14
:1010000005C0662371F096E8862F70E060E02AF054
:101010009A95660F771F881FDAF7880F9695879540
:1010200097F90895990F0008550FAA0BE0E8FEEF15
:1010300016161706E807F907C0F012161306E4079C
:10104000F50798F0621B730B840B950B39F40A2695
:1010500061F0232B242B252B21F408950A2609F473
:10106000A140A6958FEF811D811D089597F99F6777
:1010700080E870E060E008959FEF80EC0895002420
:101080000A941616170618060906089500240A94ED
:1010900012161306140605060895092E0394000C73
:1010A00011F4882352F0BB0F40F4BF2B11F460FF02
:1010B00004C06F5F7F4F8F4F9F4F089557FD90582B
:1010C000440F551F59F05F3F71F04795880F97FB0C
:1010D000991F61F09F3F79F08795089512161306C6
:1010E0001406551FF2CF4695F1DF08C016161706F5
:1010F0001806991FF1CF869571056105089408952A
:10110000E894BB2766277727CB0197F908950E94BB
:10111000120808F48FEF08950E949F080C944D0860
:101120000E943F0838F00E94460820F0952311F0F5
:101130000C9436080C943C0811240C9481080E94ED
:101140005E0870F3959FC1F3950F50E0551F629FA5
:10115000F001729FBB27F00DB11D639FAA27F00D10
:10116000B11DAA1F649F6627B00DA11D661F829F37
:101170002227B00DA11D621F739FB00DA11D621F1C
:10118000839FA00D611D221F749F3327A00D611D39
:10119000231F849F600D211D822F762F6A2F11241B
:1011A0009F5750409AF0F1F088234AF0EE0FFF1F4E
:1011B000BB1F661F771F881F91505040A9F79E3FA5
:1011C000510580F00C9436080C9481085F3FE4F3DD
:1011D000983ED4F3869577956795B795F795E795FB
:1011E0009F5FC1F7FE2B880F911D9695879597F904
:1011F00008950E941208880B990B0895A1E21A2EF7
:10120000AA1BBB1BFD010DC0AA1FBB1FEE1FFF1FAA
:10121000A217B307E407F50720F0A21BB30BE40BFA
:10122000F50B661F771F881F991F1A9469F7609541
:101230007095809590959B01AC01BD01CF010895FB
:10124000EE0FFF1F0590F491E02D0994F894FFCF65
:1012500000000000B60116014301030274015201AF
:1012600066016E616E00696E66006F7666005331CE
:0C1270003A20000D0A0053323A20000022
:107E0000112484B714BE81FFF0D085E080938100F7
:107E100082E08093C00088E18093C10086E0809377
:107E2000C20080E18093C4008EE0C9D0259A86E02C
:107E300020E33CEF91E0309385002093840096BBD3
:107E4000B09BFECF1D9AA8958150A9F7CC24DD24C4
:107E500088248394B5E0AB2EA1E19A2EF3E0BF2EE7
:107E6000A2D0813461F49FD0082FAFD0023811F036
:107E7000013811F484E001C083E08DD089C08234E0
:107E800011F484E103C0853419F485E0A6D080C0E4
:107E9000853579F488D0E82EFF2485D0082F10E0AE
:107EA000102F00270E291F29000F111F8ED06801E7
:107EB0006FC0863521F484E090D080E0DECF843638
:107EC00009F040C070D06FD0082F6DD080E0C81688
:107ED00080E7D80618F4F601B7BEE895C0E0D1E017
:107EE00062D089930C17E1F7F0E0CF16F0E7DF06D8
:107EF00018F0F601B7BEE89568D007B600FCFDCFD4
:107F0000A601A0E0B1E02C9130E011968C91119780
:107F100090E0982F8827822B932B1296FA010C0160
:107F200087BEE89511244E5F5F4FF1E0A038BF0790
:107F300051F7F601A7BEE89507B600FCFDCF97BE46
:107F4000E89526C08437B1F42ED02DD0F82E2BD052
:107F50003CD0F601EF2C8F010F5F1F4F84911BD097
:107F6000EA94F801C1F70894C11CD11CFA94CF0C13
:107F7000D11C0EC0853739F428D08EE10CD085E9AC
:107F80000AD08FE07ACF813511F488E018D01DD067
:107F900080E101D065CF982F8091C00085FFFCCF94
:107FA0009093C60008958091C00087FFFCCF809118
:107FB000C00084FD01C0A8958091C6000895E0E648
:107FC000F0E098E1908380830895EDDF803219F02E
:107FD00088E0F5DFFFCF84E1DECF1F93182FE3DFCA
:107FE0001150E9F7F2DF1F91089580E0E8DFEE27F6
:047FF000FF270994CA
:027FFE00040479
:00000001FF
