:020000040000FA
:100000000C94DA000C9402010C9402010C9402018D
:100010000C9402010C9402010C9402010C94DF0573
:100020000C9402010C9402010C9402010C94AB0696
:100030000C9402010C9402010C9402010C94020134
:100040000C943D050C9402010C94AD050C948705AD
:100050000C9402010C9402010C9402010C94020114
:100060000C9402010C94020100407A10F35A00A093
:10007000724E18090010A5D4E80000E87648170071
:1000800000E40B54020000CA9A3B000000E1F505B1
:10009000000080969800000040420F000000A086FB
:1000A00001000000102700000000E803000000002D
:1000B0006400000000000A000000000001000000D1
:1000C00000002C76D888DC674F0823DFC1DFAE59EB
:1000D000E1B1B796E5E3E453C63AE651997696E87E
:1000E000E6C28426EB898C9B62ED407C6FFCEFBC02
:1000F0009C9F40F2BAA56FA5F490055A2AF75C932D
:100100006B6CF9676DC11BFCE0E40D47FEF520E662
:10011000B500D0ED902E0300943577050080841E45
:10012000080000204E0A000000C80C333333330FA0
:10013000986E12831141EF8D2114893BE65516CF3D
:10014000FEE6DB18D1844B381BF77C1D901DA4BB49
:10015000E424203284725E228100C9F124ECA1E5FE
:100160003D27000000080002010000030407000012
:1001700000000000000000000000250028002B0007
:1001800000000000240027002A00040404040404E2
:100190000404020202020202030303030303010236
:1001A0000408102040800102040810200102040805
:1001B0001020EE0611241FBECFEFD8E0DEBFCDBF6A
:1001C00025E0A4E0B2E001C01D92AA3AB207E1F72F
:1001D00012E0A0E0B1E0E2ECF2E202C005900D9284
:1001E000A430B107D9F710E0CAEDD0E004C02197E0
:1001F000FE010E94670FC93DD107C9F70E9425077C
:100200000C945F110C94000090E0FC01E256FE4F4C
:10021000249186579E4FFC018491882399F090E0A9
:10022000880F991FFC01E058FE4FA591B491FC0185
:10023000EA58FE4F859194918FB7F894EC91E22B98
:10024000EC938FBF089590E0FC01EE59FE4F24918E
:10025000FC01E256FE4F3491FC01E657FE4FE4915B
:10026000EE23C9F0222339F0233001F1A8F4213024
:1002700019F1223029F1F0E0EE0FFF1FEA58FE4F8E
:10028000A591B4918FB7F894EC91611126C0309587
:100290003E233C938FBF08952730A9F02830C9F042
:1002A000243049F7809180008F7D03C080918000C9
:1002B0008F7780938000DFCF84B58F7784BDDBCFCD
:1002C00084B58F7DFBCF8091B0008F778093B00095
:1002D000D2CF8091B0008F7DF9CF3E2BDACF8E50F8
:1002E000806480937C0080917A00806480937A009F
:1002F00080917A0086FDFCCF809178009091790002
:1003000008952FB7F89460910105709102058091CE
:100310000305909104052FBF0895AF92BF92CF922D
:10032000DF92EF92FF920F931F93CF93DF936C01B5
:100330007B018B01040F151FEB015E01AE18BF0896
:10034000C017D10759F06991D601ED91FC91019048
:10035000F081E02DC6010995892B79F7C501DF9160
:10036000CF911F910F91FF90EF90DF90CF90BF90B2
:10037000AF900895FC01538D448D252F30E0842FDC
:1003800090E0821B930B541710F0CF9608950197BD
:100390000895FC01918D828D981761F0A28DAE0FAA
:1003A000BF2FB11D5D968C91928D9F5F9F73928F31
:1003B00090E008958FEF9FEF0895FC01918D828D5D
:1003C000981731F0828DE80FF11D858D90E008952A
:1003D0008FEF9FEF0895FC01918D228D892F90E082
:1003E000805C9F4F821B91098F739927089585E048
:1003F00095E00E94EB0121E0892B09F420E0822F97
:10040000089580E090E0892B29F00E94F701811186
:100410000C9400000895FC01A48DA80FB92FB11D04
:10042000A35ABF4F2C91848D90E001968F7399272A
:10043000848FA689B7892C93A089B1898C91837008
:1004400080648C93938D848D981306C00288F38901
:10045000E02D80818F7D80830895EF92FF920F932E
:100460001F93CF93DF93EC0181E0888F9B8D8C8D60
:1004700098131AC0E889F989808185FF15C09FB754
:10048000F894EE89FF896083E889F9898081837017
:10049000806480839FBF81E090E0DF91CF911F91C6
:1004A0000F91FF90EF900895F62E0B8D10E00F5FE7
:1004B0001F4F0F731127E02E8C8D8E110CC00FB6BD
:1004C00007FCFACFE889F989808185FFF5CFCE0155
:1004D0000E940B02F1CFEB8DEC0FFD2FF11DE35AC3
:1004E000FF4FF0829FB7F8940B8FEA89FB898081D8
:1004F0008062CFCFCF93DF93EC01888D8823B9F052
:10050000AA89BB89E889F9898C9185FD03C080811E
:1005100086FD0DC00FB607FCF7CF8C9185FFF2CF9B
:10052000808185FFEDCFCE010E940B02E9CFDF91E4
:10053000CF91089520E030E040EF52E46091F8045C
:100540007091F9048091FA049091FB040E94D20CFE
:1005500087FD14C020E030E040EF52E46091F404E5
:100560007091F5048091F6049091F7040E94D20CEA
:10057000881F8827881F91E08927089580E00895C3
:1005800020E030E040EF52E46091F8047091F9040B
:100590008091FA049091FB040E94D20C87FF12C054
:1005A00020E030E040EF52E46091F4047091F504F3
:1005B0008091F6049091F7040E94D20C881F88273E
:1005C000881F089580E00895FC0101900020E9F75C
:1005D0003197AF01481B590BBC0185E095E00C94A5
:1005E0008D01CF93DF93FC0144815581608171813E
:1005F00085E095E00E948D01EC0189E191E00E9487
:10060000E4028C0F9D1FDF91CF9108958F929F92EE
:10061000AF92BF920F931F93CF93DF93CDB7DEB707
:10062000A1970FB6F894DEBF0FBECDBF19A242301E
:1006300008F44AE08E010F5D1F4F842E912CB12CDF
:10064000A12CA50194010E94450FE62FB901CA0112
:10065000EA30F4F4E05DD801EE938D01232B242BD6
:10066000252B79F790E080E0109719F0CD010E94DA
:10067000E402A1960FB6F894DEBF0FBECDBFDF91A6
:10068000CF911F910F91BF90AF909F908F90089541
:10069000E95CE1CF4F925F926F927F928F929F922F
:1006A000AF92BF92CF92DF92EF92FF920F931F9380
:1006B000CF936B017C01742EAC019B010E94400F13
:1006C000882399F08CE191E0CF911F910F91FF90D9
:1006D000EF90DF90CF90BF90AF909F908F907F90E2
:1006E0006F905F904F900C94E40246015701E8949C
:1006F000B7F82FEF3FEF4FE75FE7C501B4010E9466
:10070000400F81110DC02FEF3FEF4FE75FE7C501AD
:10071000B4010E94D20C18161CF480E291E0D4CFF0
:100720002FEF3FEF4FE75FE4C701B6010E943B0F99
:1007300018161CF484E291E0C7CF2FEF3FEF4FE78C
:100740005FECC701B6010E94D20C87FDF3CF20E019
:1007500030E0A901C701B6010E94D20C10E000E010
:1007600087FF0AC06DE285E095E00E942D028C01B2
:10077000F7FAF094F7F8F094C0E060E070E080E001
:100780009FE37C1641F020E030E040E251E40E941B
:100790009A0ECF5FF6CFA70196010E942E0E2B0175
:1007A0003C010E940C0F4B015C014AE00E940603D1
:1007B0007C01E00EF11ECC23C1F1C501B4010E9401
:1007C000D70C9B01AC01C301B2010E942D0E4B015D
:1007D0005C016EE285E095E00E942D02E80EF91EB4
:1007E000C15018F120E030E040E251E4C501B4010D
:1007F0000E94380D2B013C010E940C0F4B01B12CC3
:10080000A12C4AE0C501B4010E940603E80EF91EBE
:10081000C501B4010E94D70C9B01AC01C301B20118
:100820000E942D0E4B015C01DBCFC701CF911F91C0
:100830000F91FF90EF90DF90CF90BF90AF909F907F
:100840008F907F906F905F904F9008950F931F93BC
:10085000CF93DF93EC0188819981009759F02A8129
:100860003B812617370730F081E0DF91CF911F9150
:100870000F9108958B016F5F7F4F0E949210009738
:1008800059F0998388831B830A832C813D81232B14
:1008900059F7FC011082E8CF80E0E7CFCF93DF93D8
:1008A000EC0188819981009711F00E94091019824A
:1008B00018821D821C821B821A82DF91CF910895BB
:1008C0000F931F93CF93DF93EC010C811D810C5F7D
:1008D0001F4FB8010E942604882391F02881398196
:1008E0008C819D8168E271E0820F931F0E945811F4
:1008F0001D830C83CE01DF91CF911F910F9108953D
:10090000CE010E944E04F6CFEF92FF920F931F93F9
:10091000CF93DF93EC017B01198218821B821A822C
:100920001D821C82FB0101900020E9F731978F01A5
:10093000061B170BB8010E942604811109C0CE01C5
:10094000DF91CF911F910F91FF90EF900C944E0487
:100950001D830C83B70188819981DF91CF911F910D
:100960000F91FF90EF900C945811CF92DF92EF927D
:10097000FF920F931F93CF93DF93CDB7DEB7A1976D
:100980000FB6F894DEBF0FBECDBF7C01CB01BA011C
:10099000F7011182108213821282158214828E0155
:1009A0000F5F1F4F23E045E00E947D0A6C01009716
:1009B00071F0FC0101900020E9F731978F01081BCD
:1009C000190BB801C7010E942604811112C0C7018A
:1009D0000E944E04A1960FB6F894DEBF0FBECDBFA5
:1009E000DF91CF911F910F91FF90EF90DF90CF900B
:1009F0000895F70115830483B601808191810E94D7
:100A00005811E8CFEF92FF920F931F93CF93DF938C
:100A1000EC01FB01E080F180E114F10411F10481AB
:100A2000158101151105A9F08C819D81080F191FF1
:100A3000B801CE010E942604882399F028813981CB
:100A40008C819D81B701820F931F0E9458111D83D5
:100A50000C83CE01DF91CF911F910F91FF90EF900A
:100A60000895CE010E944E04F4CFFC018081918153
:100A7000009711F00C94091008951F920F920FB671
:100A80000F9211242F933F938F939F93AF93BF9314
:100A90008091010590910205A0910305B091040594
:100AA0003091000523E0230F2D3758F50196A11D45
:100AB000B11D209300058093010590930205A0933A
:100AC0000305B09304058091FC049091FD04A0916E
:100AD000FE04B091FF040196A11DB11D8093FC049A
:100AE0009093FD04A093FE04B093FF04BF91AF91D7
:100AF0009F918F913F912F910F900FBE0F901F905C
:100B0000189526E8230F0296A11DB11DD2CF1F9282
:100B10000F920FB60F9211242F933F934F935F9331
:100B20006F937F938F939F93AF93BF93EF93FF93B5
:100B300085E095E00E940B02FF91EF91BF91AF918C
:100B40009F918F917F916F915F914F913F912F91E5
:100B50000F900FBE0F901F9018951F920F920FB617
:100B60000F9211242F938F939F93EF93FF93E09114
:100B70001505F09116058081E0911B05F0911C058B
:100B800082FD1BC0908180911E058F5F8F73209125
:100B90001F05821741F0E0911E05F0E0EB5FFA4F70
:100BA000958F80931E05FF91EF919F918F912F91CB
:100BB0000F900FBE0F901F9018958081F4CF1F9259
:100BC0000F920FB60F9211248F929F92AF92BF9205
:100BD000CF92DF92EF92FF920F931F932F933F9349
:100BE0004F935F936F937F938F939F93AF93BF9335
:100BF000CF93DF93EF93FF938EE00E946F01BC01D0
:100C0000990F880B990B0E94D90C20E030E042E04C
:100C100054E40E94380D20E030EC4FE754E40E9489
:100C20009A0E20E030E044EB52E40E949A0E4B0111
:100C30005C01C091D804D091D9042091F80430917E
:100C4000F9044091FA045091FB040E942E0E8E018B
:100C5000000F111F000F111F980120593C4F7901FF
:100C6000F90120813181428153810E942D0E6093D0
:100C7000F8047093F9048093FA049093FB04F7014D
:100C800080829182A282B38280E10E946F01BC01C6
:100C9000990F880B990B0E94D90C20E030E042E0BC
:100CA00054E40E94380D20E030EC4FE754E40E94F9
:100CB0009A0E20E030E044EB52E40E949A0E6B0161
:100CC0007C012091F4043091F5044091F604509198
:100CD000F7040E942E0E085F1D4FF801208131811C
:100CE000428153810E942D0E6093F4047093F504A9
:100CF0008093F6049093F704F801C082D182E282D7
:100D0000F3822196CA35D10509F1D093D904C09355
:100D1000D804FF91EF91DF91CF91BF91AF919F9157
:100D20008F917F916F915F914F913F912F911F9183
:100D30000F91FF90EF90DF90CF90BF90AF909F907A
:100D40008F900F900FBE0F901F9018951092D9049E
:100D50001092D804DECF1F920F920FB60F9211247B
:100D60002F933F934F935F936F937F938F939F93B3
:100D7000AF93BF93CF93EF93FF938091F2048823B7
:100D800041F10E948101C09100016C2F88E00E9416
:100D9000230181E0C827C09300010E948101609374
:100DA0000402709305028093060290930702FF915C
:100DB000EF91CF91BF91AF919F918F917F916F9163
:100DC0005F914F913F912F910F900FBE0F901F9009
:100DD000189560E088E00E942301E9CFE5E0F5E0A6
:100DE0001382128288EE93E0A0E0B0E084839583C2
:100DF000A683B7838BE091E09183808385EC90E0BC
:100E00009587848784EC90E09787868780EC90E0D4
:100E1000918B808B81EC90E0938B828B82EC90E0C5
:100E2000958B848B86EC90E0978B868B118E128E3F
:100E3000138E148E0E9481016093A2057093A30506
:100E40008093A4059093A5050895CF93DF93CDB724
:100E5000DEB76C970FB6F894DEBF0FBECDBF7894A7
:100E600084B5826084BD84B5816084BD85B58260AF
:100E700085BD85B5816085BD80916E008160809360
:100E80006E001092810080918100826080938100C9
:100E900080918100816080938100809180008160D9
:100EA000809380008091B10084608093B100809134
:100EB000B00081608093B00080917A00846080935C
:100EC0007A0080917A00826080937A0080917A0023
:100ED000816080937A0080917A00806880937A00A4
:100EE0001092C100E0911505F091160512E01083F3
:100EF000E0911105F09112051082E0911305F09137
:100F0000140580E1808310921D05E0911905F09190
:100F10001A0586E08083E0911705F091180580811D
:100F200080618083E0911705F091180580818860C9
:100F30008083E0911705F091180580818068808397
:100F4000E0911705F091180580818F7D80838DE0F9
:100F50000E94040188E00E94040189E00E940401CB
:100F600060E089E00E94230160E08DE00E9423019F
:100F700060E088E00E942301F8941092B000109283
:100F8000B1001092B2008CEA8093B3008091B0005F
:100F900082608093B0008091B10087608093B1003F
:100FA0008091700082608093700010928000109297
:100FB0008100109285001092840082E19AE790935C
:100FC00089008093880088E080938100809181006F
:100FD00083608093810010936F00789400E010E0AC
:100FE0000E948101C090A205D090A305E090A405C5
:100FF000F090A5056C197D098E099F09653671056C
:101000008105910580F18DE291E00E94E4026091FA
:10101000F8047091F9048091FA049091FB0442E085
:101020000E944A0389E191E00E94E40282E391E098
:101030000E94E4026091F4047091F5048091F6043A
:101040009091F70442E00E944A0389E191E00E94F6
:10105000E4020E9481016093A2057093A30580932E
:10106000A4059093A5050E949A0261E0811101C038
:1010700060E089E00E9423010E94C002882309F4F5
:10108000DBC08091DE048111BAC081E08093DE0470
:101090000E9481016093DA047093DB048093DC0486
:1010A0009093DD04198E1A8E1B8E1C8E1D8A1E8A4B
:1010B0001F8A188E198A1A8A1B8A1C8A1D861E8608
:1010C0001F86188AF090F304F110BDC020E030E0D4
:1010D00040EF52E46091F8047091F9048091FA04B1
:1010E0009091FB040E94D20C87FDADC020E030E05F
:1010F00040EF52E46091F4047091F5048091F6049D
:101100009091F7040E94D20C87FF9DC01092F204C8
:101110008091F104882309F44FC01092F1040E94D9
:101120008101C090EC04D090ED04E090EE04F090CA
:10113000EF046C197D098E099F096D877E878F8763
:10114000988B6D857E858F8598890E94D70C20E0CD
:1011500030E04AE754E40E949A0EAB01BC01CE0194
:1011600001960E94B50467E371E0CE0107960E94E4
:101170008404BE016F5F7F4FCE0107960E94020577
:101180000E9460040E94F102CE0107960E9435057C
:10119000CE0101960E9435058D859E85AF85B88963
:1011A00089389341A105B10538F481E08093F204B8
:1011B00089E491E00E94E4021092F0041092E704A6
:1011C0001092F10481E08093F30483E691E00E94A1
:1011D000E4020E9481016093E8047093E904809323
:1011E000EA049093EB040115110509F4F9CE0E946D
:1011F000F701882309F4F4CE0E940000F1CE0E948A
:101200008101C090DA04D090DB04E090DC04F0901F
:10121000DD046C197D098E099F090E94D70C20E01E
:1012200030E040E251E40E943B0F87FD3BCF61E09C
:101230008DE00E94230136CF60E08DE00E94230103
:101240001092DE042FCFE090F004E11006C0FF20E2
:1012500021F00E94C002811182C0F090E704F110D9
:10126000D9C0EE2009F4D6C020E030E040EF52E4CF
:101270006091F8047091F9048091FA049091FB0454
:101280000E94D20C87FFC6C020E030E040EF52E45D
:101290006091F4047091F5048091F6049091F70444
:1012A0000E94D20C87FDB6C01092F0040E9481010A
:1012B000C090E304D090E404E090E504F090E604EC
:1012C0006C197D098E099F096D8B7E8B8F8B988F92
:1012D0006D897E898F89988D0E94D70C20E030E03F
:1012E0004AE754E40E949A0EAB01BC01CE0101967C
:1012F0000E94B5046AEA71E0CE0107960E94840458
:10130000BE016F5F7F4FCE0107960E9402050E94CB
:1013100060040E94F102CE0107960E943505CE01BD
:1013200001960E9435058D899E89AF89B88D8131DE
:101330009742A105B10508F056CF81E08093E704FC
:101340008CEB91E00E94E4020E9481016093DF0433
:101350007093E0048093E1049093E20444CF1092F0
:10136000F3040E948101C090E804D090E904E09069
:10137000EA04F090EB046C197D098E099F09698FCE
:101380007A8F8B8F9C8F698D7A8D8B8D9C8D0E942F
:10139000D70C20E030E04AE754E40E949A0EAB01FB
:1013A000BC01CE0101960E94B5046EE771E0CE014A
:1013B00007960E948404BE016F5F7F4FCE0107969F
:1013C0000E9402050E9460040E94F102CE0107966D
:1013D0000E943505CE0101960E943505898D9A8DB2
:1013E000AB8DBC8D81319742A105B10508F0FBCED4
:1013F00081E08093F00480E991E00E94E4020E9481
:1014000081016093E3047093E4048093E504909376
:10141000E604E9CE8091F104811106C0FF2021F09D
:101420000E94C00281110EC00E949A02882309F412
:10143000DACE1092F3041092F0041092E7041092A6
:10144000F104D1CE1092E7040E948101C090DF0424
:10145000D090E004E090E104F090E2046C197D0982
:101460008E099F09698B7A8B8B8B9C8B69897A8912
:101470008B899C890E94D70C20E030E04AE754E435
:101480000E949A0EAB01BC01CE0101960E94B504E8
:1014900067ED71E0CE0107960E948404BE016F5F84
:1014A0007F4FCE0107960E9402050E9460040E94B1
:1014B000F102CE0107960E943505CE0101960E94E9
:1014C000350589899A89AB89BC8981319742A10503
:1014D000B10508F088CE81E08093F10489EE91E0B7
:1014E0000E94E4020E9481016093EC047093ED0479
:1014F0008093EE049093EF0476CEEF920F931F93B8
:10150000CF93DF93E80134E047FD34E1042E000C73
:10151000550B57FF03C0519541955109E32E022FFA
:10152000242FAE010E949B0ACE01DF91CF911F9123
:101530000F91EF900895A9E0B0E0E1EAFAE00C9491
:10154000FC0D6A01F22EB02E102FFBE3AF2EA01679
:1015500008F41BE31F5F012F27E0AE014F5F5F4FD1
:101560000E94FA0BBC018981982F9970913009F47F
:101570003FC09BE2E1FC04C09E2D9170E0FC3AC0AC
:101580005E2D5071E82FE87083FF46C084E0911112
:1015900001C083E0EF2DE81B8F1508F0E0E0D601D5
:1015A0008E2F20E2552351F1992329F0D6019C93E7
:1015B000C60101966C0196012D5F3F4FE2FE24C0EB
:1015C0008EE4D6018C9391E411969C931197129618
:1015D0008C93D9018E2F90E281111BC0E20FF32F63
:1015E000F11D10828EEF9FEF2996ECE00C94180EFF
:1015F0009DE2C6CF90E2C4CF2D9381508111FCCFE4
:10160000CE0ED11CE0E0D0CF8EE6D6018C9391E6D1
:10161000DBCF9D938150E0CF482F447082FF3DC0C7
:1016200084E0911101C083E08F1510F4EF2DE81BC9
:10163000D6018E2F20E2552309F1992329F0D601F6
:101640009C93C60101966C0196012D5F3F4FE2FE0F
:101650001BC089E4D6018C938EE411968C9311976C
:1016600086E412968C93D9018E2F90E2882309F498
:10167000B5CF9D938150FACF2D9381508111FCCF2E
:10168000CE0ED11CE0E0D9CF89E6D6018C938EE650
:1016900011968C93119786E6E4CF9B0177FF02C0E9
:1016A00030E020E0A1E0B0E0911102C0B0E0A0E0A5
:1016B000F9013196AE0FBF1F8B2C912CBB2009F482
:1016C00061C05401EFEFAE1ABE0AAA0DBB1DFA1697
:1016D0001B0619F014F04F2D4A1B511188C0E3FC72
:1016E00059C07601A42FB0E2A1114FC0C40ED11C85
:1016F000992309F45BC040E0D6011196F60190836E
:101700006D01552309F448C0012F060F9A81582F07
:10171000507184FF03C0913309F4015010160CF08E
:1017200047C0093008F008E0EEE2FE2E5B01A01A87
:10173000B10885019194819491082F3F320729F4D3
:10174000D601FC92F60131966F016217730794F18E
:10175000021713077CF5DB01A21BB30BAA24A39489
:10176000B12CAC0EBD1EAA0DBB1D11968C91215043
:101770003109D601119628153905F4F0F601808358
:101780006D01DBCFB12CA12CA0CFF701B1937F016C
:10179000A150AACF9111B0CFD601942F50E302C02F
:1017A0005D9391509111FCCFC40ED11C40E0ACCFA1
:1017B00001E0BACF80E3DBCF6217730731F49633D1
:1017C00088F4953311F4552369F0F6018083FD0107
:1017D000842F90E2811108C0A40FB11D1C9290E0EB
:1017E00080E002CF81E3F1CF91938150F3CF91114B
:1017F00083CF8ACF283008F027E03327DA01990F0A
:10180000311D87FD916000966105710539F43260E4
:101810002E5F3D9330E32A95E1F708959F3F30F026
:1018200080387105610509F03C5F3C5F3D93913064
:1018300008F08068911DDF93CF931F930F93FF9261
:10184000EF92192F987F9695E92F96959695E90F27
:10185000FF27EE53FF4F99273327EE24FF24A701DC
:10186000E70105900894079428F4360FE71EF81E48
:10187000491F511D660F771F881F991F0694A1F7F6
:101880000590079428F4E70EF81E491F561FC11D46
:10189000770F881F991F661F0694A1F7059007947C
:1018A00028F4F80E491F561FC71FD11D880F991F16
:1018B000661F771F0694A1F70590079420F4490F3F
:1018C000561FC71FD81F990F661F771F881F0694C2
:1018D000A9F784911095177041F0D695C795579543
:1018E0004795F794E7941A95C1F7E8E6F0E0689415
:1018F0001590159135916591959105907FE27395BD
:10190000E118F10A430B560BC90BD009C0F7E10CE3
:10191000F11E431F561FC91FD01D7EF4703311F4F2
:101920008A95E6CFE894015030F0080F0AF40027BA
:10193000021708F4202F2395022F7A3328F079E339
:101940007D932A95E9F710C07D932A9589F6069430
:1019500097956795379517951794E118F10A430BFA
:10196000560BC90BD00998F023957E9173957A3365
:1019700008F070E37C932013B8F77E9170617D933B
:1019800030F0839571E37D9370E32A95E1F711249C
:10199000EF90FF900F911F91CF91DF91992787FDD5
:1019A000909508950E94140D08F481E00895E8943C
:1019B00009C097FB3EF490958095709561957F4F97
:1019C0008F4F9F4F9923A9F0F92F96E9BB27939545
:1019D000F695879577956795B795F111F8CFFAF455
:1019E000BB0F11F460FF1BC06F5F7F4F8F4F9F4F86
:1019F00016C0882311F096E911C0772321F09EE8E4
:101A0000872F762F05C0662371F096E8862F70E049
:101A100060E02AF09A95660F771F881FDAF7880F23
:101A20009695879597F90895990F0008550FAA0B79
:101A3000E0E8FEEF16161706E807F907C0F01216E1
:101A40001306E407F50798F0621B730B840B950BE4
:101A500039F40A2661F0232B242B252B21F4089539
:101A60000A2609F4A140A6958FEF811D811D0895D6
:101A70000E944B0D0C94BC0D0E94AE0D38F00E94DC
:101A8000B50D20F0952311F00C94A50D0C94AB0D21
:101A900011240C94F00D0E94CD0D70F3959FC1F3AD
:101AA000950F50E0551F629FF001729FBB27F00D0C
:101AB000B11D639FAA27F00DB11DAA1F649F662761
:101AC000B00DA11D661F829F2227B00DA11D621FB0
:101AD000739FB00DA11D621F839FA00D611D221F6A
:101AE000749F3327A00D611D231F849F600D211D4E
:101AF000822F762F6A2F11249F5750409AF0F1F0D1
:101B000088234AF0EE0FFF1FBB1F661F771F881F39
:101B100091505040A9F79E3F510580F00C94A50DBF
:101B20000C94F00D5F3FE4F3983ED4F386957795DF
:101B30006795B795F795E7959F5FC1F7FE2B880FDF
:101B4000911D9695879597F9089597F99F6780E875
:101B500070E060E008959FEF80EC089500240A94FF
:101B60001616170618060906089500240A94121678
:101B70001306140605060895092E0394000C11F4AB
:101B8000882352F0BB0F40F4BF2B11F460FF04C058
:101B90006F5F7F4F8F4F9F4F089557FD9058440FB1
:101BA000551F59F05F3F71F04795880F97FB991FBC
:101BB00061F09F3F79F08795089512161306140679
:101BC000551FF2CF4695F1DF08C016161706180606
:101BD000991FF1CF86957105610508940895E894E1
:101BE000BB2766277727CB0197F908952F923F925D
:101BF0004F925F926F927F928F929F92AF92BF921D
:101C0000CF92DF92EF92FF920F931F93CF93DF93C8
:101C1000CDB7DEB7CA1BDB0B0FB6F894DEBF0FBE25
:101C2000CDBF09942A88398848885F846E847D8472
:101C30008C849B84AA84B984C884DF80EE80FD8074
:101C40000C811B81AA81B981CE0FD11D0FB6F894EA
:101C5000DEBF0FBECDBFED0108955058BB27AA27A8
:101C60000E94450E0C94BC0D0E94AE0D38F00E94EF
:101C7000B50D20F039F49F3F19F426F40C94AB0D08
:101C80000EF4E095E7FB0C94A50DE92F0E94CD0D15
:101C900058F3BA17620773078407950720F079F4A1
:101CA000A6F50C94EF0D0EF4E0950B2EBA2FA02D97
:101CB0000B01B90190010C01CA01A0011124FF27F9
:101CC000591B99F0593F50F4503E68F11A16F040F4
:101CD000A22F232F342F4427585FF3CF46953795F3
:101CE0002795A795F0405395C9F77EF41F16BA0BB8
:101CF000620B730B840BBAF09150A1F0FF0FBB1F66
:101D0000661F771F881FC2F70EC0BA0F621F731FAE
:101D1000841F48F4879577956795B795F7959E3F0B
:101D200008F0B0CF9395880F08F09927EE0F97959C
:101D3000879508950E94AE0E0C94BC0D0E94B50DBF
:101D400058F00E94AE0D40F029F45F3F29F00C944A
:101D5000A50D51110C94F00D0C94AB0D0E94CD0DFE
:101D600068F39923B1F3552391F3951B550BBB27CA
:101D7000AA2762177307840738F09F5F5F4F220F0F
:101D8000331F441FAA1FA9F335D00E2E3AF0E0E806
:101D900032D091505040E695001CCAF72BD0FE2F50
:101DA00029D0660F771F881FBB1F261737074807E4
:101DB000AB07B0E809F0BB0B802DBF01FF2793589C
:101DC0005F4F3AF09E3F510578F00C94A50D0C94AE
:101DD000F00D5F3FE4F3983ED4F3869577956795D1
:101DE000B795F7959F5FC9F7880F911D96958795D1
:101DF00097F90895E1E0660F771F881FBB1F6217F0
:101E000073078407BA0720F0621B730B840BBA0BAD
:101E1000EE1F88F7E09508950E94D50D88F09F5732
:101E200098F0B92F9927B751B0F0E1F0660F771FFE
:101E3000881F991F1AF0BA95C9F714C0B13091F0F4
:101E40000E94EF0DB1E008950C94EF0D672F782FED
:101E50008827B85F39F0B93FCCF3869577956795B9
:101E6000B395D9F73EF490958095709561957F4F25
:101E70008F4F9F4F08950E94140D08F48FEF08951F
:101E80000E94140D880B990B0895A1E21A2EAA1B2B
:101E9000BB1BFD010DC0AA1FBB1FEE1FFF1FA2171A
:101EA000B307E407F50720F0A21BB30BE40BF50B17
:101EB000661F771F881F991F1A9469F760957095A0
:101EC000809590959B01AC01BD01CF010895EE0F67
:101ED000FF1F0590F491E02D09940F931F93CF936A
:101EE000DF938230910510F482E090E0E091A80544
:101EF000F091A90530E020E0B0E0A0E0309799F43F
:101F00002115310509F44AC0281B390B243031054D
:101F1000D8F58A819B816115710589F1FB01938355
:101F20008283FE0111C040815181028113814817D3
:101F30005907E0F04817590799F4109761F0129685
:101F40000C93129713961C933296CF01DF91CF9189
:101F50001F910F9108950093A8051093A905F4CF40
:101F60002115310551F04217530738F0A901DB0163
:101F70009A01BD01DF01F801C1CFEF01F9CF9093C4
:101F8000A9058093A805CDCFFE01E20FF31F819331
:101F900091932250310939832883D7CF2091A60508
:101FA0003091A705232B41F42091030130910401C6
:101FB0003093A7052093A6052091010130910201DD
:101FC0002115310541F42DB73EB7409105015091DF
:101FD0000601241B350BE091A605F091A705E21739
:101FE000F307A0F42E1B3F0B2817390778F0AC013C
:101FF0004E5F5F4F2417350748F04E0F5F1F509319
:10200000A7054093A605819391939FCFF0E0E0E070
:102010009CCFCF93DF930097E9F0FC0132971382B6
:102020001282A091A805B091A905ED0130E020E051
:102030001097A1F420813181820F931F2091A60572
:102040003091A7052817390709F061C0F093A7055B
:10205000E093A605DF91CF910895EA01CE17DF073F
:10206000E8F54A815B819E0141155105B1F7E9010F
:10207000FB83EA8349915991C40FD51FEC17FD07E3
:1020800061F4808191810296840F951FE901998303
:102090008883828193819B838A83F0E0E0E01296BB
:1020A0008D919C9113970097B9F52D913C911197C3
:1020B000CD010296820F931F2091A6053091A705AE
:1020C0002817390739F6309751F51092A905109263
:1020D000A805B093A705A093A605BCCFD383C28360
:1020E00040815181840F951FC817D90761F44E5F55
:1020F0005F4F88819981480F591F518340838A819E
:102100009B81938382832115310509F0B0CFF09331
:10211000A905E093A8059ECFFD01DC01C0CF138285
:102120001282D7CFB0E0A0E0E8E9F0E10C94F80D1E
:102130008C01009751F4CB010E946D0F8C01C801F6
:10214000CDB7DEB7E0E10C94140EFC01E60FF71FEB
:102150009C0122503109E217F30708F49DC0D90110
:10216000CD91DC911197C617D70798F0C530D105EE
:1021700030F3CE0104978617970708F3C61BD70BD9
:102180002297C193D1936D937C93CF010E94091044
:10219000D6CF5B01AC1ABD0A4C018C0E9D1EA091DE
:1021A000A805B091A905512C412CF12CE12C1097D8
:1021B00031F58091A6059091A7058815990509F03C
:1021C0005CC04616570608F058C0809101019091F6
:1021D0000201009741F48DB79EB7409105015091DF
:1021E0000601841B950BE817F90708F055C0F0931A
:1021F000A705E093A605F90171836083A0CF8D91B7
:102200009C91119712966C90129713967C9013974D
:10221000A815B90559F56C0142E0C40ED11CCA14C9
:10222000DB0420F1AC014A195B09DA01129615971B
:1022300080F06282738251834083D9016D937C93D5
:10224000E114F10471F0D7011396FC93EE93129709
:1022500076CF22968C0F9D1FF90191838083F30125
:10226000EFCFF093A905E093A80569CF481659066A
:1022700008F42C017D01D3019ACFCB010E946D0F90
:102280007C01009749F0AE01B8010E944F11C801CE
:102290000E940910870153CF10E000E050CFFB01EE
:1022A000DC0102C001900D9241505040D8F70895D2
:1022B000FB01DC0101900D920020E1F70895F894F4
:1022C000FFCF010000AA058000000000002D028D54
:1022D00001BA017A02EB01C901DD010D0A006E614C
:1022E0006E00696E66006F76660020736567005346
:1022F000313A200053323A200054656D706F2065EA
:10230000737461646F2057203A20002A2A2A2A2AEF
:102310002A20494E5641534F52202A2A2A2A2A2A35
:102320002A2A2A0A003D3D3D3D3D3E20432061745E
:1023300069766F203C3D3D3D3D3D3D3D3D3D0A00C4
:1023400054656D706F2065737461646F2043203A2B
:1023500020003D3D3D3D3D3E205620617469766F35
:10236000203C3D3D3D3D3D3D3D3D0A0054656D7089
:102370006F2065737461646F2056203A20003D3DE4
:102380003D3D3D3E204A20617469766F203C3D3DD5
:102390003D3D3D3D3D3D3D0A0054656D706F2065FE
:1023A000737461646F204A203A20003D3D3D3D3DFD
:1023B0003E205720617469766F203C3D3D3D3D3D98
:0623C0003D3D3D3D0A0019
:107E0000112484B714BE81FFF0D085E080938100F7
:107E100082E08093C00088E18093C10086E0809377
:107E2000C20080E18093C4008EE0C9D0259A86E02C
:107E300020E33CEF91E0309385002093840096BBD3
:107E4000B09BFECF1D9AA8958150A9F7CC24DD24C4
:107E500088248394B5E0AB2EA1E19A2EF3E0BF2EE7
:107E6000A2D0813461F49FD0082FAFD0023811F036
:107E7000013811F484E001C083E08DD089C08234E0
:107E800011F484E103C0853419F485E0A6D080C0E4
:107E9000853579F488D0E82EFF2485D0082F10E0AE
:107EA000102F00270E291F29000F111F8ED06801E7
:107EB0006FC0863521F484E090D080E0DECF843638
:107EC00009F040C070D06FD0082F6DD080E0C81688
:107ED00080E7D80618F4F601B7BEE895C0E0D1E017
:107EE00062D089930C17E1F7F0E0CF16F0E7DF06D8
:107EF00018F0F601B7BEE89568D007B600FCFDCFD4
:107F0000A601A0E0B1E02C9130E011968C91119780
:107F100090E0982F8827822B932B1296FA010C0160
:107F200087BEE89511244E5F5F4FF1E0A038BF0790
:107F300051F7F601A7BEE89507B600FCFDCF97BE46
:107F4000E89526C08437B1F42ED02DD0F82E2BD052
:107F50003CD0F601EF2C8F010F5F1F4F84911BD097
:107F6000EA94F801C1F70894C11CD11CFA94CF0C13
:107F7000D11C0EC0853739F428D08EE10CD085E9AC
:107F80000AD08FE07ACF813511F488E018D01DD067
:107F900080E101D065CF982F8091C00085FFFCCF94
:107FA0009093C60008958091C00087FFFCCF809118
:107FB000C00084FD01C0A8958091C6000895E0E648
:107FC000F0E098E1908380830895EDDF803219F02E
:107FD00088E0F5DFFFCF84E1DECF1F93182FE3DFCA
:107FE0001150E9F7F2DF1F91089580E0E8DFEE27F6
:047FF000FF270994CA
:027FFE00040479
:00000001FF
