:020000040000FA
:100000000C94DA000C9402010C9402010C9402018D
:100010000C9402010C9402010C9402010C94E5056D
:100020000C9402010C9402010C9402010C94B10690
:100030000C9402010C9402010C9402010C94020134
:100040000C9443050C9402010C94B3050C948D059B
:100050000C9402010C9402010C9402010C94020114
:100060000C9402010C94020100407A10F35A00A093
:10007000724E18090010A5D4E80000E87648170071
:1000800000E40B54020000CA9A3B000000E1F505B1
:10009000000080969800000040420F000000A086FB
:1000A00001000000102700000000E803000000002D
:1000B0006400000000000A000000000001000000D1
:1000C00000002C76D888DC674F0823DFC1DFAE59EB
:1000D000E1B1B796E5E3E453C63AE651997696E87E
:1000E000E6C28426EB898C9B62ED407C6FFCEFBC02
:1000F0009C9F40F2BAA56FA5F490055A2AF75C932D
:100100006B6CF9676DC11BFCE0E40D47FEF520E662
:10011000B500D0ED902E0300943577050080841E45
:10012000080000204E0A000000C80C333333330FA0
:10013000986E12831141EF8D2114893BE65516CF3D
:10014000FEE6DB18D1844B381BF77C1D901DA4BB49
:10015000E424203284725E228100C9F124ECA1E5FE
:100160003D27000000080002010000030407000012
:1001700000000000000000000000250028002B0007
:1001800000000000240027002A00040404040404E2
:100190000404020202020202030303030303010236
:1001A0000408102040800102040810200102040805
:1001B0001020F40611241FBECFEFD8E0DEBFCDBF64
:1001C00024E0A6E0B2E001C01D92AC36B207E1F730
:1001D00012E0A0E0B1E0E4EDF2E202C005900D9281
:1001E000A630B107D9F710E0CAEDD0E004C02197DE
:1001F000FE010E94700FC93DD107C9F70E942B076D
:100200000C9468110C94000090E0FC01E256FE4F43
:10021000249186579E4FFC018491882399F090E0A9
:10022000880F991FFC01E058FE4FA591B491FC0185
:10023000EA58FE4F859194918FB7F894EC91E22B98
:10024000EC938FBF089590E0FC01EE59FE4F24918E
:10025000FC01E256FE4F3491FC01E657FE4FE4915B
:10026000EE23C9F0222339F0233001F1A8F4213024
:1002700019F1223029F1F0E0EE0FFF1FEA58FE4F8E
:10028000A591B4918FB7F894EC91611126C0309587
:100290003E233C938FBF08952730A9F02830C9F042
:1002A000243049F7809180008F7D03C080918000C9
:1002B0008F7780938000DFCF84B58F7784BDDBCFCD
:1002C00084B58F7DFBCF8091B0008F778093B00095
:1002D000D2CF8091B0008F7DF9CF3E2BDACF209125
:1002E000010190E4299F900111248E50822B80936C
:1002F0007C0080917A00806480937A0080917A00FB
:1003000086FDFCCF809178009091790008952FB7F9
:10031000F8946091C3037091C4038091C5039091D8
:10032000C6032FBF0895AF92BF92CF92DF92EF9294
:10033000FF920F931F93CF93DF936C017B018B018F
:10034000040F151FEB015E01AE18BF08C017D107DF
:1003500059F06991D601ED91FC910190F081E02D69
:10036000C6010995892B79F7C501DF91CF911F91BE
:100370000F91FF90EF90DF90CF90BF90AF900895D6
:10038000FC01538D448D252F30E0842F90E0821B9B
:10039000930B541710F0CF96089501970895FC0120
:1003A000918D828D981761F0A28DAE0FBF2FB11D78
:1003B0005D968C91928D9F5F9F73928F90E00895D0
:1003C0008FEF9FEF0895FC01918D828D981731F08A
:1003D000828DE80FF11D858D90E008958FEF9FEFDE
:1003E0000895FC01918D228D892F90E0805C9F4FB4
:1003F000821B91098F739927089587EC93E00E94DF
:10040000F10121E0892B09F420E0822F089580E09A
:1004100090E0892B29F00E94FD0181110C940000CD
:100420000895FC01A48DA80FB92FB11DA35ABF4F89
:100430002C91848D90E001968F739927848FA689E3
:10044000B7892C93A089B1898C91837080648C9337
:10045000938D848D981306C00288F389E02D8081E6
:100460008F7D80830895EF92FF920F931F93CF9318
:10047000DF93EC0181E0888F9B8D8C8D98131AC0DF
:10048000E889F989808185FF15C09FB7F894EE89C6
:10049000FF896083E889F989808183708064808323
:1004A0009FBF81E090E0DF91CF911F910F91FF906E
:1004B000EF900895F62E0B8D10E00F5F1F4F0F7316
:1004C0001127E02E8C8D8E110CC00FB607FCFACFD1
:1004D000E889F989808185FFF5CFCE010E9411025C
:1004E000F1CFEB8DEC0FFD2FF11DE35AFF4FF082A2
:1004F0009FB7F8940B8FEA89FB8980818062CFCF08
:10050000CF93DF93EC01888D8823B9F0AA89BB894A
:10051000E889F9898C9185FD03C0808186FD0DC035
:100520000FB607FCF7CF8C9185FFF2CF808185FF56
:10053000EDCFCE010E941102E9CFDF91CF91089556
:1005400020E030E048EC52E46091BA037091BB03C4
:100550008091BC039091BD030E94DB0C87FD14C009
:1005600020E030E048EC52E46091B6037091B703AC
:100570008091B8039091B9030E94DB0C881F8827F3
:10058000881F91E08927089580E0089520E030E0F9
:1005900048EC52E46091BA037091BB038091BC03B4
:1005A0009091BD030E94DB0C87FF12C020E030E079
:1005B00048EC52E46091B6037091B7038091B803A0
:1005C0009091B9030E94DB0C881F8827881F08952B
:1005D00080E00895FC0101900020E9F73197AF0118
:1005E000481B590BBC0187EC93E00C949301CF930B
:1005F000DF93FC01448155816081718187EC93E038
:100600000E949301EC018AE191E00E94EA028C0FC2
:100610009D1FDF91CF9108958F929F92AF92BF92CD
:100620000F931F93CF93DF93CDB7DEB7A1970FB68C
:10063000F894DEBF0FBECDBF19A2423008F44AE0E5
:100640008E010F5D1F4F842E912CB12CA12CA50182
:1006500094010E944E0FE62FB901CA01EA30F4F46A
:10066000E05DD801EE938D01232B242B252B79F708
:1006700090E080E0109719F0CD010E94EA02A19667
:100680000FB6F894DEBF0FBECDBFDF91CF911F91A3
:100690000F91BF90AF909F908F900895E95CE1CF4C
:1006A0004F925F926F927F928F929F92AF92BF9282
:1006B000CF92DF92EF92FF920F931F93CF936B0134
:1006C0007C01742EAC019B010E94490F882399F094
:1006D0008DE191E0CF911F910F91FF90EF90DF900E
:1006E000CF90BF90AF909F908F907F906F905F90D2
:1006F0004F900C94EA0246015701E894B7F82FEFA7
:100700003FEF4FE75FE7C501B4010E94490F811138
:100710000DC02FEF3FEF4FE75FE7C501B4010E9427
:10072000DB0C18161CF481E291E0D4CF2FEF3FEFE1
:100730004FE75FE4C701B6010E94440F18161CF48E
:1007400085E291E0C7CF2FEF3FEF4FE75FECC701A6
:10075000B6010E94DB0C87FDF3CF20E030E0A90159
:10076000C701B6010E94DB0C10E000E087FF0AC061
:100770006DE287EC93E00E9433028C01F7FAF0946B
:10078000F7F8F094C0E060E070E080E09FE37C1652
:1007900041F020E030E040E251E40E94A30ECF5F40
:1007A000F6CFA70196010E94370E2B013C010E9453
:1007B000150F4B015C014AE00E940C037C01E00E26
:1007C000F11ECC23C1F1C501B4010E94E00C9B01D4
:1007D000AC01C301B2010E94360E4B015C016EE216
:1007E00087EC93E00E943302E80EF91EC15018F125
:1007F00020E030E040E251E4C501B4010E94410D27
:100800002B013C010E94150F4B01B12CA12C4AE099
:10081000C501B4010E940C03E80EF91EC501B40124
:100820000E94E00C9B01AC01C301B2010E94360E94
:100830004B015C01DBCFC701CF911F910F91FF905E
:10084000EF90DF90CF90BF90AF909F908F907F9070
:100850006F905F904F9008950F931F93CF93DF9306
:10086000EC0188819981009759F02A813B812617F4
:10087000370730F081E0DF91CF911F910F910895FC
:100880008B016F5F7F4F0E949B10009759F09983F7
:1008900088831B830A832C813D81232B59F7FC011C
:1008A0001082E8CF80E0E7CFCF93DF93EC0188811F
:1008B0009981009711F00E941210198218821D82EE
:1008C0001C821B821A82DF91CF9108950F931F9390
:1008D000CF93DF93EC010C811D810C5F1F4FB8019A
:1008E0000E942C04882391F0288139818C819D817C
:1008F00069E271E0820F931F0E9461111D830C83D6
:10090000CE01DF91CF911F910F910895CE010E94EA
:100910005404F6CFEF92FF920F931F93CF93DF9380
:10092000EC017B01198218821B821A821D821C82B3
:10093000FB0101900020E9F731978F01061B170B8F
:10094000B8010E942C04811109C0CE01DF91CF9122
:100950001F910F91FF90EF900C9454041D830C8312
:10096000B70188819981DF91CF911F910F91FF90FD
:10097000EF900C946111CF92DF92EF92FF920F9360
:100980001F93CF93DF93CDB7DEB7A1970FB6F8943F
:10099000DEBF0FBECDBF7C01CB01BA01F7011182D2
:1009A000108213821282158214828E010F5F1F4FF4
:1009B00023E045E00E94860A6C01009771F0FC017B
:1009C00001900020E9F731978F01081B190BB8013E
:1009D000C7010E942C04811112C0C7010E94540457
:1009E000A1960FB6F894DEBF0FBECDBFDF91CF91B9
:1009F0001F910F91FF90EF90DF90CF900895F70136
:100A000015830483B601808191810E946111E8CF32
:100A1000EF92FF920F931F93CF93DF93EC01FB01B3
:100A2000E080F180E114F10411F1048115810115D8
:100A30001105A9F08C819D81080F191FB801CE0105
:100A40000E942C04882399F0288139818C819D8112
:100A5000B701820F931F0E9461111D830C83CE0189
:100A6000DF91CF911F910F91FF90EF900895CE01EC
:100A70000E945404F4CFFC0180819181009711F011
:100A80000C94121008951F920F920FB60F9211241A
:100A90002F933F938F939F93AF93BF938091C30303
:100AA0009091C403A091C503B091C6033091C203D5
:100AB00023E0230F2D3758F50196A11DB11D20937A
:100AC000C2038093C3039093C403A093C503B09360
:100AD000C6038091BE039091BF03A091C003B09163
:100AE000C1030196A11DB11D8093BE039093BF0366
:100AF000A093C003B093C103BF91AF919F918F9119
:100B00003F912F910F900FBE0F901F90189526E8E0
:100B1000230F0296A11DB11DD2CF1F920F920FB6C7
:100B20000F9211242F933F934F935F936F937F9373
:100B30008F939F93AF93BF93EF93FF9387EC93E0D3
:100B40000E941102FF91EF91BF91AF919F918F9100
:100B50007F916F915F914F913F912F910F900FBEB9
:100B60000F901F9018951F920F920FB60F9211249D
:100B70002F938F939F93EF93FF93E091D703F0917F
:100B8000D8038081E091DD03F091DE0382FD1BC07C
:100B900090818091E0038F5F8F732091E103821732
:100BA00041F0E091E003F0E0E953FC4F958F809332
:100BB000E003FF91EF919F918F912F910F900FBEC6
:100BC0000F901F9018958081F4CF1F920F920FB64F
:100BD0000F9211248F929F92AF92BF92CF92DF9289
:100BE000EF92FF920F931F932F933F934F935F9337
:100BF0006F937F938F939F93AF93BF93CF93DF9325
:100C0000EF93FF938EE00E946F01BC01990F880B58
:100C1000990B0E94E20C20E030E042E054E40E9494
:100C2000410D20E030EC4FE754E40E94A30E20E099
:100C300030E048E452E40E94A30E4B015C01C091F5
:100C40009A03D0919B032091BA033091BB0340914A
:100C5000BC035091BD030E94370E8E01000F111F7F
:100C6000000F111F98012E523D4F7901F90120818B
:100C70003181428153810E94360E6093BA03709392
:100C8000BB038093BC039093BD03F70180829182E4
:100C9000A282B38280E10E946F01BC01990F880B90
:100CA000990B0E94E20C20E030E042E054E40E9404
:100CB000410D20E030EC4FE754E40E94A30E20E009
:100CC00030E048E452E40E94A30E6B017C012091C5
:100CD000B6033091B7034091B8035091B9030E9415
:100CE000370E065F1D4FF80120813181428153810B
:100CF0000E94360E6093B6037093B7038093B803D7
:100D00009093B903F801C082D182E282F3822196E6
:100D1000C233D10509F1D0939B03C0939A03FF918D
:100D2000EF91DF91CF91BF91AF919F918F917F9183
:100D30006F915F914F913F912F911F910F91FF9074
:100D4000EF90DF90CF90BF90AF909F908F900F90DB
:100D50000FBE0F901F90189510929B0310929A034C
:100D6000DECF1F920F920FB60F9211242F933F9355
:100D70004F935F936F937F938F939F93AF93BF93A3
:100D8000CF93EF93FF938091B403882341F10E94A6
:100D90008701C09100016C2F88E00E94230181E04F
:100DA000C827C09300010E948701609306027093D8
:100DB00007028093080290930902FF91EF91CF916F
:100DC000BF91AF919F918F917F916F915F914F9163
:100DD0003F912F910F900FBE0F901F90189560E0DC
:100DE00088E00E942301E9CFE7ECF3E0138212824E
:100DF00088EE93E0A0E0B0E084839583A683B78378
:100E00008CE091E09183808385EC90E095878487E6
:100E100084EC90E09787868780EC90E0918B808BC4
:100E200081EC90E0938B828B82EC90E0958B848BAD
:100E300086EC90E0978B868B118E128E138E148E1B
:100E40000E94870160936404709365048093660434
:100E5000909367040895CF93DF93CDB7DEB76C9777
:100E60000FB6F894DEBF0FBECDBF789484B5826014
:100E700084BD84B5816084BD85B5826085BD85B53E
:100E8000816085BD80916E00816080936E001092BC
:100E90008100809181008260809381008091810037
:100EA00081608093810080918000816080938000C8
:100EB0008091B10084608093B1008091B000816026
:100EC0008093B00080917A00846080937A00809152
:100ED0007A00826080937A0080917A0081608093AA
:100EE0007A0080917A00806880937A001092C10025
:100EF000E091D703F091D80312E01083E091D3037F
:100F0000F091D4031082E091D503F091D60380E1F3
:100F100080831092DF03E091DB03F091DC0386E035
:100F20008083E091D903F091DA038081806180832E
:100F3000E091D903F091DA03808188608083E091A9
:100F4000D903F091DA03808180688083E091D9032E
:100F5000F091DA0380818F7D808381E080930101AD
:100F60008DE00E94040188E00E94040189E00E9453
:100F7000040160E089E00E94230160E08DE00E94AE
:100F8000230160E088E00E942301F8941092B000F1
:100F90001092B1001092B2008CEA8093B30080915D
:100FA000B00082608093B0008091B1008760809330
:100FB000B100809170008260809370001092800078
:100FC00010928100109285001092840082E19AE7CD
:100FD000909389008093880088E0809381008091BD
:100FE000810083608093810010936F00789400E00B
:100FF00010E00E948701C0906404D0906504E090E6
:101000006604F09067046C197D098E099F096536A6
:1010100071058105910580F18EE291E00E94EA025E
:101020006091BA037091BB038091BC039091BD03A2
:1010300042E00E9450038AE191E00E94EA0283E3C9
:1010400091E00E94EA026091B6037091B70380912B
:10105000B8039091B90342E00E9450038AE191E005
:101060000E94EA020E948701609364047093650401
:1010700080936604909367040E94A00261E081114E
:1010800001C060E089E00E9423010E94C60288231B
:1010900009F4DBC08091A0038111BAC081E0809384
:1010A000A0030E94870160939C0370939D0380932B
:1010B0009E0390939F03198E1A8E1B8E1C8E1D8A81
:1010C0001E8A1F8A188E198A1A8A1B8A1C8A1D86F4
:1010D0001E861F86188AF090B503F110BDC020E06F
:1010E00030E048EC52E46091BA037091BB03809108
:1010F000BC039091BD030E94DB0C87FDADC020E0D6
:1011000030E048EC52E46091B6037091B7038091EF
:10111000B8039091B9030E94DB0C87FF9DC0109229
:10112000B4038091B303882309F44FC01092B30332
:101130000E948701C090AE03D090AF03E090B0034F
:10114000F090B1036C197D098E099F096D877E8728
:101150008F87988B6D857E858F8598890E94E00C9E
:1011600020E030E04AE754E40E94A30EAB01BC014A
:10117000CE0101960E94BB0468E371E0CE010796A0
:101180000E948A04BE016F5F7F4FCE0107960E94C6
:1011900008050E9466040E94F702CE0107960E948D
:1011A0003B05CE0101960E943B058D859E85AF854E
:1011B000B88989389341A105B10538F481E080935D
:1011C000B4038AE491E00E94EA021092B203109202
:1011D000A9031092B30381E08093B50384E691E004
:1011E0000E94EA020E9487016093AA037093AB03F6
:1011F0008093AC039093AD030115110509F4F9CE6A
:101200000E94FD01882309F4F4CE0E940000F1CE73
:101210000E948701C0909C03D0909D03E0909E03A4
:10122000F0909F036C197D098E099F090E94E00CC4
:1012300020E030E040E251E40E94440F87FD3BCFC4
:1012400061E08DE00E94230136CF60E08DE00E94D6
:1012500023011092A0032FCFE090B203E11006C04B
:10126000FF2021F00E94C602811182C0F090A903E4
:10127000F110D9C0EE2009F4D6C020E030E048ECEF
:1012800052E46091BA037091BB038091BC039091CA
:10129000BD030E94DB0C87FFC6C020E030E048ECB5
:1012A00052E46091B6037091B7038091B8039091B6
:1012B000B9030E94DB0C87FDB6C01092B2030E94F6
:1012C0008701C090A503D090A603E090A703F090FB
:1012D000A8036C197D098E099F096D8B7E8B8F8BFE
:1012E000988F6D897E898F89988D0E94E00C20E00F
:1012F00030E04AE754E40E94A30EAB01BC01CE01EA
:1013000001960E94BB046BEA71E0CE0107960E9431
:101310008A04BE016F5F7F4FCE0107960E940805C9
:101320000E9466040E94F702CE0107960E943B05C8
:10133000CE0101960E943B058D899E89AF89B88DAB
:1013400081319742A105B10508F056CF81E0809325
:10135000A9038DEB91E00E94EA020E94870160934D
:10136000A1037093A2038093A3039093A40344CF9B
:101370001092B5030E948701C090AA03D090AB03DE
:10138000E090AC03F090AD036C197D098E099F09C4
:10139000698F7A8F8B8F9C8F698D7A8D8B8D9C8DC9
:1013A0000E94E00C20E030E04AE754E40E94A30EE3
:1013B000AB01BC01CE0101960E94BB046FE771E056
:1013C000CE0107960E948A04BE016F5F7F4FCE0157
:1013D00007960E9408050E9466040E94F702CE014B
:1013E00007960E943B05CE0101960E943B05898D20
:1013F0009A8DAB8DBC8D81319742A105B10508F066
:10140000FBCE81E08093B20381E991E00E94EA0281
:101410000E9487016093A5037093A6038093A7039E
:101420009093A803E9CE8091B303811106C0FF20F9
:1014300021F00E94C60281110EC00E94A0028823E2
:1014400009F4DACE1092B5031092B2031092A903F8
:101450001092B303D1CE1092A9030E948701C090CD
:10146000A103D090A203E090A303F090A4036C1911
:101470007D098E099F09698B7A8B8B8B9C8B69897F
:101480007A898B899C890E94E00C20E030E04AE751
:1014900054E40E94A30EAB01BC01CE0101960E9450
:1014A000BB0468ED71E0CE0107960E948A04BE017C
:1014B0006F5F7F4FCE0107960E9408050E94660469
:1014C0000E94F702CE0107960E943B05CE010196CD
:1014D0000E943B0589899A89AB89BC8981319742F1
:1014E000A105B10508F088CE81E08093B3038AEEB0
:1014F00091E00E94EA020E9487016093AE0370931C
:10150000AF038093B0039093B10376CEEF920F9325
:101510001F93CF93DF93E80134E047FD34E1042EBD
:10152000000C550B57FF03C0519541955109E32E0F
:10153000022F242FAE010E94A40ACE01DF91CF9189
:101540001F910F91EF900895A9E0B0E0EAEAFAE068
:101550000C94050E6A01F22EB02E102FFBE3AF2E75
:10156000A01608F41BE31F5F012F27E0AE014F5FB9
:101570005F4F0E94030CBC018981982F99709130B4
:1015800009F43FC09BE2E1FC04C09E2D9170E0FC99
:101590003AC05E2D5071E82FE87083FF46C084E0AA
:1015A000911101C083E0EF2DE81B8F1508F0E0E0FA
:1015B000D6018E2F20E2552351F1992329F0D6012F
:1015C0009C93C60101966C0196012D5F3F4FE2FE90
:1015D00024C08EE4D6018C9391E411969C931197CC
:1015E00012968C93D9018E2F90E281111BC0E20FCD
:1015F000F32FF11D10828EEF9FEF2996ECE00C94F3
:10160000210E9DE2C6CF90E2C4CF2D93815081116F
:10161000FCCFCE0ED11CE0E0D0CF8EE6D6018C936D
:1016200091E6DBCF9D938150E0CF482F447082FF3D
:101630003DC084E0911101C083E08F1510F4EF2DBF
:10164000E81BD6018E2F20E2552309F1992329F0BA
:10165000D6019C93C60101966C0196012D5F3F4F08
:10166000E2FE1BC089E4D6018C938EE411968C9324
:10167000119786E412968C93D9018E2F90E28823DD
:1016800009F4B5CF9D938150FACF2D9381508111EC
:10169000FCCFCE0ED11CE0E0D9CF89E6D6018C93E9
:1016A0008EE611968C93119786E6E4CF9B0177FF27
:1016B00002C030E020E0A1E0B0E0911102C0B0E053
:1016C000A0E0F9013196AE0FBF1F8B2C912CBB20EF
:1016D00009F461C05401EFEFAE1ABE0AAA0DBB1D9A
:1016E000FA161B0619F014F04F2D4A1B511188C031
:1016F000E3FC59C07601A42FB0E2A1114FC0C40E83
:10170000D11C992309F45BC040E0D6011196F60183
:1017100090836D01552309F448C0012F060F9A816B
:10172000582F507184FF03C0913309F401501016F3
:101730000CF047C0093008F008E0EEE2FE2E5B0135
:10174000A01AB10885019194819491082F3F320726
:1017500029F4D601FC92F60131966F0162177307E6
:1017600094F1021713077CF5DB01A21BB30BAA242B
:10177000A394B12CAC0EBD1EAA0DBB1D11968C916D
:1017800021503109D601119628153905F4F0F601DA
:1017900080836D01DBCFB12CA12CA0CFF701B193D9
:1017A0007F01A150AACF9111B0CFD601942F50E361
:1017B00002C05D9391509111FCCFC40ED11C40E04A
:1017C000ACCF01E0BACF80E3DBCF6217730731F40F
:1017D000963388F4953311F4552369F0F60180832C
:1017E000FD01842F90E2811108C0A40FB11D1C924D
:1017F00090E080E002CF81E3F1CF91938150F3CF6D
:10180000911183CF8ACF283008F027E03327DA01FF
:10181000990F311D87FD916000966105710539F4BE
:1018200032602E5F3D9330E32A95E1F708959F3FA4
:1018300030F080387105610509F03C5F3C5F3D93F5
:10184000913008F08068911DDF93CF931F930F9321
:10185000FF92EF92192F987F9695E92F969596957E
:10186000E90FFF27EE53FF4F99273327EE24FF247C
:10187000A701E70105900894079428F4360FE71EA6
:10188000F81E491F511D660F771F881F991F069468
:10189000A1F70590079428F4E70EF81E491F561F7C
:1018A000C11D770F881F991F661F0694A1F7059029
:1018B000079428F4F80E491F561FC71FD11D880F23
:1018C000991F661F771F0694A1F70590079420F4CF
:1018D000490F561FC71FD81F990F661F771F881FF4
:1018E0000694A9F784911095177041F0D695C79585
:1018F00057954795F794E7941A95C1F7E8E6F0E015
:1019000068941590159135916591959105907FE2B8
:101910007395E118F10A430B560BC90BD009C0F7B8
:10192000E10CF11E431F561FC91FD01D7EF47033FA
:1019300011F48A95E6CFE894015030F0080F0AF4CC
:101940000027021708F4202F2395022F7A3328F05E
:1019500079E37D932A95E9F710C07D932A9589F65E
:10196000069497956795379517951794E118F10A9E
:10197000430B560BC90BD00998F023957E917395B4
:101980007A3308F070E37C932013B8F77E9170618E
:101990007D9330F0839571E37D9370E32A95E1F7B1
:1019A0001124EF90FF900F911F91CF91DF91992714
:1019B00087FD909508950E941D0D08F481E008951B
:1019C000E89409C097FB3EF49095809570956195D9
:1019D0007F4F8F4F9F4F9923A9F0F92F96E9BB278F
:1019E0009395F695879577956795B795F111F8CF0B
:1019F000FAF4BB0F11F460FF1BC06F5F7F4F8F4F76
:101A00009F4F16C0882311F096E911C0772321F06B
:101A10009EE8872F762F05C0662371F096E8862F03
:101A200070E060E02AF09A95660F771F881FDAF75A
:101A3000880F9695879597F90895990F0008550F87
:101A4000AA0BE0E8FEEF16161706E807F907C0F044
:101A500012161306E407F50798F0621B730B840B4C
:101A6000950B39F40A2661F0232B242B252B21F426
:101A700008950A2609F4A140A6958FEF811D811DC6
:101A800008950E94540D0C94C50D0E94B70D38F0B6
:101A90000E94BE0D20F0952311F00C94AE0D0C9415
:101AA000B40D11240C94F90D0E94D60D70F3959F7E
:101AB000C1F3950F50E0551F629FF001729FBB2745
:101AC000F00DB11D639FAA27F00DB11DAA1F649FE1
:101AD0006627B00DA11D661F829F2227B00DA11D94
:101AE000621F739FB00DA11D621F839FA00D611D1A
:101AF000221F749F3327A00D611D231F849F600D3B
:101B0000211D822F762F6A2F11249F5750409AF063
:101B1000F1F088234AF0EE0FFF1FBB1F661F771FEF
:101B2000881F91505040A9F79E3F510580F00C94BA
:101B3000AE0D0C94F90D5F3FE4F3983ED4F3869517
:101B400077956795B795F795E7959F5FC1F7FE2B5A
:101B5000880F911D9695879597F9089597F99F6736
:101B600080E870E060E008959FEF80EC0895002425
:101B70000A941616170618060906089500240A94F2
:101B800012161306140605060895092E0394000C78
:101B900011F4882352F0BB0F40F4BF2B11F460FF07
:101BA00004C06F5F7F4F8F4F9F4F089557FD905830
:101BB000440F551F59F05F3F71F04795880F97FB11
:101BC000991F61F09F3F79F08795089512161306CB
:101BD0001406551FF2CF4695F1DF08C016161706FA
:101BE0001806991FF1CF869571056105089408952F
:101BF000E894BB2766277727CB0197F908952F92A2
:101C00003F924F925F926F927F928F929F92AF928C
:101C1000BF92CF92DF92EF92FF920F931F93CF93D9
:101C2000DF93CDB7DEB7CA1BDB0B0FB6F894DEBF70
:101C30000FBECDBF09942A88398848885F846E8496
:101C40007D848C849B84AA84B984C884DF80EE80E0
:101C5000FD800C811B81AA81B981CE0FD11D0FB6E9
:101C6000F894DEBF0FBECDBFED0108955058BB27DD
:101C7000AA270E944E0E0C94C50D0E94B70D38F095
:101C80000E94BE0D20F039F49F3F19F426F40C9405
:101C9000B40D0EF4E095E7FB0C94AE0DE92F0E9415
:101CA000D60D58F3BA17620773078407950720F01B
:101CB00079F4A6F50C94F80D0EF4E0950B2EBA2FDE
:101CC000A02D0B01B90190010C01CA01A001112442
:101CD000FF27591B99F0593F50F4503E68F11A16EE
:101CE000F040A22F232F342F4427585FF3CF46957F
:101CF00037952795A795F0405395C9F77EF41F16A1
:101D0000BA0B620B730B840BBAF09150A1F0FF0F6A
:101D1000BB1F661F771F881FC2F70EC0BA0F621F56
:101D2000731F841F48F4879577956795B795F79546
:101D30009E3F08F0B0CF9395880F08F09927EE0FDB
:101D40009795879508950E94B70E0C94C50D0E9433
:101D5000BE0D58F00E94B70D40F029F45F3F29F006
:101D60000C94AE0D51110C94F90D0C94B40D0E940D
:101D7000D60D68F39923B1F3552391F3951B550BB9
:101D8000BB27AA2762177307840738F09F5F5F4F4E
:101D9000220F331F441FAA1FA9F335D00E2E3AF08D
:101DA000E0E832D091505040E695001CCAF72BD0A5
:101DB000FE2F29D0660F771F881FBB1F26173707F6
:101DC0004807AB07B0E809F0BB0B802DBF01FF2728
:101DD00093585F4F3AF09E3F510578F00C94AE0D4A
:101DE0000C94F90D5F3FE4F3983ED4F38695779514
:101DF0006795B795F7959F5FC9F7880F911D9695E1
:101E0000879597F90895E1E0660F771F881FBB1F3C
:101E1000621773078407BA0720F0621B730B840BE9
:101E2000BA0BEE1F88F7E09508950E94DE0D88F04A
:101E30009F5798F0B92F9927B751B0F0E1F0660F8E
:101E4000771F881F991F1AF0BA95C9F714C0B130CF
:101E500091F00E94F80DB1E008950C94F80D672FF1
:101E6000782F8827B85F39F0B93FCCF386957795FE
:101E70006795B395D9F73EF49095809570956195E7
:101E80007F4F8F4F9F4F08950E941D0D08F48FEFD5
:101E900008950E941D0D880B990B0895A1E21A2E3A
:101EA000AA1BBB1BFD010DC0AA1FBB1FEE1FFF1FFE
:101EB000A217B307E407F50720F0A21BB30BE40B4E
:101EC000F50B661F771F881F991F1A9469F7609595
:101ED0007095809590959B01AC01BD01CF0108954F
:101EE000EE0FFF1F0590F491E02D09940F931F93BF
:101EF000CF93DF938230910510F482E090E0E0917F
:101F00006A04F0916B0430E020E0B0E0A0E030978C
:101F100099F42115310509F44AC0281B390B2430E6
:101F20003105D8F58A819B816115710589F1FB0125
:101F300093838283FE0111C040815181028113810C
:101F400048175907E0F04817590799F4109761F0BE
:101F500012960C93129713961C933296CF01DF9131
:101F6000CF911F910F91089500936A0410936B0411
:101F7000F4CF2115310551F04217530738F0A9016C
:101F8000DB019A01BD01DF01F801C1CFEF01F9CFFB
:101F900090936B0480936A04CDCFFE01E20FF31F90
:101FA000819391932250310939832883D7CF20918F
:101FB000680430916904232B41F42091040130918D
:101FC0000501309369042093680420910201309147
:101FD00003012115310541F42DB73EB740910601AB
:101FE00050910701241B350BE0916804F0916904BE
:101FF000E217F307A0F42E1B3F0B2817390778F0E0
:10200000AC014E5F5F4F2417350748F04E0F5F1F3E
:102010005093690440936804819391939FCFF0E0BB
:10202000E0E09CCFCF93DF930097E9F0FC0132977B
:1020300013821282A0916A04B0916B04ED0130E02A
:1020400020E01097A1F420813181820F931F20910D
:102050006804309169042817390709F061C0F093CA
:102060006904E0936804DF91CF910895EA01CE17E7
:10207000DF07E8F54A815B819E0141155105B1F703
:10208000E901FB83EA8349915991C40FD51FEC17ED
:10209000FD0761F4808191810296840F951FE9010B
:1020A00099838883828193819B838A83F0E0E0E037
:1020B00012968D919C9113970097B9F52D913C91B3
:1020C0001197CD010296820F931F209168043091E1
:1020D00069042817390739F6309751F510926B04C7
:1020E00010926A04B0936904A0936804BCCFD383B0
:1020F000C28340815181840F951FC817D90761F4AD
:102100004E5F5F4F88819981480F591F51834083EB
:102110008A819B81938382832115310509F0B0CF99
:10212000F0936B04E0936A049ECFFD01DC01C0CF05
:1021300013821282D7CFB0E0A0E0E1EAF0E10C9484
:10214000010E8C01009751F4CB010E94760F8C0197
:10215000C801CDB7DEB7E0E10C941D0EFC01E60F1F
:10216000F71F9C0122503109E217F30708F49DC0C4
:10217000D901CD91DC911197C617D70798F0C530DA
:10218000D10530F3CE0104978617970708F3C61BD5
:10219000D70B2297C193D1936D937C93CF010E946B
:1021A0001210D6CF5B01AC1ABD0A4C018C0E9D1EDD
:1021B000A0916A04B0916B04512C412CF12CE12CBC
:1021C000109731F5809168049091690488159905FC
:1021D00009F05CC04616570608F058C0809102010D
:1021E00090910301009741F48DB79EB7409106018D
:1021F00050910701841B950BE817F90708F055C0AB
:10220000F0936904E0936804F90171836083A0CFBF
:102210008D919C91119712966C90129713967C90C9
:102220001397A815B90559F56C0142E0C40ED11CED
:10223000CA14DB0420F1AC014A195B09DA011296D9
:10224000159780F06282738251834083D9016D9328
:102250007C93E114F10471F0D7011396FC93EE9393
:10226000129776CF22968C0F9D1FF9019183808360
:10227000F301EFCFF0936B04E0936A0469CF481643
:10228000590608F42C017D01D3019ACFCB010E949D
:10229000760F7C01009749F0AE01B8010E945811F9
:1022A000C8010E941210870153CF10E000E050CF08
:1022B000FB01DC0102C001900D9241505040D8F763
:1022C0000895FB01DC0101900D920020E1F70895D3
:1022D000F894FFCF010100006C04800000000000B2
:1022E00033029301C0018002F101CF01E3010D0A25
:1022F000006E616E00696E66006F76660020736521
:10230000670053313A200053323A200054656D7013
:102310006F2065737461646F2057203A20002A2A69
:102320002A2A2A2A20494E5641534F52202A2A2A25
:102330002A2A2A2A2A2A0A003D3D3D3D3D3E2043C5
:1023400020617469766F203C3D3D3D3D3D3D3D3D06
:102350003D0A0054656D706F2065737461646F2071
:1023600043203A20003D3D3D3D3D3E2056206174D6
:1023700069766F203C3D3D3D3D3D3D3D3D0A00546D
:10238000656D706F2065737461646F2056203A200C
:10239000003D3D3D3D3D3E204A20617469766F2001
:1023A0003C3D3D3D3D3D3D3D3D3D0A0054656D702C
:1023B0006F2065737461646F204A203A20003D3DB0
:1023C0003D3D3D3E205720617469766F203C3D3D88
:0A23D0003D3D3D3D3D3D3D0A00004E
:107E0000112484B714BE81FFF0D085E080938100F7
:107E100082E08093C00088E18093C10086E0809377
:107E2000C20080E18093C4008EE0C9D0259A86E02C
:107E300020E33CEF91E0309385002093840096BBD3
:107E4000B09BFECF1D9AA8958150A9F7CC24DD24C4
:107E500088248394B5E0AB2EA1E19A2EF3E0BF2EE7
:107E6000A2D0813461F49FD0082FAFD0023811F036
:107E7000013811F484E001C083E08DD089C08234E0
:107E800011F484E103C0853419F485E0A6D080C0E4
:107E9000853579F488D0E82EFF2485D0082F10E0AE
:107EA000102F00270E291F29000F111F8ED06801E7
:107EB0006FC0863521F484E090D080E0DECF843638
:107EC00009F040C070D06FD0082F6DD080E0C81688
:107ED00080E7D80618F4F601B7BEE895C0E0D1E017
:107EE00062D089930C17E1F7F0E0CF16F0E7DF06D8
:107EF00018F0F601B7BEE89568D007B600FCFDCFD4
:107F0000A601A0E0B1E02C9130E011968C91119780
:107F100090E0982F8827822B932B1296FA010C0160
:107F200087BEE89511244E5F5F4FF1E0A038BF0790
:107F300051F7F601A7BEE89507B600FCFDCF97BE46
:107F4000E89526C08437B1F42ED02DD0F82E2BD052
:107F50003CD0F601EF2C8F010F5F1F4F84911BD097
:107F6000EA94F801C1F70894C11CD11CFA94CF0C13
:107F7000D11C0EC0853739F428D08EE10CD085E9AC
:107F80000AD08FE07ACF813511F488E018D01DD067
:107F900080E101D065CF982F8091C00085FFFCCF94
:107FA0009093C60008958091C00087FFFCCF809118
:107FB000C00084FD01C0A8958091C6000895E0E648
:107FC000F0E098E1908380830895EDDF803219F02E
:107FD00088E0F5DFFFCF84E1DECF1F93182FE3DFCA
:107FE0001150E9F7F2DF1F91089580E0E8DFEE27F6
:047FF000FF270994CA
:027FFE00040479
:00000001FF
