:020000040000FA
:100000000C94DA000C9402010C9402010C9402018D
:100010000C9402010C9402010C9402010C94020154
:100020000C9402010C9402010C9402010C94EF0652
:100030000C9402010C9402010C9402010C94020134
:100040000C944D060C9402010C94BD060C9497067A
:100050000C9402010C9402010C9402010C94020114
:100060000C9402010C94020100407A10F35A00A093
:10007000724E18090010A5D4E80000E87648170071
:1000800000E40B54020000CA9A3B000000E1F505B1
:10009000000080969800000040420F000000A086FB
:1000A00001000000102700000000E803000000002D
:1000B0006400000000000A000000000001000000D1
:1000C00000002C76D888DC674F0823DFC1DFAE59EB
:1000D000E1B1B796E5E3E453C63AE651997696E87E
:1000E000E6C28426EB898C9B62ED407C6FFCEFBC02
:1000F0009C9F40F2BAA56FA5F490055A2AF75C932D
:100100006B6CF9676DC11BFCE0E40D47FEF520E662
:10011000B500D0ED902E0300943577050080841E45
:10012000080000204E0A000000C80C333333330FA0
:10013000986E12831141EF8D2114893BE65516CF3D
:10014000FEE6DB18D1844B381BF77C1D901DA4BB49
:10015000E424203284725E228100C9F124ECA1E5FE
:100160003D27000000080002010000030407000012
:1001700000000000000000000000250028002B0007
:1001800000000000240027002A00040404040404E2
:100190000404020202020202030303030303010236
:1001A0000408102040800102040810200102040805
:1001B00010203D0A11241FBECFEFD8E0DEBFCDBF17
:1001C00022E0ACE0B2E001C01D92AE3DB207E1F723
:1001D00012E0A0E0B1E0ECE9F2E202C005900D927D
:1001E000AC30B107D9F710E0CAEDD0E004C02197D8
:1001F000FE010E94540FC93DD107C9F70E94320782
:100200000C944C110C94000090E0FC01E256FE4F5F
:10021000249186579E4FFC018491882399F090E0A9
:10022000880F991FFC01E058FE4FA591B491FC0185
:10023000EA58FE4F859194918FB7F894EC91E22B98
:10024000EC938FBF089590E0FC01EE59FE4F24918E
:10025000FC01E256FE4F3491FC01E657FE4FE4915B
:10026000EE23C9F0222339F0233001F1A8F4213024
:1002700019F1223029F1F0E0EE0FFF1FEA58FE4F8E
:10028000A591B4918FB7F894EC91611126C0309587
:100290003E233C938FBF08952730A9F02830C9F042
:1002A000243049F7809180008F7D03C080918000C9
:1002B0008F7780938000DFCF84B58F7784BDDBCFCD
:1002C00084B58F7DFBCF8091B0008F778093B00095
:1002D000D2CF8091B0008F7DF9CF3E2BDACF8E50F8
:1002E000806480937C0080917A00806480937A009F
:1002F00080917A0086FDFCCF809178009091790002
:1003000008953FB7F89480912F0290913002A09108
:100310003102B091320226B5A89B05C02F3F19F0DB
:100320000196A11DB11D3FBFBA2FA92F982F882775
:10033000BC01CD01620F711D811D911D42E0660F50
:10034000771F881F991F4A95D1F708954F925F92A2
:100350006F927F928F929F92AF92BF92CF92DF92D5
:10036000EF92FF920F931F93CF93DF9300D000D0B3
:1003700000D0CDB7DEB70DEB11E01093D1020093A2
:10038000D0028091010190910201892B09F4A0C053
:100390008EE190E09E838D83C12CD12C76014601A5
:1003A00057018EE00E946F01BC01990F880B990BD9
:1003B0000E94C60C20E030E042E054E40E94250D8B
:1003C00020E030EC4FE754E40E94870E9B01AC0123
:1003D000C501B4010E941B0E4B015C0180E10E942B
:1003E0006F01BC01990F880B990B0E94C60C20E08D
:1003F00030E042E054E40E94250D20E030EC4FE76D
:1004000054E40E94870E9B01AC01C701B6010E9413
:100410001B0E6B017C010E9481012B013C018AE0D3
:1004200090E0A0E0B0E089839A83AB83BC830E9414
:1004300081016419750986099709683E7340810531
:100440009105A8F389819A81AB81BC810197A109AB
:10045000B10989839A83AB83BC8398EE490E93E0FC
:10046000591E611C711C89819A81AB81BC81892BC9
:100470008A2B8B2BE1F68D819E8101979E838D8344
:10048000892B09F08ECF20E030E040EF51E4C50128
:10049000B4010E94870E6093D6027093D7028093B6
:1004A000D8029093D90220E030E040EF51E4C70138
:1004B000B6010E94870E6093D2027093D30280939C
:1004C000D4029093D502109202011092010155CFEF
:1004D00090E080E026960FB6F894DEBF0FBECDBF49
:1004E000DF91CF911F910F91FF90EF90DF90CF9010
:1004F000BF90AF909F908F907F906F905F904F9044
:1005000008952FB7F89460912B0270912C0280917E
:100510002D0290912E022FBF0895AF92BF92CF92DD
:10052000DF92EF92FF920F931F93CF93DF936C01B3
:100530007B018B01040F151FEB015E01AE18BF0894
:10054000C017D10759F06991D601ED91FC91019046
:10055000F081E02DC6010995892B79F7C501DF915E
:10056000CF911F910F91FF90EF90DF90CF90BF90B0
:10057000AF900895FC01538D448D252F30E0842FDA
:1005800090E0821B930B541710F0CF9608950197BB
:100590000895FC01918D828D981761F0A28DAE0FA8
:1005A000BF2FB11D5D968C91928D9F5F9F73928F2F
:1005B00090E008958FEF9FEF0895FC01918D828D5B
:1005C000981731F0828DE80FF11D858D90E0089528
:1005D0008FEF9FEF0895FC01918D228D892F90E080
:1005E000805C9F4F821B91098F739927089583E345
:1005F00092E00E94EB0221E0892B09F420E0822F97
:10060000089580E090E0892B29F00E94F702811183
:100610000C9400000895FC01A48DA80FB92FB11D02
:10062000A35ABF4F2C91848D90E001968F73992728
:10063000848FA689B7892C93A089B1898C91837006
:1006400080648C93938D848D981306C00288F389FF
:10065000E02D80818F7D80830895EF92FF920F932C
:100660001F93CF93DF93EC0181E0888F9B8D8C8D5E
:1006700098131AC0E889F989808185FF15C09FB752
:10068000F894EE89FF896083E889F9898081837015
:10069000806480839FBF81E090E0DF91CF911F91C4
:1006A0000F91FF90EF900895F62E0B8D10E00F5FE5
:1006B0001F4F0F731127E02E8C8D8E110CC00FB6BB
:1006C00007FCFACFE889F989808185FFF5CFCE0153
:1006D0000E940B03F1CFEB8DEC0FFD2FF11DE35AC0
:1006E000FF4FF0829FB7F8940B8FEA89FB898081D6
:1006F0008062CFCFCF93DF93EC01888D8823B9F050
:10070000AA89BB89E889F9898C9185FD03C080811C
:1007100086FD0DC00FB607FCF7CF8C9185FFF2CF99
:10072000808185FFEDCFCE010E940B03E9CFDF91E1
:10073000CF91089520E030E040E251E46091D6028C
:100740007091D7028091D8029091D9020E94BF0C7B
:1007500087FD14C020E030E040E251E46091D20215
:100760007091D3028091D4029091D5020E94BF0C67
:10077000881F8827881F91E08927089580E00895C1
:1007800020E030E040E251E46091D6027091D7025F
:100790008091D8029091D9020E94BF0C87FF12C0AD
:1007A00020E030E040E251E46091D2027091D30247
:1007B0008091D4029091D5020E94BF0C881F882797
:1007C000881F089580E00895FC0101900020E9F75A
:1007D0003197AF01481B590BBC0183E392E00C94A5
:1007E0008D02CF93DF93FC0144815581608171813B
:1007F00083E392E00E948D02EC018BE191E00E9484
:10080000E4038C0F9D1FDF91CF9108958F929F92EB
:10081000AF92BF920F931F93CF93DF93CDB7DEB705
:10082000A1970FB6F894DEBF0FBECDBF19A242301C
:1008300008F44AE08E010F5D1F4F842E912CB12CDD
:10084000A12CA50194010E94320FE62FB901CA0123
:10085000EA30F4F4E05DD801EE938D01232B242BD4
:10086000252B79F790E080E0109719F0CD010E94D8
:10087000E403A1960FB6F894DEBF0FBECDBFDF91A3
:10088000CF911F910F91BF90AF909F908F9008953F
:10089000E95CE1CF109229021092260210921D020B
:1008A000109227028EE191E00E94E4038BE191E037
:1008B0000C94E4034F925F926F927F928F929F927B
:1008C000AF92BF92CF92DF92EF92FF920F931F935E
:1008D000CF936B017C01742EAC019B010E942D0F04
:1008E000882399F084E291E0CF911F910F91FF90BE
:1008F000EF90DF90CF90BF90AF909F908F907F90C0
:100900006F905F904F900C94E40346015701E89478
:10091000B7F82FEF3FEF4FE75FE7C501B4010E9443
:100920002D0F81110DC02FEF3FEF4FE75FE7C5019E
:10093000B4010E94BF0C18161CF488E291E0D4CFD9
:100940002FEF3FEF4FE75FE4C701B6010E94280F8A
:1009500018161CF48CE291E0C7CF2FEF3FEF4FE762
:100960005FECC701B6010E94BF0C87FDF3CF20E00A
:1009700030E0A901C701B6010E94BF0C10E000E001
:1009800087FF0AC06DE283E392E00E942D038C0191
:10099000F7FAF094F7F8F094C0E060E070E080E0DF
:1009A0009FE37C1641F020E030E040E251E40E94F9
:1009B000870ECF5FF6CFA70196010E941B0E2B0179
:1009C0003C010E94F90E4B015C014AE00E940604C2
:1009D0007C01E00EF11ECC23C1F1C501B4010E94DF
:1009E000C40C9B01AC01C301B2010E941A0E4B0161
:1009F0005C016EE283E392E00E942D03E80EF91E93
:100A0000C15018F120E030E040E251E4C501B401EA
:100A10000E94250D2B013C010E94F90E4B01B12CC7
:100A2000A12C4AE0C501B4010E940604E80EF91E9B
:100A3000C501B4010E94C40C9B01AC01C301B20109
:100A40000E941A0E4B015C01DBCFC701CF911F91B1
:100A50000F91FF90EF90DF90CF90BF90AF909F905D
:100A60008F907F906F905F904F9008950F931F939A
:100A7000CF93DF93EC0188819981009759F02A8107
:100A80003B812617370730F081E0DF91CF911F912E
:100A90000F9108958B016F5F7F4F0E947F10009729
:100AA00059F0998388831B830A832C813D81232BF2
:100AB00059F7FC011082E8CF80E0E7CFCF93DF93B6
:100AC000EC0188819981009711F00E94F60F19823C
:100AD00018821D821C821B821A82DF91CF91089599
:100AE0000F931F93CF93DF93EC010C811D810C5F5B
:100AF0001F4FB8010E943605882391F02881398163
:100B00008C819D8160E371E0820F931F0E944511EB
:100B10001D830C83CE01DF91CF911F910F9108951A
:100B2000CE010E945E05F6CFEF92FF920F931F93C6
:100B3000CF93DF93EC017B01198218821B821A820A
:100B40001D821C82FB0101900020E9F731978F0183
:100B5000061B170BB8010E943605811109C0CE0192
:100B6000DF91CF911F910F91FF90EF900C945E0554
:100B70001D830C83B70188819981DF91CF911F91EB
:100B80000F91FF90EF900C944511CF92DF92EF926E
:100B9000FF920F931F93CF93DF93CDB7DEB7A1974B
:100BA0000FB6F894DEBF0FBECDBF7C01CB01BA01FA
:100BB000F7011182108213821282158214828E0133
:100BC0000F5F1F4F23E045E00E946A0A6C01009707
:100BD00071F0FC0101900020E9F731978F01081BAB
:100BE000190BB801C7010E943605811112C0C70157
:100BF0000E945E05A1960FB6F894DEBF0FBECDBF72
:100C0000DF91CF911F910F91FF90EF90DF90CF90E8
:100C10000895F70115830483B601808191810E94B4
:100C20004511E8CFEF92FF920F931F93CF93DF937D
:100C3000EC01FB01E080F180E114F10411F1048189
:100C4000158101151105A9F08C819D81080F191FCF
:100C5000B801CE010E943605882399F02881398198
:100C60008C819D81B701820F931F0E9445111D83C6
:100C70000C83CE01DF91CF911F910F91FF90EF90E8
:100C80000895CE010E945E05F4CFFC018081918120
:100C9000009711F00C94F60F08951F920F920FB663
:100CA0000F9211242F933F938F939F93AF93BF93F2
:100CB00080912B0290912C02A0912D02B0912E02D6
:100CC00030912A0223E0230F2D3758F50196A11DFC
:100CD000B11D20932A0280932B0290932C02A093A3
:100CE0002D02B0932E0280912F0290913002A0919C
:100CF0003102B09132020196A11DB11D80932F02E5
:100D000090933002A0933102B0933202BF91AF9121
:100D10009F918F913F912F910F900FBE0F901F9039
:100D2000189526E8230F0296A11DB11DD2CF1F9260
:100D30000F920FB60F9211242F933F934F935F930F
:100D40006F937F938F939F93AF93BF93EF93FF9393
:100D500083E392E00E940B03FF91EF91BF91AF916B
:100D60009F918F917F916F915F914F913F912F91C3
:100D70000F900FBE0F901F9018951F920F920FB6F5
:100D80000F9211242F938F939F93EF93FF93E091F2
:100D90004302F09144028081E0914902F0914A02BD
:100DA00082FD1BC0908180914C028F5F8F732091D8
:100DB0004D02821741F0E0914C02F0E0ED5CFD4FF6
:100DC000958F80934C02FF91EF919F918F912F917E
:100DD0000F900FBE0F901F9018958081F4CF1F9237
:100DE0000F920FB60F9211242F933F934F935F935F
:100DF0006F937F938F939F93AF93BF93CF93EF9313
:100E0000FF9380912802882341F10E948102C091C2
:100E100000016C2F88E00E94230181E0C827C09365
:100E200000010E94810260930C0270930D02809376
:100E30000E0290930F02FF91EF91CF91BF91AF916E
:100E40009F918F917F916F915F914F913F912F91E2
:100E50000F900FBE0F901F90189560E088E00E94E1
:100E60002301E9CFCF93DF93CDB7DEB768970FB6F5
:100E7000F894DEBF0FBECDBF789484B5826084BD88
:100E800084B5816084BD85B5826085BD85B581608E
:100E900085BD80916E00816080936E00109281000C
:100EA00080918100826080938100809181008160C7
:100EB0008093810080918000816080938000809188
:100EC000B10084608093B1008091B0008160809314
:100ED000B00080917A00846080937A0080917A00DB
:100EE000826080937A0080917A00816080937A009A
:100EF00080917A00806880937A001092C100E0911E
:100F00004302F091440212E01083E0913F02F0911D
:100F100040021082E0914102F091420280E1808320
:100F200010924B02E0914702F091480286E08083E4
:100F3000E0914502F0914602808180618083E091DA
:100F40004502F0914602808188608083E0914502ED
:100F5000F0914602808180688083E0914502F091A3
:100F6000460280818F7D80838DE00E94040188E0AD
:100F70000E94040189E00E94040160E089E00E946F
:100F8000230160E08DE00E94230160E088E00E9480
:100F90002301F89410928000109281001092850035
:100FA0001092840082E19AE79093890080938800F0
:100FB00088E080938100809181008360809381002C
:100FC00010936F0078941092D1021092D00201E039
:100FD00010E080E0E82E80E0F82E0E94A60185E374
:100FE00091E00E94E4036091D6027091D702809153
:100FF000D8029091D90242E00E945A048BE191E01C
:101000000E94E4038AE391E00E94E4036091D2022B
:101010007091D3028091D4029091D50242E00E9457
:101020005A048BE191E00E94E4030E949A0361E07C
:10103000811101C060E089E00E9423010E94C00389
:10104000882309F4CBC0809114028111AAC081E0E9
:10105000809314020E948102609310027093110227
:101060008093120290931302198A1A8A1B8A1C8A8F
:101070001D861E861F86188A188E1F8A1E8A1D8A44
:10108000D0902902D110B1C020E030E040E251E41C
:101090006091D6027091D7028091D8029091D902C6
:1010A0000E94BF0C87FDA1C020E030E040E251E487
:1010B0006091D2027091D3028091D4029091D502B6
:1010C0000E94BF0C87FF91C01092280280912702D6
:1010D000882309F443C0109227020E9481022091C4
:1010E000220230912302621B730B7E8B6D8B6D8904
:1010F0007E8990E080E00E94C40C20E030E04AE766
:1011000054E40E94870EAB01BC01CE0101960E94FF
:10111000C5056FE371E0CE0107960E949405BE01FC
:101120006F5F7F4FCE0107960E9412060E947005E6
:101130000E94F103CE0107960E944506CE0101965A
:101140000E9445068D899E898938934138F481E053
:101150008093280281E591E00E94E4030E944A0402
:1011600081E0809329028BE691E00E94E4030E94D3
:10117000810260931E0270931F028093200290935D
:1011800021021093020100930101E114F10409F41A
:1011900024CF0E94F702882309F41FCF0E94000089
:1011A0001CCF0E9481028090100290901102A090AA
:1011B0001202B0901302681979098A099B090E94EA
:1011C000C40C20E030E040E251E40E94280F87FD8B
:1011D0004BCF61E08DE00E94230146CF60E08DE0BF
:1011E0000E942301109214023FCFC0902602C1102A
:1011F00006C0DD2021F00E94C003811182C0D09082
:101200001D02D110D9C0CC2009F4D6C020E030E0B6
:1012100040E251E46091D6027091D7028091D802E9
:101220009091D9020E94BF0C87FFC6C020E030E039
:1012300040E251E46091D2027091D3028091D402D5
:101240009091D5020E94BF0C87FDB6C01092260275
:101250000E9481028090190290901A02A0901B02B5
:10126000B0901C02681979098A099B096D877E87ED
:101270008F87988B6D857E858F8598890E94C40C99
:1012800020E030E04AE754E40E94870EAB01BC0145
:10129000CE0101960E94C50562EB71E0CE01079672
:1012A0000E949405BE016F5F7F4FCE0107960E949A
:1012B00012060E9470050E94F103CE0107960E945B
:1012C0004506CE0101960E9445068D859E85AF8517
:1012D000B88981319742A105B10508F052CF81E06C
:1012E00080931D0284EC91E00E94E4030E9481023D
:1012F0006093150270931602809317029093180260
:1013000040CF109229020E94810280901E0290908C
:101310001F02A0902002B0902102681979098A0961
:101320009B09698B7A8B8B8B9C8B69897A898B89DA
:101330009C890E94C40C20E030E04AE754E40E94FB
:10134000870EAB01BC01CE0101960E94C50566E87F
:1013500071E0CE0107960E949405BE016F5F7F4F3A
:10136000CE0107960E9412060E9470050E94F103AA
:10137000CE0107960E944506CE0101960E944506C1
:1013800089899A89AB89BC8981319742A105B105C8
:1013900008F0F7CE81E08093260288E991E00E9470
:1013A000E4030E9481026093190270931A028093F1
:1013B0001B0290931C02E5CE80912702811106C08A
:1013C000DD2021F00E94C003811108C00E949A0311
:1013D000882309F4D6CE0E944A04D3CE10921D026F
:1013E0000E9481022091150230911602621B730B3C
:1013F000788F6F8B6F89788D90E080E00E94C40CAD
:1014000020E030E04AE754E40E94870EAB01BC01C3
:10141000CE0101960E94C5056FED71E0CE010796E1
:101420000E949405BE016F5F7F4FCE0107960E9418
:1014300012060E9470050E94F103CE0107960E94D9
:101440004506CE0101960E9445068F89988D81310F
:10145000974208F096CE81E08093270281EF91E0D9
:101460000E94E4030E94810260932202709323028F
:10147000809324029093250284CEE3E3F2E013826A
:10148000128288EE93E0A0E0B0E084839583A68387
:10149000B7838DE091E09183808385EC90E0958720
:1014A000848784EC90E09787868780EC90E0918B2E
:1014B000808B81EC90E0938B828B82EC90E0958B1B
:1014C000848B86EC90E0978B868B118E128E138E18
:1014D000148E0895EF920F931F93CF93DF93E8013B
:1014E00034E047FD34E1042E000C550B57FF03C0D8
:1014F000519541955109E32E022F242FAE010E94F0
:10150000880ACE01DF91CF911F910F91EF9008953E
:10151000A9E0B0E0EEE8FAE00C94E90D6A01F22EE1
:10152000B02E102FFBE3AF2EA01608F41BE31F5FB5
:10153000012F27E0AE014F5F5F4F0E94E70BBC0118
:101540008981982F9970913009F43FC09BE2E1FCAA
:1015500004C09E2D9170E0FC3AC05E2D5071E82FC2
:10156000E87083FF46C084E0911101C083E0EF2D55
:10157000E81B8F1508F0E0E0D6018E2F20E25523FE
:1015800051F1992329F0D6019C93C60101966C0173
:1015900096012D5F3F4FE2FE24C08EE4D6018C936E
:1015A00091E411969C93119712968C93D9018E2FEA
:1015B00090E281111BC0E20FF32FF11D10828EEF1C
:1015C0009FEF2996ECE00C94050E9DE2C6CF90E2C9
:1015D000C4CF2D9381508111FCCFCE0ED11CE0E001
:1015E000D0CF8EE6D6018C9391E6DBCF9D938150D0
:1015F000E0CF482F447082FF3DC084E0911101C0CC
:1016000083E08F1510F4EF2DE81BD6018E2F20E21A
:10161000552309F1992329F0D6019C93C60101961F
:101620006C0196012D5F3F4FE2FE1BC089E4D6019D
:101630008C938EE411968C93119786E412968C937A
:10164000D9018E2F90E2882309F4B5CF9D93815064
:10165000FACF2D9381508111FCCFCE0ED11CE0E04A
:10166000D9CF89E6D6018C938EE611968C9311978B
:1016700086E6E4CF9B0177FF02C030E020E0A1E0E6
:10168000B0E0911102C0B0E0A0E0F9013196AE0FD8
:10169000BF1F8B2C912CBB2009F461C05401EFEFCC
:1016A000AE1ABE0AAA0DBB1DFA161B0619F014F0DD
:1016B0004F2D4A1B511188C0E3FC59C07601A42F5D
:1016C000B0E2A1114FC0C40ED11C992309F45BC034
:1016D00040E0D6011196F60190836D01552309F47F
:1016E00048C0012F060F9A81582F507184FF03C004
:1016F000913309F4015010160CF047C0093008F07E
:1017000008E0EEE2FE2E5B01A01AB108850191947B
:10171000819491082F3F320729F4D601FC92F601FB
:1017200031966F016217730794F1021713077CF566
:10173000DB01A21BB30BAA24A394B12CAC0EBD1EDB
:10174000AA0DBB1D11968C9121503109D60111961D
:1017500028153905F4F0F60180836D01DBCFB12C3B
:10176000A12CA0CFF701B1937F01A150AACF911175
:10177000B0CFD601942F50E302C05D9391509111E8
:10178000FCCFC40ED11C40E0ACCF01E0BACF80E367
:10179000DBCF6217730731F4963388F4953311F475
:1017A000552369F0F6018083FD01842F90E28111B9
:1017B00008C0A40FB11D1C9290E080E002CF81E32D
:1017C000F1CF91938150F3CF911183CF8ACF2830FD
:1017D00008F027E03327DA01990F311D87FD91606A
:1017E00000966105710539F432602E5F3D9330E358
:1017F0002A95E1F708959F3F30F080387105610523
:1018000009F03C5F3C5F3D93913008F08068911D8A
:10181000DF93CF931F930F93FF92EF92192F987F2F
:101820009695E92F96959695E90FFF27EE53FF4F72
:1018300099273327EE24FF24A701E7010590089498
:10184000079428F4360FE71EF81E491F511D660F36
:10185000771F881F991F0694A1F70590079428F415
:10186000E70EF81E491F561FC11D770F881F991FCD
:10187000661F0694A1F70590079428F4F80E491FF7
:10188000561FC71FD11D880F991F661F771F06940B
:10189000A1F70590079420F4490F561FC71FD81FC2
:1018A000990F661F771F881F0694A9F784911095DA
:1018B000177041F0D695C79557954795F794E794DB
:1018C0001A95C1F7E8E6F0E0689415901591359106
:1018D0006591959105907FE27395E118F10A430BAC
:1018E000560BC90BD009C0F7E10CF11E431F561F60
:1018F000C91FD01D7EF4703311F48A95E6CFE894A9
:10190000015030F0080F0AF40027021708F4202FC6
:101910002395022F7A3328F079E37D932A95E9F70E
:1019200010C07D932A9589F606949795679537950B
:1019300017951794E118F10A430B560BC90BD00900
:1019400098F023957E9173957A3308F070E37C9339
:101950002013B8F77E9170617D9330F0839571E329
:101960007D9370E32A95E1F71124EF90FF900F919A
:101970001F91CF91DF91992787FD909508950E943F
:10198000010D08F481E00895E89409C097FB3EF446
:1019900090958095709561957F4F8F4F9F4F9923BC
:1019A000A9F0F92F96E9BB279395F695879577953A
:1019B0006795B795F111F8CFFAF4BB0F11F460FFFA
:1019C0001BC06F5F7F4F8F4F9F4F16C0882311F052
:1019D00096E911C0772321F09EE8872F762F05C066
:1019E000662371F096E8862F70E060E02AF09A9501
:1019F000660F771F881FDAF7880F9695879597F9F6
:101A00000895990F0008550FAA0BE0E8FEEF16168F
:101A10001706E807F907C0F012161306E407F507E2
:101A200098F0621B730B840B950B39F40A2661F056
:101A3000232B242B252B21F408950A2609F4A140F9
:101A4000A6958FEF811D811D08950E94380D0C947D
:101A5000A90D0E949B0D38F00E94A20D20F0952345
:101A600011F00C94920D0C94980D11240C94DD0D32
:101A70000E94BA0D70F3959FC1F3950F50E0551F6A
:101A8000629FF001729FBB27F00DB11D639FAA27D3
:101A9000F00DB11DAA1F649F6627B00DA11D661F22
:101AA000829F2227B00DA11D621F739FB00DA11D43
:101AB000621F839FA00D611D221F749F3327A00DFD
:101AC000611D231F849F600D211D822F762F6A2F99
:101AD00011249F5750409AF0F1F088234AF0EE0FFE
:101AE000FF1FBB1F661F771F881F91505040A9F72B
:101AF0009E3F510580F00C94920D0C94DD0D5F3FDC
:101B0000E4F3983ED4F3869577956795B795F79566
:101B1000E7959F5FC1F7FE2B880F911D96958795DE
:101B200097F9089597F99F6780E870E060E008955D
:101B30009FEF80EC089500240A94161617061806E5
:101B40000906089500240A941216130614060506C1
:101B50000895092E0394000C11F4882352F0BB0F52
:101B600040F4BF2B11F460FF04C06F5F7F4F8F4FB5
:101B70009F4F089557FD9058440F551F59F05F3FF0
:101B800071F04795880F97FB991F61F09F3F79F09F
:101B900087950895121613061406551FF2CF469521
:101BA000F1DF08C0161617061806991FF1CF8695A3
:101BB0007105610508940895E894BB276627772787
:101BC000CB0197F908952F923F924F925F926F92B7
:101BD0007F928F929F92AF92BF92CF92DF92EF92BD
:101BE000FF920F931F93CF93DF93CDB7DEB7CA1B3E
:101BF000DB0B0FB6F894DEBF0FBECDBF09942A8869
:101C0000398848885F846E847D848C849B84AA8410
:101C1000B984C884DF80EE80FD800C811B81AA819D
:101C2000B981CE0FD11D0FB6F894DEBF0FBECDBF68
:101C3000ED0108955058BB27AA270E94320E0C943C
:101C4000A90D0E949B0D38F00E94A20D20F039F4DE
:101C50009F3F19F426F40C94980D0EF4E095E7FBE1
:101C60000C94920DE92F0E94BA0D58F3BA1762072F
:101C700073078407950720F079F4A6F50C94DC0D22
:101C80000EF4E0950B2EBA2FA02D0B01B901900197
:101C90000C01CA01A0011124FF27591B99F0593FDB
:101CA00050F4503E68F11A16F040A22F232F342F23
:101CB0004427585FF3CF469537952795A795F04071
:101CC0005395C9F77EF41F16BA0B620B730B840B86
:101CD000BAF09150A1F0FF0FBB1F661F771F881F3E
:101CE000C2F70EC0BA0F621F731F841F48F4879596
:101CF00077956795B795F7959E3F08F0B0CF939588
:101D0000880F08F09927EE0F9795879508950E9400
:101D10009B0E0C94A90D0E94A20D58F00E949B0DE1
:101D200040F029F45F3F29F00C94920D51110C946E
:101D3000DD0D0C94980D0E94BA0D68F39923B1F350
:101D4000552391F3951B550BBB27AA2762177307E1
:101D5000840738F09F5F5F4F220F331F441FAA1F75
:101D6000A9F335D00E2E3AF0E0E832D09150504031
:101D7000E695001CCAF72BD0FE2F29D0660F771FDF
:101D8000881FBB1F261737074807AB07B0E809F0C5
:101D9000BB0B802DBF01FF2793585F4F3AF09E3F4A
:101DA000510578F00C94920D0C94DD0D5F3FE4F337
:101DB000983ED4F3869577956795B795F7959F5F8D
:101DC000C9F7880F911D9695879597F90895E1E0D9
:101DD000660F771F881FBB1F621773078407BA0738
:101DE00020F0621B730B840BBA0BEE1F88F7E09593
:101DF00008950E94C20D88F09F5798F0B92F992737
:101E0000B751B0F0E1F0660F771F881F991F1AF0E5
:101E1000BA95C9F714C0B13091F00E94DC0DB1E061
:101E200008950C94DC0D672F782F8827B85F39F060
:101E3000B93FCCF3869577956795B395D9F73EF47E
:101E400090958095709561957F4F8F4F9F4F089526
:101E50000E94010D08F48FEF08950E94010D880B78
:101E6000990B0895A1E21A2EAA1BBB1BFD010DC000
:101E7000AA1FBB1FEE1FFF1FA217B307E407F5073A
:101E800020F0A21BB30BE40BF50B661F771F881F16
:101E9000991F1A9469F760957095809590959B01AC
:101EA000AC01BD01CF010895EE0FFF1F0590F49125
:101EB000E02D09940F931F93CF93DF938230910508
:101EC00010F482E090E0E091DC02F091DD0230E07D
:101ED00020E0B0E0A0E0309799F42115310509F435
:101EE0004AC0281B390B24303105D8F58A819B81E3
:101EF0006115710589F1FB0193838283FE0111C095
:101F0000408151810281138148175907E0F0481739
:101F1000590799F4109761F012960C931297139643
:101F20001C933296CF01DF91CF911F910F910895AD
:101F30000093DC021093DD02F4CF2115310551F03E
:101F40004217530738F0A901DB019A01BD01DF01F7
:101F5000F801C1CFEF01F9CF9093DD028093DC024D
:101F6000CDCFFE01E20FF31F8193919322503109EF
:101F700039832883D7CF2091DA023091DB02232BDB
:101F800041F420910501309106013093DB0220934A
:101F9000DA0220910301309104012115310541F449
:101FA0002DB73EB74091070150910801241B350B16
:101FB000E091DA02F091DB02E217F307A0F42E1BA6
:101FC0003F0B2817390778F0AC014E5F5F4F24179D
:101FD000350748F04E0F5F1F5093DB024093DA0243
:101FE000819391939FCFF0E0E0E09CCFCF93DF937C
:101FF0000097E9F0FC01329713821282A091DC0273
:10200000B091DD02ED0130E020E01097A1F42081D5
:102010003181820F931F2091DA023091DB02281761
:10202000390709F061C0F093DB02E093DA02DF9137
:10203000CF910895EA01CE17DF07E8F54A815B8169
:102040009E0141155105B1F7E901FB83EA834991EE
:102050005991C40FD51FEC17FD0761F48081918160
:102060000296840F951FE901998388838281938169
:102070009B838A83F0E0E0E012968D919C91139708
:102080000097B9F52D913C911197CD010296820FE1
:10209000931F2091DA023091DB022817390739F6B5
:1020A000309751F51092DD021092DC02B093DB0202
:1020B000A093DA02BCCFD383C28340815181840FC5
:1020C000951FC817D90761F44E5F5F4F88819981CA
:1020D000480F591F518340838A819B819383828358
:1020E0002115310509F0B0CFF093DD02E093DC0259
:1020F0009ECFFD01DC01C0CF13821282D7CFB0E0AA
:10210000A0E0E5E8F0E10C94E50D8C01009751F4B6
:10211000CB010E945A0F8C01C801CDB7DEB7E0E1B8
:102120000C94010EFC01E60FF71F9C0122503109AF
:10213000E217F30708F49DC0D901CD91DC91119706
:10214000C617D70798F0C530D10530F3CE010497F4
:102150008617970708F3C61BD70B2297C193D19315
:102160006D937C93CF010E94F60FD6CF5B01AC1A22
:10217000BD0A4C018C0E9D1EA091DC02B091DD02C7
:10218000512C412CF12CE12C109731F58091DA0281
:102190009091DB028815990509F05CC04616570638
:1021A00008F058C08091030190910401009741F418
:1021B0008DB79EB74091070150910801841B950B84
:1021C000E817F90708F055C0F093DB02E093DA0254
:1021D000F90171836083A0CF8D919C911197129624
:1021E0006C90129713967C901397A815B90559F522
:1021F0006C0142E0C40ED11CCA14DB0420F1AC0116
:102200004A195B09DA011296159780F0628273828F
:1022100051834083D9016D937C93E114F10471F0F3
:10222000D7011396FC93EE93129776CF22968C0FDC
:102230009D1FF90191838083F301EFCFF093DD02BD
:10224000E093DC0269CF4816590608F42C017D01A1
:10225000D3019ACFCB010E945A0F7C01009749F01D
:10226000AE01B8010E943C11C8010E94F60F87011F
:1022700053CF10E000E050CFFB01DC0102C0019021
:102280000D9241505040D8F70895FB01DC010190B8
:102290000D920020E1F70895F894FFCF01010000AE
:1022A00000DE028000000000002D038D02BA027AD9
:1022B00003EB02C902DD020D0A00524553455400EA
:1022C0006E616E00696E66006F76660020736567EA
:1022D0000053313A200053323A200054656D706F3C
:1022E0002065737461646F2057203A20002A2A2ADF
:1022F0002A2A2A20494E5641534F52202A2A2A2A56
:102300002A2A2A2A2A0A003D3D3D3D3D3E204320FF
:10231000617469766F203C3D3D3D3D3D3D3D3D3D19
:102320000A0054656D706F2065737461646F20439B
:10233000203A20003D3D3D3D3D3E205620617469E0
:10234000766F203C3D3D3D3D3D3D3D3D0A005465A1
:102350006D706F2065737461646F2056203A2000A1
:102360003D3D3D3D3D3E204A20617469766F203CF5
:102370003D3D3D3D3D3D3D3D3D0A0054656D706F29
:102380002065737461646F204A203A20003D3D3D12
:102390003D3D3E205720617469766F203C3D3D3DB8
:0823A0003D3D3D3D3D3D0A00BD
:107E0000112484B714BE81FFF0D085E080938100F7
:107E100082E08093C00088E18093C10086E0809377
:107E2000C20080E18093C4008EE0C9D0259A86E02C
:107E300020E33CEF91E0309385002093840096BBD3
:107E4000B09BFECF1D9AA8958150A9F7CC24DD24C4
:107E500088248394B5E0AB2EA1E19A2EF3E0BF2EE7
:107E6000A2D0813461F49FD0082FAFD0023811F036
:107E7000013811F484E001C083E08DD089C08234E0
:107E800011F484E103C0853419F485E0A6D080C0E4
:107E9000853579F488D0E82EFF2485D0082F10E0AE
:107EA000102F00270E291F29000F111F8ED06801E7
:107EB0006FC0863521F484E090D080E0DECF843638
:107EC00009F040C070D06FD0082F6DD080E0C81688
:107ED00080E7D80618F4F601B7BEE895C0E0D1E017
:107EE00062D089930C17E1F7F0E0CF16F0E7DF06D8
:107EF00018F0F601B7BEE89568D007B600FCFDCFD4
:107F0000A601A0E0B1E02C9130E011968C91119780
:107F100090E0982F8827822B932B1296FA010C0160
:107F200087BEE89511244E5F5F4FF1E0A038BF0790
:107F300051F7F601A7BEE89507B600FCFDCF97BE46
:107F4000E89526C08437B1F42ED02DD0F82E2BD052
:107F50003CD0F601EF2C8F010F5F1F4F84911BD097
:107F6000EA94F801C1F70894C11CD11CFA94CF0C13
:107F7000D11C0EC0853739F428D08EE10CD085E9AC
:107F80000AD08FE07ACF813511F488E018D01DD067
:107F900080E101D065CF982F8091C00085FFFCCF94
:107FA0009093C60008958091C00087FFFCCF809118
:107FB000C00084FD01C0A8958091C6000895E0E648
:107FC000F0E098E1908380830895EDDF803219F02E
:107FD00088E0F5DFFFCF84E1DECF1F93182FE3DFCA
:107FE0001150E9F7F2DF1F91089580E0E8DFEE27F6
:047FF000FF270994CA
:027FFE00040479
:00000001FF
