:020000040000FA
:100000000C94DF000C9407010C9407010C94070179
:100010000C9407010C9407010C9407010C9426051D
:100020000C9407010C9407010C9407010C94DA0559
:100030000C9407010C9407010C9407010C94070120
:100040000C9484040C9407010C94F4040C94CE04D6
:100050000C9407010C9407010C9407010C94070100
:100060000C9407010C94070100407A10F35A00A089
:10007000724E18090010A5D4E80000E87648170071
:1000800000E40B54020000CA9A3B000000E1F505B1
:10009000000080969800000040420F000000A086FB
:1000A00001000000102700000000E803000000002D
:1000B0006400000000000A000000000001000000D1
:1000C00000002C76D888DC674F0823DFC1DFAE59EB
:1000D000E1B1B796E5E3E453C63AE651997696E87E
:1000E000E6C28426EB898C9B62ED407C6FFCEFBC02
:1000F0009C9F40F2BAA56FA5F490055A2AF75C932D
:100100006B6CF9676DC11BFCE0E40D47FEF520E662
:10011000B500D0ED902E0300943577050080841E45
:10012000080000204E0A000000C80C333333330FA0
:10013000986E12831141EF8D2114893BE65516CF3D
:10014000FEE6DB18D1844B381BF77C1D901DA4BB49
:10015000E424203284725E228100C9F124ECA1E5FE
:100160003D270000000023002600290000000008B1
:10017000000201000003040700000000000000006E
:1001800000000000250028002B00000000002400D3
:1001900027002A00040404040404040402020202E6
:1001A000020203030303030301020408102040803A
:1001B000010204081020010204081020390B112448
:1001C0001FBECFEFD8E0DEBFCDBF24E0AAEDB1E087
:1001D00001C01D92A737B207E1F711E0A0E0B1E03E
:1001E000E4E7F3E202C005900D92AA3DB107D9F70A
:1001F00010E0CFEDD0E004C02197FE010E94B70FC0
:10020000CE3DD107C9F70E941D060C94B8110C947D
:10021000000090E0FC01E855FE4F24918C569E4F63
:10022000FC018491882399F090E0880F991FFC01CC
:10023000E657FE4FA591B491FC01E058FE4F859121
:1002400094918FB7F894EC91E22BEC938FBF0895C3
:10025000833081F028F4813099F08230A9F008953C
:100260008730A9F08830C9F08430B1F480918000E3
:100270008F7D03C0809180008F77809380000895E8
:1002800084B58F7784BD089584B58F7DFBCF809131
:10029000B0008F778093B00008958091B0008F7D7B
:1002A000F9CFCF93DF93282F30E0F901E459FE4FC7
:1002B0008491F901E855FE4FD491F901EC56FE4FB7
:1002C000C491CC23A1F081110E942801EC2FF0E011
:1002D000EE0FFF1FEE59FE4FA591B491EC91ED2367
:1002E00081E090E009F480E0DF91CF91089580E013
:1002F00090E0FACF1F93CF93DF93282F30E0F901DE
:10030000E459FE4F8491F901E855FE4FD491F9016B
:10031000EC56FE4FC491CC23A9F0162F81110E94F8
:100320002801EC2FF0E0EE0FFF1FE058FE4FA591E3
:10033000B4918FB7F894EC91111108C0D095DE23D9
:10034000DC938FBFDF91CF911F910895DE2BF8CF03
:100350002FB7F8946091D2037091D3038091D403A6
:100360009091D5032FBF0895AF92BF92CF92DF92A5
:10037000EF92FF920F931F93CF93DF936C017B015A
:100380008B01040F151FEB015E01AE18BF08C017EB
:10039000D10759F06991D601ED91FC910190F0815E
:1003A000E02DC6010995892B79F7C501DF91CF9121
:1003B0001F910F91FF90EF90DF90CF90BF90AF9083
:1003C0000895FC01448155816081718186ED93E03F
:1003D0000C94B401FC01538D448D252F30E0842F03
:1003E00090E0821B930B541710F0CF96089501975D
:1003F0000895FC01918D828D981761F0A28DAE0F4A
:10040000BF2FB11D5D968C91928D9F5F9F73928FD0
:1004100090E008958FEF9FEF0895FC01918D828DFC
:10042000981731F0828DE80FF11D858D90E00895C9
:100430008FEF9FEF0895FC01918D228D892F90E021
:10044000805C9F4F821B91098F739927089586EDD9
:1004500093E00E941B0221E0892B09F420E0822F07
:10046000089580E090E0892B29F00E9427028111F5
:100470000C9400000895FC01A48DA80FB92FB11DA4
:10048000A35ABF4F2C91848D90E001968F739927CA
:10049000848FA689B7892C93A089B1898C918370A8
:1004A00080648C93938D848D981306C00288F389A1
:1004B000E02D80818F7D80830895EF92FF920F93CE
:1004C0001F93CF93DF93EC0181E0888F9B8D8C8D00
:1004D00098131AC0E889F989808185FF15C09FB7F4
:1004E000F894EE89FF896083E889F98980818370B7
:1004F000806480839FBF81E090E0DF91CF911F9166
:100500000F91FF90EF900895F62E0B8D10E00F5F86
:100510001F4F0F731127E02E8C8D8E110CC00FB65C
:1005200007FCFACFE889F989808185FFF5CFCE01F4
:100530000E943B02F1CFEB8DEC0FFD2FF11DE35A32
:10054000FF4FF0829FB7F8940B8FEA89FB89808177
:100550008062CFCFCF93DF93EC01888D8823B9F0F1
:10056000AA89BB89E889F9898C9185FD03C08081BE
:1005700086FD0DC00FB607FCF7CF8C9185FFF2CF3B
:10058000808185FFEDCFCE010E943B02E9CFDF9154
:10059000CF910895CF932AE939E949E15FE360916A
:1005A00083037091840380918503909186030E9458
:1005B000B20F1816B4F0C1E02AE939E949E15FE366
:1005C00060918703709188038091890390918A03D9
:1005D0000E94B20F18160CF0C0E081E08C27CF917A
:1005E000089580E0FCCFCF932AE939E949E15FE340
:1005F00060918303709184038091850390918603B9
:100600000E94B20F18168CF4C1E02AE939E949E1D9
:100610005FE36091870370918803809189039091D3
:100620008A030E94B20F18160CF0C0E08C2FCF91F5
:100630000895FC0101900020E9F73197AF01481BB4
:10064000590BBC0186ED93E00C94B401FC012481AC
:100650003581232B39F421E0FB018081882349F087
:1006600020E007C0808191810E94A81121E0892BA0
:10067000B9F7822F0895CF93DF93EC0169E171E020
:100680000E942603811122C065E271E0CE010E9422
:10069000260381111BC06BE271E0CE010E9426038C
:1006A000811114C068E371E0CE010E94260381111C
:1006B0000DC063E471E0CE010E94260391E0811138
:1006C00001C090E0892FDF91CF91089591E0FACF9A
:1006D000CF93DF93EC0188819981009711F00E94FC
:1006E0005910198218821D821C821B821A82DF9186
:1006F000CF910895EF92FF920F931F93CF93DF93C3
:10070000EC017B018A0188819981009729F02A8177
:100710003B812417350788F4B8016F5F7F4F0E9433
:10072000E2100097C9F0998388831B830A832C8188
:100730003D81232B11F4FC0110821D830C83B70132
:10074000888199810E94B111CE01DF91CF911F91D3
:100750000F91FF90EF900895CE010E946803F4CFAF
:10076000EF92FF920F931F93CF93DF93CDB7DEB736
:10077000A1970FB6F894DEBF0FBECDBF7C01CB01B1
:10078000BA01F7011182108213821282158214823B
:100790008E010F5F1F4F21E043E00E94660B009720
:1007A000C9F0FC0101900020E9F73197AF01481B27
:1007B000590BBC01C7010E947A03A1960FB6F894A9
:1007C000DEBF0FBECDBFDF91CF911F910F91FF9084
:1007D000EF900895C7010E946803EFCFCF93DF9396
:1007E000EC01FB018617970749F060817181611563
:1007F000710541F0448155810E947A03CE01DF9159
:10080000CF9108950E946803F9CFFC0111821082F4
:100810001382128215821482FB0101900020E9F7F5
:100820003197AF01461B570B0C947A03FC01808172
:100830009181009711F00C9459100895FF920F9335
:100840001F93CF93DF9300D000D000D0CDB7DEB799
:100850008C0180917603811109C06BE471E080E71F
:1008600093E00E94050481E0809376031A82198246
:100870001C821B821E821D8260E773E0CE010196FE
:100880000E94EE03CE0101960E943B03F82ECE019A
:1008900001960E941604FF20D9F01A8219821C8248
:1008A0001B821E821D82B801CE0101960E94EE03BA
:1008B000CE0101960E943B03F82ECE0101960E94C4
:1008C0001604FF2049F06AE086ED93E00E945D0285
:1008D000C8010E94E10107C0C8010E94E10189E44A
:1008E00091E00E941903B80180E793E00E94EE03B3
:1008F00026960FB6F894DEBF0FBECDBFDF91CF9125
:100900001F910F91FF9008951F920F920FB60F92B3
:1009100011242F933F938F939F93AF93BF93809115
:10092000D2039091D303A091D403B091D503309119
:10093000D10323E0230F2D3758F50196A11DB11DDA
:100940002093D1038093D2039093D303A093D40335
:10095000B093D5038091CD039091CE03A091CF03A6
:10096000B091D0030196A11DB11D8093CD0390934A
:10097000CE03A093CF03B093D003BF91AF919F91CB
:100980008F913F912F910F900FBE0F901F90189550
:1009900026E8230F0296A11DB11DD2CF1F920F9200
:1009A0000FB60F9211242F933F934F935F936F9342
:1009B0007F938F939F93AF93BF93EF93FF9386EDB6
:1009C00093E00E943B02FF91EF91BF91AF919F9105
:1009D0008F917F916F915F914F913F912F910F90E8
:1009E0000FBE0F901F9018951F920F920FB60F9287
:1009F00011242F938F939F93EF93FF93E091E6033E
:100A0000F091E7038081E091EC03F091ED0382FD2A
:100A10001BC090818091EF038F5F8F732091F00353
:100A2000821741F0E091EF03F0E0EA52FC4F958F1E
:100A30008093EF03FF91EF919F918F912F910F90F2
:100A40000FBE0F901F9018958081F4CF1F920F92C8
:100A50000FB60F9211248F929F92AF92BF92CF92B6
:100A6000DF92EF92FF920F931F932F933F934F9339
:100A70005F936F937F938F939F93AF93BF93CF9326
:100A8000DF93EF93FF938EE00E945101BC01990F19
:100A9000880B990B0E94BD0D20E030E048E452E441
:100AA0000E94110F4B015C01C0916E03D0916F0346
:100AB00020918303309184034091850350918603F4
:100AC0000E94A50E8E01000F111F000F111F98012B
:100AD0002A553D4F7901F9012081318142815381AD
:100AE0000E94A40E60938303709384038093850314
:100AF00090938603F70180829182A282B38280E183
:100B00000E945101BC01990F880B990B0E94BD0DE9
:100B100020E030E048E452E40E94110F6B017C01B8
:100B200020918703309188034091890350918A0373
:100B30000E94A50E02521E4FF80120813181428190
:100B400053810E94A40E609387037093880380935F
:100B5000890390938A03F801C082D182E282F382F2
:100B60002196C233D10509F1D0936F03C0936E0370
:100B7000FF91EF91DF91CF91BF91AF919F918F91B5
:100B80007F916F915F914F913F912F911F910F91A5
:100B9000FF90EF90DF90CF90BF90AF909F908F909D
:100BA0000F900FBE0F901F90189510926F03109228
:100BB0006E03DECF1F920F920FB60F9211242F9368
:100BC0003F934F935F936F937F938F939F93AF93D5
:100BD000BF93CF93EF93FF938091CB03882341F191
:100BE0000E94A801C09100016C2F88E00E947A0148
:100BF00081E0C827C09300010E94A8016093DA0138
:100C00007093DB018093DC019093DD01FF91EF9104
:100C1000CF91BF91AF919F918F917F916F915F9194
:100C20004F913F912F910F900FBE0F901F901895ED
:100C300060E088E00E947A01E9CFCF93DF9300D093
:100C400000D000D0CDB7DEB7789484B5826084BD83
:100C500084B5816084BD85B5826085BD85B58160C0
:100C600085BD80916E00816080936E00109281003E
:100C700080918100826080938100809181008160F9
:100C800080938100809180008160809380008091BA
:100C9000B10084608093B1008091B0008160809346
:100CA000B00080917A00846080937A0080917A000D
:100CB000826080937A0080917A00816080937A00CC
:100CC00080917A00806880937A001092C100E09150
:100CD000E603F091E70312E01083E091E203F09164
:100CE000E3031082E091E403F091E50380E1808367
:100CF0001092EE03E091EA03F091EB0386E080832B
:100D0000E091E803F091E903808180618083E091C4
:100D1000E803F091E903808188608083E091E80333
:100D2000F091E903808180688083E091E803F0918D
:100D3000E90380818F7D80838DE00E94090188E036
:100D40000E94090189E00E94090160E089E00E9497
:100D50007A0160E08DE00E947A0160E088E00E9404
:100D60007A01F8941092B0001092B1001092B20083
:100D70008CEA8093B3008091B00082608093B000D1
:100D80008091B10087608093B10080917000826093
:100D90008093700010928000109281001092850064
:100DA0001092840082E19AE79093890080938800F2
:100DB00088E080938100809181008360809381002E
:100DC00010936F00789480E0E82E80E0F82E0E9467
:100DD000CA0261E0811101C060E089E00E947A01ED
:100DE0000E94F302882309F4F9C1809182038111E2
:100DF000D8C181E0809382030E94A80160937E03A2
:100E000070937F0380938003909381031091CC03B0
:100E10001111EBC12AE939E949E15FE360918303EC
:100E20007091840380918503909186030E94B20F94
:100E300018160CF4DAC12AE939E949E15FE3609157
:100E40008703709188038091890390918A030E949F
:100E5000B20F18160CF0C9C11092CB038091CA03CF
:100E6000882309F455C01092CA038CE491E00E94D3
:100E700019030E94A8010091C5031091C603209197
:100E8000C7033091C803601B710B820B930B0E9448
:100E9000BB0D20E030E04AE754E40E94110F0E94AD
:100EA000830F6093C1037093C2038093C303909335
:100EB000C4036091C1037091C2038091C3039091F8
:100EC000C4030E94BB0DAB01BC01CE0101960E9480
:100ED000B003CE0101960E941E04CE0101960E942D
:100EE00016048091C1039091C203A091C303B091F5
:100EF000C4030697A105B10558F481E08093CB03A4
:100F00008DE591E00E94190389E491E00E941903A4
:100F10001092C9031092B4031092CA031092AF0347
:100F200081E08093CC0369E171E0CE0101960E94DB
:100F30000504CE0101960E941E04CE0101960E9476
:100F400016040E94A8016093BD037093BE038093B2
:100F5000BF039093C0030E94A8010091BD031091AC
:100F6000BE032091BF033091C003601B710B820B45
:100F7000930B0E94BB0D20E030E04AE754E40E944E
:100F8000110F0E94830F6093B9037093BA0380938B
:100F9000BB039093BC030E94A8010091B003109181
:100FA000B1032091B2033091B303601B710B820B2C
:100FB000930B0E94BB0D20E030E04AE754E40E940E
:100FC000110F0E94830F6093A7037093A80380936F
:100FD000A9039093AA030E94A8010091B503109160
:100FE000B6032091B7033091B803601B710B820BDD
:100FF000930B0E94BB0D20E030E04AE754E40E94CE
:10100000110F0E94830F6093AB037093AC03809326
:10101000AD039093AE030E94A8010091A303109129
:10102000A4032091A5033091A603601B710B820BD2
:10103000930B0E94BB0D20E030E04AE754E40E948D
:10104000110F0E94830F60939F037093A0038093FE
:10105000A1039093A2030E94A8010091C5031091DF
:10106000C6032091C7033091C803601B710B820B2C
:10107000930B0E94BB0D20E030E04AE754E40E944D
:10108000110F0E94830F6093C1037093C20380937A
:10109000C3039093C4038091B9039091BA03A091C4
:1010A000BB03B091BC030B97A105B10520F0809163
:1010B000CC03811130C08091AB039091AC03A0911F
:1010C000AD03B091AE030B97A105B10520F080915F
:1010D000C903811120C080919F039091A003A0912A
:1010E000A103B091A2030B97A105B10520F0809157
:1010F000B403811110C08091C1039091C203A091EB
:10110000C303B091C4030B97A105B105B0F0809162
:10111000CA03882391F084EA91E00E94190389E4CC
:1011200091E00E9419031092CC031092C90310920F
:10113000B4031092CA031092AF038091CC038823AA
:1011400031F06CEA71E08BE893E00E94B11180917C
:10115000C903882331F066EB71E08BE893E00E94CD
:10116000B1118091B403882331F065EC71E08BE814
:1011700093E00E94B1118091CA03882331F060EDA1
:1011800071E08BE893E00E94B111E114F10409F4DD
:101190001ECE0E942702882309F419CE0E94000067
:1011A00016CE0E94A80100917E0310917F0320912A
:1011B000800330918103601B710B820B930B0E94A3
:1011C000BB0D20E030E040E251E40E94B20F87FD09
:1011D0001DCE61E08DE00E947A0118CE60E08DE0C6
:1011E0000E947A011092820311CE0091C90301116D
:1011F0006FC0112309F46EC00E94F302882309F422
:101200000CC11092CC0385E691E00E9419030E9464
:10121000A8010091BD031091BE032091BF0330913E
:10122000C003601B710B820B930B0E94BB0D20E06F
:1012300030E04AE754E40E94110F0E94830F60934C
:10124000B9037093BA038093BB039093BC0360917E
:10125000B9037091BA038091BB039091BC030E94C3
:10126000BB0DAB01BC01CE0101960E94B003CE01C3
:1012700001960E941E04CE0101960E9416048091E0
:10128000B9039091BA03A091BB03B091BC0304973A
:10129000A105B10508F05FCE81E08093C90365E246
:1012A00071E0CE0101960E940504CE0101960E94D4
:1012B0001E04CE0101960E9416040E94A8016093AC
:1012C000B5037093B6038093B7039093B80343CEEE
:1012D0001111A3C0D090B403D110FEC0011105C0FC
:1012E0008091AF03882309F4F7C02AE939E949E17D
:1012F0005FE36091830370918403809185039091F3
:1013000086030E94B20F18160CF0E6C02AE939E9EC
:1013100049E15FE3609187037091880380918903BD
:1013200090918A030E94B20F18160CF4D5C00023C6
:1013300009F404C11092C90387E791E00E941903E0
:101340000E94A8010091B5031091B6032091B70344
:101350003091B803601B710B820B930B0E94BB0D85
:1013600020E030E04AE754E40E94110F0E94830F0E
:101370006093AB037093AC038093AD039093AE0383
:101380006091AB037091AC038091AD039091AE037B
:101390000E94BB0DAB01BC01CE0101960E94B003BF
:1013A000CE0101960E941E04CE0101960E941604F1
:1013B0008091AB039091AC03A091AD03B091AE03CB
:1013C0000497A105B10568F08091A7039091A80347
:1013D000A091A903B091AA030397A105B10508F054
:1013E000BACD81E08093B4036BE271E0CE01019647
:1013F0000E940504CE0101960E941E04CE010196B2
:101400000E9416040E94A8016093A3037093A40392
:101410008093A5039093A6039ECD0E94CA028823C1
:1014200009F458CF1092CC0385E691E00E9419038D
:101430000E94A8010091BD031091BE032091BF033B
:101440003091C003601B710B820B930B0E94BB0D8C
:1014500020E030E04AE754E40E94110F0E94830F1D
:101460006093B9037093BA038093BB039093BC035A
:101470006091B9037091BA038091BB039091BC0352
:101480000E94BB0DAB01BC01CE0101960E94B003CE
:10149000CE0101960E941E04CE0101960E94160400
:1014A00063E471E0CE0101960E940504CE0101962D
:1014B0000E941E04CE0101960E9416040E94A801FB
:1014C0006093B0037093B1038093B2039093B3031E
:1014D00081E08093AF033FCD8091CA03811106C0A4
:1014E000DD2021F00E94F30281115CC08091AF03E6
:1014F000811131CD0E94CA02882309F42CCD81E0EC
:101500008093AF03112309F426CD63E471E0CE018B
:1015100001960E940504CE0101960E941E04CE0190
:1015200001960E9416040E94A8016093B003709374
:10153000B1038093B2039093B3030DCD8091AF03B9
:10154000882309F435CF1092AF0384E891E00E941C
:1015500019030E94A8010091B0031091B1032091DA
:10156000B2033091B303601B710B820B930B0E948B
:10157000BB0D20E030E04AE754E40E94110F0E94C6
:10158000830F6093A7037093A8038093A90390939C
:10159000AA036091A7037091A8038091A903909179
:1015A000AA03F6CE1092B40381E991E00E941903D8
:1015B0000E94A8010091A3031091A4032091A50308
:1015C0003091A603601B710B820B930B0E94BB0D25
:1015D00020E030E04AE754E40E94110F0E94830F9C
:1015E00060939F037093A0038093A1039093A20341
:1015F00060919F037091A0038091A1039091A20339
:101600000E94BB0DAB01BC01CE0101960E94B0034C
:10161000CE0101960E941E04CE0101960E9416047E
:1016200080919F039091A003A091A103B091A20388
:101630000497A105B10508F08ECC81E08093CA0320
:1016400068E371E0CE0101960E940504CE01019687
:101650000E941E04CE0101960E9416040E94A80159
:101660006093C5037093C6038093C7039093C80328
:1016700072CCE6EDF3E01382128288EE93E0A0E0F4
:10168000B0E084839583A683B7838BE091E0918358
:10169000808385EC90E09587848784EC90E0978741
:1016A000868780EC90E0918B808B81EC90E0938B2F
:1016B000828B82EC90E0958B848B86EC90E0978B0C
:1016C000868B118E128E138E148E0895EF920F93C7
:1016D0001F93CF93DF93E80134E047FD34E1042EFC
:1016E000000C550B57FF03C0519541955109E32E4E
:1016F000022F242FAE010E94840BCE01DF91CF91E7
:101700001F910F91EF900895A9E0B0E0EAE8FBE0A7
:101710000C94730E6A01F22EB02E102FFBE3AF2E45
:10172000A01608F41BE31F5F012F27E0AE014F5FF7
:101730005F4F0E94E30CBC018981982F9970913012
:1017400009F43FC09BE2E1FC04C09E2D9170E0FCD7
:101750003AC05E2D5071E82FE87083FF46C084E0E8
:10176000911101C083E0EF2DE81B8F1508F0E0E038
:10177000D6018E2F20E2552351F1992329F0D6016D
:101780009C93C60101966C0196012D5F3F4FE2FECE
:1017900024C08EE4D6018C9391E411969C9311970A
:1017A00012968C93D9018E2F90E281111BC0E20F0B
:1017B000F32FF11D10828EEF9FEF2996ECE00C9431
:1017C0008F0E9DE2C6CF90E2C4CF2D938150811140
:1017D000FCCFCE0ED11CE0E0D0CF8EE6D6018C93AC
:1017E00091E6DBCF9D938150E0CF482F447082FF7C
:1017F0003DC084E0911101C083E08F1510F4EF2DFE
:10180000E81BD6018E2F20E2552309F1992329F0F8
:10181000D6019C93C60101966C0196012D5F3F4F46
:10182000E2FE1BC089E4D6018C938EE411968C9362
:10183000119786E412968C93D9018E2F90E288231B
:1018400009F4B5CF9D938150FACF2D93815081112A
:10185000FCCFCE0ED11CE0E0D9CF89E6D6018C9327
:101860008EE611968C93119786E6E4CF9B0177FF65
:1018700002C030E020E0A1E0B0E0911102C0B0E091
:10188000A0E0F9013196AE0FBF1F8B2C912CBB202D
:1018900009F461C05401EFEFAE1ABE0AAA0DBB1DD8
:1018A000FA161B0619F014F04F2D4A1B511188C06F
:1018B000E3FC59C07601A42FB0E2A1114FC0C40EC1
:1018C000D11C992309F45BC040E0D6011196F601C2
:1018D00090836D01552309F448C0012F060F9A81AA
:1018E000582F507184FF03C0913309F40150101632
:1018F0000CF047C0093008F008E0EEE2FE2E5B0174
:10190000A01AB10885019194819491082F3F320764
:1019100029F4D601FC92F60131966F016217730724
:1019200094F1021713077CF5DB01A21BB30BAA2469
:10193000A394B12CAC0EBD1EAA0DBB1D11968C91AB
:1019400021503109D601119628153905F4F0F60118
:1019500080836D01DBCFB12CA12CA0CFF701B19317
:101960007F01A150AACF9111B0CFD601942F50E39F
:1019700002C05D9391509111FCCFC40ED11C40E088
:10198000ACCF01E0BACF80E3DBCF6217730731F44D
:10199000963388F4953311F4552369F0F60180836A
:1019A000FD01842F90E2811108C0A40FB11D1C928B
:1019B00090E080E002CF81E3F1CF91938150F3CFAB
:1019C000911183CF8ACF283008F027E03327DA013E
:1019D000990F311D87FD916000966105710539F4FD
:1019E00032602E5F3D9330E32A95E1F708959F3FE3
:1019F00030F080387105610509F03C5F3C5F3D9334
:101A0000913008F08068911DDF93CF931F930F935F
:101A1000FF92EF92192F987F9695E92F96959695BC
:101A2000E90FFF27EE53FF4F99273327EE24FF24BA
:101A3000A701E70105900894079428F4360FE71EE4
:101A4000F81E491F511D660F771F881F991F0694A6
:101A5000A1F70590079428F4E70EF81E491F561FBA
:101A6000C11D770F881F991F661F0694A1F7059067
:101A7000079428F4F80E491F561FC71FD11D880F61
:101A8000991F661F771F0694A1F70590079420F40D
:101A9000490F561FC71FD81F990F661F771F881F32
:101AA0000694A9F784911095177041F0D695C795C3
:101AB00057954795F794E7941A95C1F7E8E6F0E053
:101AC00068941590159135916591959105907FE2F7
:101AD0007395E118F10A430B560BC90BD009C0F7F7
:101AE000E10CF11E431F561FC91FD01D7EF4703339
:101AF00011F48A95E6CFE894015030F0080F0AF40B
:101B00000027021708F4202F2395022F7A3328F09C
:101B100079E37D932A95E9F710C07D932A9589F69C
:101B2000069497956795379517951794E118F10ADC
:101B3000430B560BC90BD00998F023957E917395F2
:101B40007A3308F070E37C932013B8F77E917061CC
:101B50007D9330F0839571E37D9370E32A95E1F7EF
:101B60001124EF90FF900F911F91CF91DF91992752
:101B700087FD90950895E89409C097FB3EF49095F1
:101B80008095709561957F4F8F4F9F4F9923A9F056
:101B9000F92F96E9BB279395F695879577956795E5
:101BA000B795F111F8CFFAF4BB0F11F460FF1BC029
:101BB0006F5F7F4F8F4F9F4F16C0882311F096E9BC
:101BC00011C0772321F09EE8872F762F05C066236A
:101BD00071F096E8862F70E060E02AF09A95660F23
:101BE000771F881FDAF7880F9695879597F90895DC
:101BF000990F0008550FAA0BE0E8FEEF161617061E
:101C0000E807F907C0F012161306E407F50798F085
:101C1000621B730B840B950B39F40A2661F0232B9E
:101C2000242B252B21F408950A2609F4A140A6951A
:101C30008FEF811D811D089597F99F6780E870E0FF
:101C400060E008959FEF80EC089500240A94161632
:101C5000170618060906089500240A94121613069A
:101C6000140605060895092E0394000C11F4882328
:101C700052F0BB0F40F4BF2B11F460FF04C06F5F44
:101C80007F4F8F4F9F4F089557FD9058440F551F1A
:101C900059F05F3F71F04795880F97FB991F61F0EE
:101CA0009F3F79F087950895121613061406551F65
:101CB000F2CF4695F1DF08C0161617061806991FD1
:101CC000F1CF86957105610508940895E894BB27C6
:101CD00066277727CB0197F908952F923F924F926D
:101CE0005F926F927F928F929F92AF92BF92CF92AC
:101CF000DF92EF92FF920F931F93CF93DF93CDB7B5
:101D0000DEB7CA1BDB0B0FB6F894DEBF0FBECDBF2C
:101D100009942A88398848885F846E847D848C84FD
:101D20009B84AA84B984C884DF80EE80FD800C8106
:101D30001B81AA81B981CE0FD11D0FB6F894DEBFE9
:101D40000FBECDBFED0108955058BB27AA270E94B2
:101D5000BC0E0C94330E0E94250E38F00E942C0EFF
:101D600020F039F49F3F19F426F40C94220E0EF45F
:101D7000E095E7FB0C941C0EE92F0E94440E58F3EB
:101D8000BA17620773078407950720F079F4A6F560
:101D90000C94660E0EF4E0950B2EBA2FA02D0B01BD
:101DA000B90190010C01CA01A0011124FF27591BA0
:101DB00099F0593F50F4503E68F11A16F040A22FA6
:101DC000232F342F4427585FF3CF46953795279517
:101DD000A795F0405395C9F77EF41F16BA0B620B16
:101DE000730B840BBAF09150A1F0FF0FBB1F661F5D
:101DF000771F881FC2F70EC0BA0F621F731F841FA0
:101E000048F4879577956795B795F7959E3F08F0C5
:101E1000B0CF9395880F08F09927EE0F9795879587
:101E200008950E94250F0C94330E0E942C0E58F03A
:101E30000E94250E40F029F45F3F29F00C941C0EFF
:101E400051110C94670E0C94220E0E94440E68F3FC
:101E50009923B1F3552391F3951B550BBB27AA2763
:101E600062177307840738F09F5F5F4F220F331F9D
:101E7000441FAA1FA9F335D00E2E3AF0E0E832D065
:101E800091505040E695001CCAF72BD0FE2F29D068
:101E9000660F771F881FBB1F261737074807AB073A
:101EA000B0E809F0BB0B802DBF01FF2793585F4FAF
:101EB0003AF09E3F510578F00C941C0E0C94670E7E
:101EC0005F3FE4F3983ED4F3869577956795B79591
:101ED000F7959F5FC9F7880F911D9695879597F99C
:101EE0000895E1E0660F771F881FBB1F6217730715
:101EF0008407BA0720F0621B730B840BBA0BEE1F2A
:101F000088F7E09508950E944C0E88F09F5798F04E
:101F1000B92F9927B751B0F0E1F0660F771F881FEE
:101F2000991F1AF0BA95C9F714C0B13091F00E9408
:101F3000660EB1E008950C94660E672F782F8827FF
:101F4000B85F39F0B93FCCF3869577956795B3952F
:101F5000D9F73EF490958095709561957F4F8F4F9E
:101F60009F4F08950E94F80D08F48FEF0895EE0F2B
:101F7000FF1F0590F491E02D09940F931F93CF93C9
:101F8000DF938230910510F482E090E0E0917504D7
:101F9000F091760430E020E0B0E0A0E0309799F4D2
:101FA0002115310509F44AC0281B390B24303105AD
:101FB000D8F58A819B816115710589F1FB019383B5
:101FC0008283FE0111C04081518102811381481733
:101FD0005907E0F04817590799F4109761F01296E5
:101FE0000C93129713961C933296CF01DF91CF91E9
:101FF0001F910F9108950093750410937604F4CF08
:102000002115310551F04217530738F0A901DB01C2
:102010009A01BD01DF01F801C1CFEF01F9CF909323
:10202000760480937504CDCFFE01E20FF31F8193F8
:1020300091932250310939832883D7CF209173049B
:1020400030917404232B41F4209103013091040159
:1020500030937404209373042091010130910201A4
:102060002115310541F42DB73EB74091050150913E
:102070000601241B350BE0917304F0917404E21700
:10208000F307A0F42E1B3F0B2817390778F0AC019B
:102090004E5F5F4F2417350748F04E0F5F1F509378
:1020A000740440937304819391939FCFF0E0E0E038
:1020B0009CCFCF93DF930097E9F0FC013297138216
:1020C0001282A0917504B0917604ED0130E020E019
:1020D0001097A1F420813181820F931F2091730406
:1020E000309174042817390709F061C0F093740423
:1020F000E0937304DF91CF910895EA01CE17DF07D3
:10210000E8F54A815B819E0141155105B1F7E9016E
:10211000FB83EA8349915991C40FD51FEC17FD0742
:1021200061F4808191810296840F951FE901998362
:102130008883828193819B838A83F0E0E0E012961A
:102140008D919C9113970097B9F52D913C91119722
:10215000CD010296820F931F209173043091740475
:102160002817390739F6309751F5109276041092F6
:102170007504B0937404A0937304BCCFD383C2835B
:1021800040815181840F951FC817D90761F44E5FB4
:102190005F4F88819981480F591F518340838A81FD
:1021A0009B81938382832115310509F0B0CFF09391
:1021B0007604E09375049ECFFD01DC01C0CF13824D
:1021C0001282D7CFB0E0A0E0E8EEF0E10C946F0E01
:1021D0008C01009751F4CB010E94BD0F8C01C80106
:1021E000CDB7DEB7E0E10C948B0EFC01E60FF71FD4
:1021F0009C0122503109E217F30708F49DC0D90170
:10220000CD91DC911197C617D70798F0C530D1054D
:1022100030F3CE0104978617970708F3C61BD70B38
:102220002297C193D1936D937C93CF010E94591053
:10223000D6CF5B01AC1ABD0A4C018C0E9D1EA0913D
:102240007504B0917604512C412CF12CE12C10979F
:1022500031F580917304909174048815990509F003
:102260005CC04616570608F058C080910101909155
:102270000201009741F48DB79EB74091050150913E
:102280000601841B950BE817F90708F055C0F09379
:102290007404E0937304F90171836083A0CF8D917E
:1022A0009C91119712966C90129713967C901397AD
:1022B000A815B90559F56C0142E0C40ED11CCA1429
:1022C000DB0420F1AC014A195B09DA01129615977B
:1022D00080F06282738251834083D9016D937C9335
:1022E000E114F10471F0D7011396FC93EE93129769
:1022F00076CF22968C0F9D1FF90191838083F30185
:10230000EFCFF0937604E093750469CF4816590631
:1023100008F42C017D01D3019ACFCB010E94BD0F9F
:102320007C01009749F0AE01B8010E949F11C801DD
:102330000E945910870153CF10E000E050CFFB01FD
:10234000DC0102C001900D9241505040D8F7089531
:10235000FB01DC018D91019080190110D9F3990BDB
:102360000895FB01DC0101900D920020E1F7089532
:10237000F894FFCF01000077048000000000005DAA
:1023800002B401EA01AA021B02F9010D0243415203
:102390005F315F4558495420005357415020004356
:1023A00041525F325F454E54455220004341525FD7
:1023B000325F504159200049444C4520000D0A002D
:1023C0002074696D655F636172325F7061793A2074
:1023D00000494E5641534F52002074696D655F634A
:1023E0006172315F657869743A20002074696D65A7
:1023F0005F737761703A20002074696D655F69646E
:102400006C653A20002074696D655F636172325FAC
:10241000656E7465723A200054494D454F5554001D
:10242000636172315F6578697400636172315F6303
:102430006172325F7377617000636172325F656EE3
:0E24400074657200636172325F706179000032
:107E0000112484B714BE81FFF0D085E080938100F7
:107E100082E08093C00088E18093C10086E0809377
:107E2000C20080E18093C4008EE0C9D0259A86E02C
:107E300020E33CEF91E0309385002093840096BBD3
:107E4000B09BFECF1D9AA8958150A9F7CC24DD24C4
:107E500088248394B5E0AB2EA1E19A2EF3E0BF2EE7
:107E6000A2D0813461F49FD0082FAFD0023811F036
:107E7000013811F484E001C083E08DD089C08234E0
:107E800011F484E103C0853419F485E0A6D080C0E4
:107E9000853579F488D0E82EFF2485D0082F10E0AE
:107EA000102F00270E291F29000F111F8ED06801E7
:107EB0006FC0863521F484E090D080E0DECF843638
:107EC00009F040C070D06FD0082F6DD080E0C81688
:107ED00080E7D80618F4F601B7BEE895C0E0D1E017
:107EE00062D089930C17E1F7F0E0CF16F0E7DF06D8
:107EF00018F0F601B7BEE89568D007B600FCFDCFD4
:107F0000A601A0E0B1E02C9130E011968C91119780
:107F100090E0982F8827822B932B1296FA010C0160
:107F200087BEE89511244E5F5F4FF1E0A038BF0790
:107F300051F7F601A7BEE89507B600FCFDCF97BE46
:107F4000E89526C08437B1F42ED02DD0F82E2BD052
:107F50003CD0F601EF2C8F010F5F1F4F84911BD097
:107F6000EA94F801C1F70894C11CD11CFA94CF0C13
:107F7000D11C0EC0853739F428D08EE10CD085E9AC
:107F80000AD08FE07ACF813511F488E018D01DD067
:107F900080E101D065CF982F8091C00085FFFCCF94
:107FA0009093C60008958091C00087FFFCCF809118
:107FB000C00084FD01C0A8958091C6000895E0E648
:107FC000F0E098E1908380830895EDDF803219F02E
:107FD00088E0F5DFFFCF84E1DECF1F93182FE3DFCA
:107FE0001150E9F7F2DF1F91089580E0E8DFEE27F6
:047FF000FF270994CA
:027FFE00040479
:00000001FF
