:020000040000FA
:100000000C94DF000C9407010C9407010C94070179
:100010000C9407010C9407010C9407010C943F0504
:100020000C9407010C9407010C9407010C94F30540
:100030000C9407010C9407010C9407010C94070120
:100040000C949D040C9407010C940D050C94E7048A
:100050000C9407010C9407010C9407010C94070100
:100060000C9407010C94070100407A10F35A00A089
:10007000724E18090010A5D4E80000E87648170071
:1000800000E40B54020000CA9A3B000000E1F505B1
:10009000000080969800000040420F000000A086FB
:1000A00001000000102700000000E803000000002D
:1000B0006400000000000A000000000001000000D1
:1000C00000002C76D888DC674F0823DFC1DFAE59EB
:1000D000E1B1B796E5E3E453C63AE651997696E87E
:1000E000E6C28426EB898C9B62ED407C6FFCEFBC02
:1000F0009C9F40F2BAA56FA5F490055A2AF75C932D
:100100006B6CF9676DC11BFCE0E40D47FEF520E662
:10011000B500D0ED902E0300943577050080841E45
:10012000080000204E0A000000C80C333333330FA0
:10013000986E12831141EF8D2114893BE65516CF3D
:10014000FEE6DB18D1844B381BF77C1D901DA4BB49
:10015000E424203284725E228100C9F124ECA1E5FE
:100160003D270000000023002600290000000008B1
:10017000000201000003040700000000000000006E
:1001800000000000250028002B00000000002400D3
:1001900027002A00040404040404040402020202E6
:1001A000020203030303030301020408102040803A
:1001B0000102040810200102040810203606112450
:1001C0001FBECFEFD8E0DEBFCDBF23E0ACE5B1E08E
:1001D00001C01D92A13DB207E1F711E0A0E0B1E03E
:1001E000E0E8F0E202C005900D92AC35B107D9F716
:1001F00010E0CFEDD0E004C02197FE010E943D0E3B
:10020000CE3DD107C9F70E9464060C943E100C94B1
:10021000000090E0FC01E855FE4F24918C569E4F63
:10022000FC018491882399F090E0880F991FFC01CC
:10023000E657FE4FA591B491FC01E058FE4F859121
:1002400094918FB7F894EC91E22BEC938FBF0895C3
:10025000833081F028F4813099F08230A9F008953C
:100260008730A9F08830C9F08430B1F480918000E3
:100270008F7D03C0809180008F77809380000895E8
:1002800084B58F7784BD089584B58F7DFBCF809131
:10029000B0008F778093B00008958091B0008F7D7B
:1002A000F9CFCF93DF93282F30E0F901E459FE4FC7
:1002B0008491F901E855FE4FD491F901EC56FE4FB7
:1002C000C491CC23A1F081110E942801EC2FF0E011
:1002D000EE0FFF1FEE59FE4FA591B491EC91ED2367
:1002E00081E090E009F480E0DF91CF91089580E013
:1002F00090E0FACF1F93CF93DF93282F30E0F901DE
:10030000E459FE4F8491F901E855FE4FD491F9016B
:10031000EC56FE4FC491CC23A9F0162F81110E94F8
:100320002801EC2FF0E0EE0FFF1FE058FE4FA591E3
:10033000B4918FB7F894EC91111108C0D095DE23D9
:10034000DC938FBFDF91CF911F910895DE2BF8CF03
:100350002FB7F89460912C0370912D0380912E0398
:1003600090912F032FBF0895AF92BF92CF92DF924B
:10037000EF92FF920F931F93CF93DF936C017B015A
:100380008B01040F151FEB015E01AE18BF08C017EB
:10039000D10759F06991D601ED91FC910190F0815E
:1003A000E02DC6010995892B79F7C501DF91CF9121
:1003B0001F910F91FF90EF90DF90CF90BF90AF9083
:1003C0000895FC01448155816081718180E393E04F
:1003D0000C94B401FC01538D448D252F30E0842F03
:1003E00090E0821B930B541710F0CF96089501975D
:1003F0000895FC01918D828D981761F0A28DAE0F4A
:10040000BF2FB11D5D968C91928D9F5F9F73928FD0
:1004100090E008958FEF9FEF0895FC01918D828DFC
:10042000981731F0828DE80FF11D858D90E00895C9
:100430008FEF9FEF0895FC01918D228D892F90E021
:10044000805C9F4F821B91098F739927089580E3E9
:1004500093E00E941B0221E0892B09F420E0822F07
:10046000089580E090E0892B29F00E9427028111F5
:100470000C9400000895FC01A48DA80FB92FB11DA4
:10048000A35ABF4F2C91848D90E001968F739927CA
:10049000848FA689B7892C93A089B1898C918370A8
:1004A00080648C93938D848D981306C00288F389A1
:1004B000E02D80818F7D80830895EF92FF920F93CE
:1004C0001F93CF93DF93EC0181E0888F9B8D8C8D00
:1004D00098131AC0E889F989808185FF15C09FB7F4
:1004E000F894EE89FF896083E889F98980818370B7
:1004F000806480839FBF81E090E0DF91CF911F9166
:100500000F91FF90EF900895F62E0B8D10E00F5F86
:100510001F4F0F731127E02E8C8D8E110CC00FB65C
:1005200007FCFACFE889F989808185FFF5CFCE01F4
:100530000E943B02F1CFEB8DEC0FFD2FF11DE35A32
:10054000FF4FF0829FB7F8940B8FEA89FB89808177
:100550008062CFCFCF93DF93EC01888D8823B9F0F1
:10056000AA89BB89E889F9898C9185FD03C08081BE
:1005700086FD0DC00FB607FCF7CF8C9185FFF2CF3B
:10058000808185FFEDCFCE010E943B02E9CFDF9154
:10059000CF910895CF932AE939E949E15FE360916A
:1005A00005037091060380910703909108030E9450
:1005B000380E1816B4F0C1E02AE939E949E15FE3E1
:1005C0006091090370910A0380910B0390910C03D1
:1005D0000E94380E18160CF0C0E081E08C27CF91F5
:1005E000089580E0FCCF109226031092230310920E
:1005F0001A03109224030895CF932AE939E949E1B7
:100600005FE3609105037091060380910703909169
:1006100008030E94380E18168CF4C1E02AE939E963
:1006200049E15FE36091090370910A0380910B0334
:1006300090910C030E94380E18160CF0C0E08C2F1D
:10064000CF91089542E050E069E171E080E393E0EA
:100650000C94B401CF93DF93FC0101900020E9F7E3
:100660003197AF01481B590BBC0180E393E00E9416
:10067000B401EC010E9422038C0F9D1FDF91CF91EA
:100680000895FC0124813581232B39F421E0FB01FD
:100690008081882349F020E007C0808191810E94F9
:1006A0002E1021E0892BB9F7822F0895CF93DF9385
:1006B000EC016CE171E00E944103811122C068E20B
:1006C00071E0CE010E94410381111BC06EE271E016
:1006D000CE010E944103811114C06BE371E0CE0191
:1006E0000E94410381110DC066E471E0CE010E94B9
:1006F000410391E0811101C090E0892FDF91CF91FA
:10070000089591E0FACFCF93DF93EC01888199812E
:10071000009711F00E94DF0E198218821D821C8240
:100720001B821A82DF91CF910895EF92FF920F936F
:100730001F93CF93DF93EC017B018A01888199811C
:10074000009729F02A813B812417350788F4B801E6
:100750006F5F7F4F0E94680F0097C9F0998388836D
:100760001B830A832C813D81232B11F4FC01108211
:100770001D830C83B701888199810E943710CE01B7
:10078000DF91CF911F910F91FF90EF900895CE01CF
:100790000E948303F4CFEF92FF920F931F93CF93A6
:1007A000DF93CDB7DEB7A1970FB6F894DEBF0FBECB
:1007B000CDBF7C01CB01BA01F701118210821382F7
:1007C0001282158214828E010F5F1F4F21E043E0D9
:1007D0000E94EC090097C9F0FC0101900020E9F7A4
:1007E0003197AF01481B590BBC01C7010E9495030B
:1007F000A1960FB6F894DEBF0FBECDBFDF91CF91AB
:100800001F910F91FF90EF900895C7010E948303FD
:10081000EFCFCF93DF93EC01FB018617970749F0E9
:10082000608171816115710541F0448155810E949B
:100830009503CE01DF91CF9108950E948303F9CFF4
:10084000FC01118210821382128215821482FB0134
:1008500001900020E9F73197AF01461B570B0C942C
:100860009503FC0180819181009711F00C94DF0EBB
:100870000895FF920F931F93CF93DF9300D000D082
:1008800000D0CDB7DEB78C018091F802811109C08C
:100890006BE171E082EF92E00E94200481E080939E
:1008A000F8021A8219821C821B821E821D8262EF4C
:1008B00072E0CE0101960E940904CE0101960E94C9
:1008C0005603F82ECE0101960E943104FF20D9F084
:1008D0001A8219821C821B821E821D82B801CE01DF
:1008E00001960E940904CE0101960E945603F82E3B
:1008F000CE0101960E943104FF2049F06AE080E3B6
:1009000093E00E945D02C8010E94E10105C0C80198
:100910000E94E1010E942203B80182EF92E00E944E
:10092000090426960FB6F894DEBF0FBECDBFDF9147
:10093000CF911F910F91FF9008951F920F920FB6C4
:100940000F9211242F933F938F939F93AF93BF9355
:1009500080912C0390912D03A0912E03B0912F0331
:1009600030912B0323E0230F2D3758F50196A11D5D
:10097000B11D20932B0380932C0390932D03A09300
:100980002E03B0932F038091270390912803A09109
:100990002903B0912A030196A11DB11D809327035D
:1009A00090932803A0932903B0932A03BF91AF919A
:1009B0009F918F913F912F910F900FBE0F901F909D
:1009C000189526E8230F0296A11DB11DD2CF1F92C4
:1009D0000F920FB60F9211242F933F934F935F9373
:1009E0006F937F938F939F93AF93BF93EF93FF93F7
:1009F00080E393E00E943B02FF91EF91BF91AF91A2
:100A00009F918F917F916F915F914F913F912F9126
:100A10000F900FBE0F901F9018951F920F920FB658
:100A20000F9211242F938F939F93EF93FF93E09155
:100A30004003F09141038081E0914603F091470328
:100A400082FD1BC09081809149038F5F8F7320913D
:100A50004A03821741F0E0914903F0E0E05DFC4F6A
:100A6000958F80934903FF91EF919F918F912F91E3
:100A70000F900FBE0F901F9018958081F4CF1F929A
:100A80000F920FB60F9211248F929F92AF92BF9246
:100A9000CF92DF92EF92FF920F931F932F933F938A
:100AA0004F935F936F937F938F939F93AF93BF9376
:100AB000CF93DF93EF93FF938EE00E945101BC012F
:100AC000990F880B990B0E94430C20E030E048E41A
:100AD00052E40E94970D4B015C01C091F002D0914D
:100AE000F1022091050330910603409107035091D4
:100AF00008030E942B0D8E01000F111F000F111F04
:100B00009801285D3D4F7901F901208131814281B1
:100B100053810E942A0D609305037093060380930E
:100B2000070390930803F70180829182A282B38227
:100B300080E10E945101BC01990F880B990B0E9422
:100B4000430C20E030E048E452E40E94970D6B0132
:100B50007C012091090330910A0340910B035091CD
:100B60000C030E942B0D005A1E4FF8012081318189
:100B7000428153810E942A0D6093090370930A03F6
:100B800080930B0390930C03F801C082D182E28220
:100B9000F3822196C233D10509F1D093F102C093BB
:100BA000F002FF91EF91DF91CF91BF91AF919F91B3
:100BB0008F917F916F915F914F913F912F911F91F5
:100BC0000F91FF90EF90DF90CF90BF90AF909F90EC
:100BD0008F900F900FBE0F901F9018951092F102FA
:100BE0001092F002DECF1F920F920FB60F921124D7
:100BF0002F933F934F935F936F937F938F939F9325
:100C0000AF93BF93CF93EF93FF93809125038823F6
:100C100041F10E94A801C09100016C2F88E00E9460
:100C20007A0181E0C827C09300010E94A801609367
:100C30005C0170935D0180935E0190935F01FF9171
:100C4000EF91CF91BF91AF919F918F917F916F91D4
:100C50005F914F913F912F910F900FBE0F901F907A
:100C6000189560E088E00E947A01E9CFE0E3F3E0C4
:100C70001382128288EE93E0A0E0B0E08483958333
:100C8000A683B7838BE091E09183808385EC90E02D
:100C90009587848784EC90E09787868780EC90E046
:100CA000918B808B81EC90E0938B828B82EC90E037
:100CB000958B848B86EC90E0978B868B118E128EB1
:100CC000138E148E0C94A801CF93DF93CDB7DEB7AB
:100CD0006A970FB6F894DEBF0FBECDBF789484B587
:100CE000826084BD84B5816084BD85B5826085BD28
:100CF00085B5816085BD80916E00816080936E00B6
:100D000010928100809181008260809381008091A7
:100D10008100816080938100809180008160809358
:100D200080008091B10084608093B1008091B00018
:100D300081608093B00080917A00846080937A0013
:100D400080917A00826080937A0080917A0081603D
:100D500080937A0080917A00806880937A00109264
:100D6000C100E0914003F091410312E01083E09153
:100D70003C03F0913D031082E0913E03F0913F036C
:100D800080E1808310924803E0914403F091450391
:100D900086E08083E0914203F0914303808180618B
:100DA0008083E0914203F0914303808188608083D7
:100DB000E0914203F0914303808180688083E09159
:100DC0004203F091430380818F7D80838DE00E94F8
:100DD000090188E00E94090189E00E94090160E0A0
:100DE00089E00E947A0160E08DE00E947A0160E073
:100DF00088E00E947A01F8941092B0001092B1003D
:100E00001092B2008CEA8093B3008091B0008260AF
:100E10008093B0008091B10087608093B100809191
:100E200070008260809370001092800010928100A8
:100E3000109285001092840082E19AE790938900D5
:100E40008093880088E08093810080918100836096
:100E50008093810010936F00789480E0E82E80E00A
:100E6000F82E0E94A8010E94CA0261E0811101C00F
:100E700060E089E00E947A010E94FC02882309F464
:100E8000D9C0809104038111B8C081E0809304032C
:100E90000E94A801609300037093010380930203F2
:100EA000909303031F8A188E198E1A8E1B8A1C8A30
:100EB0001D8A1E8A1F86188A198A1A8A1B861C8612
:100EC0001D861E861F82188619861A861091260393
:100ED0001111B7C02AE939E949E15FE360910503DF
:100EE0007091060380910703909108030E94380EC9
:100EF00018160CF4A6C02AE939E949E15FE36091CC
:100F0000090370910A0380910B0390910C030E94D6
:100F1000380E18160CF095C010922503809124030A
:100F2000882309F441C0109224030E94A801009173
:100F30001F03109120032091210330912203601B95
:100F4000710B820B930B0E94410C20E030E04AE7CA
:100F500054E40E94970D0E94090E6B877C878D8751
:100F60009E876B857C858D859E850E94410CAB019B
:100F7000BC01CE0101960E94CB03CE0101960E94D6
:100F80003904CE0101960E9431048B859C85AD8584
:100F9000BE850697A105B10538F481E0809325034D
:100FA0008CE491E00E942A030E94F30281E0809386
:100FB00026036CE171E0CE0101960E942004CE016F
:100FC00001960E943904CE0101960E9431040E94CC
:100FD000A80160931B0370931C0380931D039093DF
:100FE0001E03E114F10409F43CCF0E942702882378
:100FF00009F437CF0E94000034CF0E94A80100916D
:101000000003109101032091020330910303601B40
:10101000710B820B930B0E94410C20E030E040E208
:1010200051E40E94380E87FD3DCF61E08DE00E94C3
:101030007A0138CF60E08DE00E947A0110920403BB
:1010400031CF00912303011106C0112321F00E942A
:10105000FC0281118FC0D0901A03D110E2C001119F
:1010600005C080911503882309F4DBC02AE939E91A
:1010700049E15FE3609105037091060380910703E6
:10108000909108030E94380E18160CF0CAC02AE985
:1010900039E949E15FE36091090370910A038091A6
:1010A0000B0390910C030E94380E18160CF4B9C073
:1010B000002309F4D6C0109223030E94A8010091D6
:1010C0001603109117032091180330911903601B28
:1010D000710B820B930B0E94410C20E030E04AE739
:1010E00054E40E94970D0E94090E6B8B7C8B8D8BB4
:1010F0009E8B6B897C898D899E890E94410CAB01F6
:10110000BC01CE0101960E94CB03CE0101960E9444
:101110003904CE0101960E9431048B899C89AD89E6
:10112000BE890497A105B10548F08F819885A985EE
:10113000BA850397A105B10508F053CF81E08093EC
:101140001A036EE271E0CE0101960E942004CE01E6
:1011500001960E943904CE0101960E9431040E943A
:10116000A80160930D0370930E0380930F03909377
:10117000100337CF109226030E94A80100911B0391
:1011800010911C0320911D0330911E03601B710BF5
:10119000820B930B0E94410C20E030E04AE754E4BC
:1011A0000E94970D0E94090E6F8B788F898F9A8FFE
:1011B0006F89788D898D9A8D0E94410CAB01BC019D
:1011C000CE0101960E94CB03CE0101960E94390404
:1011D000CE0101960E9431048F89988DA98DBA8D18
:1011E0000497A105B10508F0FCCE81E080932303AC
:1011F00068E271E0CE0101960E942004CE010196C2
:101200000E943904CE0101960E9431040E94A80177
:101210006093160370931703809318039093190338
:10122000E0CE80912403811106C0DD2021F00E94D0
:10123000FC0281113EC080911503811104C00E94FF
:10124000CA0281118DC08B899C89AD89BE89892B89
:101250008A2B8B2B09F4A4C084E591E00E942A0319
:101260009CC080911503882309F457CF1092150371
:101270000E94A80100911103109112032091130301
:1012800030911403601B710B820B930B0E94410C75
:1012900020E030E04AE754E40E94970D0E94090ED6
:1012A0006F83788789879A876F81788589859A8502
:1012B00024CF10921A030E94A80100910D031091EF
:1012C0000E0320910F0330911003601B710B820BF2
:1012D000930B0E94410C20E030E04AE754E40E9466
:1012E000970D0E94090E6F87788B898B9A8B6F857B
:1012F000788989899A890E94410CAB01BC01CE0191
:1013000001960E94CB03CE0101960E943904CE01C2
:1013100001960E9431048F859889A989BA8904971A
:10132000A105B10508F05DCE81E0809324036BE355
:1013300071E0CE0101960E942004CE0101960E9428
:101340003904CE0101960E9431040E94A8016093E5
:101350001F0370932003809321039093220341CEB7
:1013600081E0809315031123C1F066E471E0CE01A2
:1013700001960E942004CE0101960E943904CE01FC
:1013800001960E9431040E94A8016093110370939A
:10139000120380931303909314030E94F30221CE4F
:1013A0008F89988DA98DBA8D892B8A2B8B2B09F06B
:1013B00053CF8F859889A989BA89892B8A2B8B2B42
:1013C00009F04ACF8B859C85AD85BE850B97A1051D
:1013D000B10508F041CF05CEEF920F931F93CF9345
:1013E000DF93E80134E047FD34E1042E000C550B97
:1013F00057FF03C0519541955109E32E022F242F29
:10140000AE010E940A0ACE01DF91CF911F910F9188
:10141000EF900895A9E0B0E0E0E1FAE00C94F90C57
:101420006A01F22EB02E102FFBE3AF2EA01608F4A7
:101430001BE31F5F012F27E0AE014F5F5F4F0E944C
:10144000690BBC018981982F9970913009F43FC0D4
:101450009BE2E1FC04C09E2D9170E0FC3AC05E2D41
:101460005071E82FE87083FF46C084E0911101C0FD
:1014700083E0EF2DE81B8F1508F0E0E0D6018E2FFA
:1014800020E2552351F1992329F0D6019C93C601FE
:1014900001966C0196012D5F3F4FE2FE24C08EE461
:1014A000D6018C9391E411969C93119712968C938C
:1014B000D9018E2F90E281111BC0E20FF32FF11D95
:1014C00010828EEF9FEF2996ECE00C94150D9DE2B3
:1014D000C6CF90E2C4CF2D9381508111FCCFCE0EA8
:1014E000D11CE0E0D0CF8EE6D6018C9391E6DBCF25
:1014F0009D938150E0CF482F447082FF3DC084E02F
:10150000911101C083E08F1510F4EF2DE81BD60177
:101510008E2F20E2552309F1992329F0D6019C93BF
:10152000C60101966C0196012D5F3F4FE2FE1BC084
:1015300089E4D6018C938EE411968C93119786E4FE
:1015400012968C93D9018E2F90E2882309F4B5CF9F
:101550009D938150FACF2D9381508111FCCFCE0EF7
:10156000D11CE0E0D9CF89E6D6018C938EE61196A6
:101570008C93119786E6E4CF9B0177FF02C030E0A1
:1015800020E0A1E0B0E0911102C0B0E0A0E0F901DC
:101590003196AE0FBF1F8B2C912CBB2009F461C07C
:1015A0005401EFEFAE1ABE0AAA0DBB1DFA161B06B8
:1015B00019F014F04F2D4A1B511188C0E3FC59C09B
:1015C0007601A42FB0E2A1114FC0C40ED11C992303
:1015D00009F45BC040E0D6011196F60190836D01DD
:1015E000552309F448C0012F060F9A81582F5071D6
:1015F00084FF03C0913309F4015010160CF047C06A
:10160000093008F008E0EEE2FE2E5B01A01AB108F6
:1016100085019194819491082F3F320729F4D601D6
:10162000FC92F60131966F016217730794F102176D
:1016300013077CF5DB01A21BB30BAA24A394B12CE6
:10164000AC0EBD1EAA0DBB1D11968C912150310907
:10165000D601119628153905F4F0F60180836D0145
:10166000DBCFB12CA12CA0CFF701B1937F01A1500A
:10167000AACF9111B0CFD601942F50E302C05D9351
:1016800091509111FCCFC40ED11C40E0ACCF01E0D1
:10169000BACF80E3DBCF6217730731F4963388F457
:1016A000953311F4552369F0F6018083FD01842FF1
:1016B00090E2811108C0A40FB11D1C9290E080E05F
:1016C00002CF81E3F1CF91938150F3CF911183CF7A
:1016D0008ACF283008F027E03327DA01990F311D2F
:1016E00087FD916000966105710539F432602E5FC7
:1016F0003D9330E32A95E1F708959F3F30F080381D
:101700007105610509F03C5F3C5F3D93913008F045
:101710008068911DDF93CF931F930F93FF92EF92F9
:10172000192F987F9695E92F96959695E90FFF27A3
:10173000EE53FF4F99273327EE24FF24A701E7013B
:1017400005900894079428F4360FE71EF81E491FE9
:10175000511D660F771F881F991F0694A1F70590EA
:10176000079428F4E70EF81E491F561FC11D770F76
:10177000881F991F661F0694A1F70590079428F407
:10178000F80E491F561FC71FD11D880F991F661FCE
:10179000771F0694A1F70590079420F4490F561F70
:1017A000C71FD81F990F661F771F881F0694A9F7B8
:1017B00084911095177041F0D695C7955795479528
:1017C000F794E7941A95C1F7E8E6F0E0689415906D
:1017D000159135916591959105907FE27395E1188A
:1017E000F10A430B560BC90BD009C0F7E10CF11EEF
:1017F000431F561FC91FD01D7EF4703311F48A9504
:10180000E6CFE894015030F0080F0AF400270217E1
:1018100008F4202F2395022F7A3328F079E37D9363
:101820002A95E9F710C07D932A9589F60694979535
:101830006795379517951794E118F10A430B560BE6
:10184000C90BD00998F023957E9173957A3308F0EF
:1018500070E37C932013B8F77E9170617D9330F034
:10186000839571E37D9370E32A95E1F71124EF905E
:10187000FF900F911F91CF91DF91992787FD909550
:101880000895E89409C097FB3EF490958095709573
:1018900061957F4F8F4F9F4F9923A9F0F92F96E9BC
:1018A000BB279395F695879577956795B795F11131
:1018B000F8CFFAF4BB0F11F460FF1BC06F5F7F4FCE
:1018C0008F4F9F4F16C0882311F096E911C07723E0
:1018D00021F09EE8872F762F05C0662371F096E8E9
:1018E000862F70E060E02AF09A95660F771F881FB8
:1018F000DAF7880F9695879597F90895990F00085C
:10190000550FAA0BE0E8FEEF16161706E807F907D1
:10191000C0F012161306E407F50798F0621B730B6C
:10192000840B950B39F40A2661F0232B242B252BED
:1019300021F408950A2609F4A140A6958FEF811D90
:10194000811D089597F99F6780E870E060E0089531
:101950009FEF80EC089500240A94161617061806C7
:101960000906089500240A941216130614060506A3
:101970000895092E0394000C11F4882352F0BB0F34
:1019800040F4BF2B11F460FF04C06F5F7F4F8F4F97
:101990009F4F089557FD9058440F551F59F05F3FD2
:1019A00071F04795880F97FB991F61F09F3F79F081
:1019B00087950895121613061406551FF2CF469503
:1019C000F1DF08C0161617061806991FF1CF869585
:1019D0007105610508940895E894BB276627772769
:1019E000CB0197F908952F923F924F925F926F9299
:1019F0007F928F929F92AF92BF92CF92DF92EF929F
:101A0000FF920F931F93CF93DF93CDB7DEB7CA1B1F
:101A1000DB0B0FB6F894DEBF0FBECDBF09942A884A
:101A2000398848885F846E847D848C849B84AA84F2
:101A3000B984C884DF80EE80FD800C811B81AA817F
:101A4000B981CE0FD11D0FB6F894DEBF0FBECDBF4A
:101A5000ED0108955058BB27AA270E94420D0C940F
:101A6000B90C0E94AB0C38F00E94B20C20F039F493
:101A70009F3F19F426F40C94A80C0EF4E095E7FBB4
:101A80000C94A20CE92F0E94CA0C58F3BA176207F3
:101A900073078407950720F079F4A6F50C94EC0CF5
:101AA0000EF4E0950B2EBA2FA02D0B01B901900179
:101AB0000C01CA01A0011124FF27591B99F0593FBD
:101AC00050F4503E68F11A16F040A22F232F342F05
:101AD0004427585FF3CF469537952795A795F04053
:101AE0005395C9F77EF41F16BA0B620B730B840B68
:101AF000BAF09150A1F0FF0FBB1F661F771F881F20
:101B0000C2F70EC0BA0F621F731F841F48F4879577
:101B100077956795B795F7959E3F08F0B0CF939569
:101B2000880F08F09927EE0F9795879508950E94E2
:101B3000AB0D0C94B90C0E94B20C58F00E94AB0C87
:101B400040F029F45F3F29F00C94A20C51110C9441
:101B5000ED0C0C94A80C0E94CA0C68F39923B1F305
:101B6000552391F3951B550BBB27AA2762177307C3
:101B7000840738F09F5F5F4F220F331F441FAA1F57
:101B8000A9F335D00E2E3AF0E0E832D09150504013
:101B9000E695001CCAF72BD0FE2F29D0660F771FC1
:101BA000881FBB1F261737074807AB07B0E809F0A7
:101BB000BB0B802DBF01FF2793585F4F3AF09E3F2C
:101BC000510578F00C94A20C0C94ED0C5F3FE4F3FB
:101BD000983ED4F3869577956795B795F7959F5F6F
:101BE000C9F7880F911D9695879597F90895E1E0BB
:101BF000660F771F881FBB1F621773078407BA071A
:101C000020F0621B730B840BBA0BEE1F88F7E09574
:101C100008950E94D20C88F09F5798F0B92F992709
:101C2000B751B0F0E1F0660F771F881F991F1AF0C7
:101C3000BA95C9F714C0B13091F00E94EC0CB1E034
:101C400008950C94EC0C672F782F8827B85F39F033
:101C5000B93FCCF3869577956795B395D9F73EF460
:101C600090958095709561957F4F8F4F9F4F089508
:101C70000E947E0C08F48FEF0895EE0FFF1F059071
:101C8000F491E02D09940F931F93CF93DF9382304B
:101C9000910510F482E090E0E091CF03F091D00341
:101CA00030E020E0B0E0A0E0309799F42115310554
:101CB00009F44AC0281B390B24303105D8F58A8134
:101CC0009B816115710589F1FB0193838283FE017C
:101CD00011C0408151810281138148175907E0F0FA
:101CE0004817590799F4109761F012960C931297C0
:101CF00013961C933296CF01DF91CF911F910F91D4
:101D000008950093CF031093D003F4CF211531052C
:101D100051F04217530738F0A901DB019A01BD01C8
:101D2000DF01F801C1CFEF01F9CF9093D003809389
:101D3000CF03CDCFFE01E20FF31F81939193225089
:101D4000310939832883D7CF2091CD033091CE0339
:101D5000232B41F420910301309104013093CE03F1
:101D60002093CD032091010130910201211531050D
:101D700041F42DB73EB74091050150910601241B57
:101D8000350BE091CD03F091CE03E217F307A0F4F9
:101D90002E1B3F0B2817390778F0AC014E5F5F4FC1
:101DA0002417350748F04E0F5F1F5093CE03409322
:101DB000CD03819391939FCFF0E0E0E09CCFCF9350
:101DC000DF930097E9F0FC01329713821282A09111
:101DD000CF03B091D003ED0130E020E01097A1F4E3
:101DE00020813181820F931F2091CD033091CE034A
:101DF0002817390709F061C0F093CE03E093CD03B3
:101E0000DF91CF910895EA01CE17DF07E8F54A8107
:101E10005B819E0141155105B1F7E901FB83EA831E
:101E200049915991C40FD51FEC17FD0761F48081CA
:101E300091810296840F951FE9019983888382819D
:101E400093819B838A83F0E0E0E012968D919C91D0
:101E500013970097B9F52D913C911197CD010296FA
:101E6000820F931F2091CD033091CE03281739079D
:101E700039F6309751F51092D0031092CF03B093FA
:101E8000CE03A093CD03BCCFD383C28340815181C5
:101E9000840F951FC817D90761F44E5F5F4F888183
:101EA0009981480F591F518340838A819B81938375
:101EB00082832115310509F0B0CFF093D003E09370
:101EC000CF039ECFFD01DC01C0CF13821282D7CF9A
:101ED000B0E0A0E0EEE6FFE00C94F50C8C0100977A
:101EE00051F4CB010E94430E8C01C801CDB7DEB77F
:101EF000E0E10C94110DFC01E60FF71F9C0122504C
:101F00003109E217F30708F49DC0D901CD91DC91A6
:101F10001197C617D70798F0C530D10530F3CE0119
:101F200004978617970708F3C61BD70B2297C19310
:101F3000D1936D937C93CF010E94DF0ED6CF5B01CE
:101F4000AC1ABD0A4C018C0E9D1EA091CF03B0911E
:101F5000D003512C412CF12CE12C109731F58091BC
:101F6000CD039091CE038815990509F05CC0461603
:101F7000570608F058C08091010190910201009726
:101F800041F48DB79EB74091050150910601841B25
:101F9000950BE817F90708F055C0F093CE03E093CE
:101FA000CD03F90171836083A0CF8D919C9111972E
:101FB00012966C90129713967C901397A815B905FA
:101FC00059F56C0142E0C40ED11CCA14DB0420F1A7
:101FD000AC014A195B09DA011296159780F062820A
:101FE000738251834083D9016D937C93E114F10492
:101FF00071F0D7011396FC93EE93129776CF229649
:102000008C0F9D1FF90191838083F301EFCFF09333
:10201000D003E093CF0369CF4816590608F42C018A
:102020007D01D3019ACFCB010E94430E7C01009722
:1020300049F0AE01B8010E942510C8010E94DF0ED0
:10204000870153CF10E000E050CFFB01DC0102C05C
:1020500001900D9241505040D8F70895FB01DC01EA
:102060008D91019080190110D9F3990B0895FB010E
:10207000DC0101900D920020E1F70895F894FFCF64
:10208000010000D1038000000000005D02B401EAFD
:1020900001AA021B02F9010D020D0A004341525F21
:1020A000315F455849542000535741502000434167
:1020B000525F325F454E54455220004341525F32D9
:1020C0005F504159200049444C452000494E56413B
:0C20D000534F520054494D454F555400E9
:107E0000112484B714BE81FFF0D085E080938100F7
:107E100082E08093C00088E18093C10086E0809377
:107E2000C20080E18093C4008EE0C9D0259A86E02C
:107E300020E33CEF91E0309385002093840096BBD3
:107E4000B09BFECF1D9AA8958150A9F7CC24DD24C4
:107E500088248394B5E0AB2EA1E19A2EF3E0BF2EE7
:107E6000A2D0813461F49FD0082FAFD0023811F036
:107E7000013811F484E001C083E08DD089C08234E0
:107E800011F484E103C0853419F485E0A6D080C0E4
:107E9000853579F488D0E82EFF2485D0082F10E0AE
:107EA000102F00270E291F29000F111F8ED06801E7
:107EB0006FC0863521F484E090D080E0DECF843638
:107EC00009F040C070D06FD0082F6DD080E0C81688
:107ED00080E7D80618F4F601B7BEE895C0E0D1E017
:107EE00062D089930C17E1F7F0E0CF16F0E7DF06D8
:107EF00018F0F601B7BEE89568D007B600FCFDCFD4
:107F0000A601A0E0B1E02C9130E011968C91119780
:107F100090E0982F8827822B932B1296FA010C0160
:107F200087BEE89511244E5F5F4FF1E0A038BF0790
:107F300051F7F601A7BEE89507B600FCFDCF97BE46
:107F4000E89526C08437B1F42ED02DD0F82E2BD052
:107F50003CD0F601EF2C8F010F5F1F4F84911BD097
:107F6000EA94F801C1F70894C11CD11CFA94CF0C13
:107F7000D11C0EC0853739F428D08EE10CD085E9AC
:107F80000AD08FE07ACF813511F488E018D01DD067
:107F900080E101D065CF982F8091C00085FFFCCF94
:107FA0009093C60008958091C00087FFFCCF809118
:107FB000C00084FD01C0A8958091C6000895E0E648
:107FC000F0E098E1908380830895EDDF803219F02E
:107FD00088E0F5DFFFCF84E1DECF1F93182FE3DFCA
:107FE0001150E9F7F2DF1F91089580E0E8DFEE27F6
:047FF000FF270994CA
:027FFE00040479
:00000001FF
