:020000040000FA
:100000000C94DF000C9407010C9407010C94070179
:100010000C9407010C9407010C9407010C944B04F9
:100020000C9407010C9407010C9407010C94FF0435
:100030000C9407010C9407010C9407010C94070120
:100040000C94A9030C9407010C9419040C94F30369
:100050000C9407010C9407010C9407010C94070100
:100060000C9407010C94070100407A10F35A00A089
:10007000724E18090010A5D4E80000E87648170071
:1000800000E40B54020000CA9A3B000000E1F505B1
:10009000000080969800000040420F000000A086FB
:1000A00001000000102700000000E803000000002D
:1000B0006400000000000A000000000001000000D1
:1000C00000002C76D888DC674F0823DFC1DFAE59EB
:1000D000E1B1B796E5E3E453C63AE651997696E87E
:1000E000E6C28426EB898C9B62ED407C6FFCEFBC02
:1000F0009C9F40F2BAA56FA5F490055A2AF75C932D
:100100006B6CF9676DC11BFCE0E40D47FEF520E662
:10011000B500D0ED902E0300943577050080841E45
:10012000080000204E0A000000C80C333333330FA0
:10013000986E12831141EF8D2114893BE65516CF3D
:10014000FEE6DB18D1844B381BF77C1D901DA4BB49
:10015000E424203284725E228100C9F124ECA1E5FE
:100160003D270000000023002600290000000008B1
:10017000000201000003040700000000000000006E
:1001800000000000250028002B00000000002400D3
:1001900027002A00040404040404040402020202E6
:1001A000020203030303030301020408102040803A
:1001B0000102040810200102040810204205112445
:1001C0001FBECFEFD8E0DEBFCDBF23E0AEE4B1E08D
:1001D00001C01D92A03BB207E1F711E0A0E0B1E041
:1001E000EEECFCE102C005900D92AE34B107D9F7F8
:1001F00010E0CFEDD0E004C02197FE010E946D0C0D
:10020000CE3DD107C9F70E9470050C94650E0C9481
:10021000000090E0FC01E855FE4F24918C569E4F63
:10022000FC018491882399F090E0880F991FFC01CC
:10023000E657FE4FA591B491FC01E058FE4F859121
:1002400094918FB7F894EC91E22BEC938FBF0895C3
:10025000833081F028F4813099F08230A9F008953C
:100260008730A9F08830C9F08430B1F480918000E3
:100270008F7D03C0809180008F77809380000895E8
:1002800084B58F7784BD089584B58F7DFBCF809131
:10029000B0008F778093B00008958091B0008F7D7B
:1002A000F9CFCF93DF93282F30E0F901E459FE4FC7
:1002B0008491F901E855FE4FD491F901EC56FE4FB7
:1002C000C491CC23A1F081110E942801EC2FF0E011
:1002D000EE0FFF1FEE59FE4FA591B491EC91ED2367
:1002E00081E090E009F480E0DF91CF91089580E013
:1002F00090E0FACF1F93CF93DF93282F30E0F901DE
:10030000E459FE4F8491F901E855FE4FD491F9016B
:10031000EC56FE4FC491CC23A9F0162F81110E94F8
:100320002801EC2FF0E0EE0FFF1FE058FE4FA591E3
:10033000B4918FB7F894EC91111108C0D095DE23D9
:10034000DC938FBFDF91CF911F910895DE2BF8CF03
:100350002FB7F89460910B0370910C0380910D03FB
:1003600090910E032FBF0895AF92BF92CF92DF926C
:10037000EF92FF920F931F93CF93DF936C017B015A
:100380008B01040F151FEB015E01AE18BF08C017EB
:10039000D10759F06991D601ED91FC910190F0815E
:1003A000E02DC6010995892B79F7C501DF91CF9121
:1003B0001F910F91FF90EF90DF90CF90BF90AF9083
:1003C0000895FC01538D448D252F30E0842F90E05B
:1003D000821B930B541710F0CF9608950197089540
:1003E000FC01918D828D981761F0A28DAE0FBF2F09
:1003F000B11D5D968C91928D9F5F9F73928F90E05F
:1004000008958FEF9FEF0895FC01918D828D9817CD
:1004100031F0828DE80FF11D858D90E008958FEF0A
:100420009FEF0895FC01918D228D892F90E0805CD3
:100430009F4F821B91098F73992708958FE093E056
:100440000E94120221E0892B09F420E0822F0895F6
:1004500080E090E0892B29F00E941E0281110C940B
:1004600000000895FC01A48DA80FB92FB11DA35A57
:10047000BF4F2C91848D90E001968F739927848FC4
:10048000A689B7892C93A089B1898C9183708064E7
:100490008C93938D848D981306C00288F389E02D88
:1004A00080818F7D80830895EF92FF920F931F9339
:1004B000CF93DF93EC0181E0888F9B8D8C8D981317
:1004C0001AC0E889F989808185FF15C09FB7F89423
:1004D000EE89FF896083E889F9898081837080646F
:1004E00080839FBF81E090E0DF91CF911F910F91BA
:1004F000FF90EF900895F62E0B8D10E00F5F1F4FC9
:100500000F731127E02E8C8D8E110CC00FB607FCD7
:10051000FACFE889F989808185FFF5CFCE010E9465
:100520003202F1CFEB8DEC0FFD2FF11DE35AFF4F9F
:10053000F0829FB7F8940B8FEA89FB8980818062F3
:10054000CFCFCF93DF93EC01888D8823B9F0AA89B0
:10055000BB89E889F9898C9185FD03C0808186FD7E
:100560000DC00FB607FCF7CF8C9185FFF2CF8081CD
:1005700085FFEDCFCE010E943202E9CFDF91CF910E
:100580000895CF932DEC3CEC4CE45FE36091E902DD
:100590007091EA028091EB029091EC020E94680C4B
:1005A0001816B4F0C1E02DEC3CEC4CE45FE3609134
:1005B000ED027091EE028091EF029091F0020E94A4
:1005C000680C18160CF0C0E081E08C27CF910895DC
:1005D00080E0FCCFCF932DEC3CEC4CE45FE36091EA
:1005E000E9027091EA028091EB029091EC020E9484
:1005F000680C18168CF4C1E02DEC3CEC4CE45FE385
:100600006091ED027091EE028091EF029091F00204
:100610000E94680C18160CF0C0E08C2FCF91089542
:10062000FC0101900020E9F73197AF01481B590BFD
:10063000BC018FE093E00C94B401CF93DF93FC01F5
:1006400044815581608171818FE093E00E94B40103
:10065000EC0189E191E00E9410038C0F9D1FDF9156
:10066000CF910895FC0180819181009711F00C9445
:100670000F0D0895CF92DF92EF92FF920F931F9389
:10068000CF93DF93CDB7DEB7A1970FB6F894DEBF57
:100690000FBECDBF7C01CB01BA01F70111821082E0
:1006A00013821282158214828E010F5F1F4F23E086
:1006B00045E00E944B086C01F70180819181C114D3
:1006C000D10469F1F60101900020E9F731978F011B
:1006D0000C191D09009731F0F70122813381201791
:1006E000310790F4B8016F5F7F4F0E94980DF701BA
:1006F000009799F09183808313830283248135814D
:10070000232B11F4FC011082F70115830483B60139
:10071000808191810E945E0E0DC080819181009741
:1007200011F00E940F0DF7011182108215821482C0
:1007300013821282A1960FB6F894DEBF0FBECDBF12
:10074000DF91CF911F910F91FF90EF90DF90CF90AD
:1007500008951F920F920FB60F9211242F933F937B
:100760008F939F93AF93BF9380910B0390910C0352
:10077000A0910D03B0910E0330910A0323E0230FE3
:100780002D3758F50196A11DB11D20930A038093C2
:100790000B0390930C03A0930D03B0930E03809171
:1007A000060390910703A0910803B09109030196F5
:1007B000A11DB11D8093060390930703A093080326
:1007C000B0930903BF91AF919F918F913F912F916A
:1007D0000F900FBE0F901F90189526E8230F0296DA
:1007E000A11DB11DD2CF1F920F920FB60F921124EF
:1007F0002F933F934F935F936F937F938F939F9329
:10080000AF93BF93EF93FF938FE093E00E94320288
:10081000FF91EF91BF91AF919F918F917F916F91D8
:100820005F914F913F912F910F900FBE0F901F90AE
:1008300018951F920F920FB60F9211242F938F933A
:100840009F93EF93FF93E0911F03F091200380812A
:10085000E0912503F091260382FD1BC090818091D9
:1008600028038F5F8F7320912903821741F0E09155
:100870002803F0E0E15FFC4F958F80932803FF9100
:10088000EF919F918F912F910F900FBE0F901F901E
:1008900018958081F4CF1F920F920FB60F921124FA
:1008A0008F929F92AF92BF92CF92DF92EF92FF9280
:1008B0000F931F932F933F934F935F936F937F9368
:1008C0008F939F93AF93BF93CF93DF93EF93FF9358
:1008D0008EE00E945101BC01990F880B990B0E9478
:1008E000A20A20E030E048E452E40E94F60B4B01FB
:1008F0005C01C091E202D091E3022091E9023091C3
:10090000EA024091EB025091EC020E948A0B8E01A8
:10091000000F111F000F111F9801265E3D4F790136
:10092000F90120813181428153810E94890B6093BA
:10093000E9027093EA028093EB029093EC02F701D4
:1009400080829182A282B38280E10E945101BC0127
:10095000990F880B990B0E94A20A20E030E048E42E
:1009600052E40E94F60B6B017C012091ED02309164
:10097000EE024091EF025091F0020E948A0B0E5A53
:100980001E4FF80120813181428153810E94890BE1
:100990006093ED027093EE028093EF029093F00269
:1009A000F801C082D182E282F3822196C233D1055E
:1009B00009F1D093E302C093E202FF91EF91DF913E
:1009C000CF91BF91AF919F918F917F916F915F91E7
:1009D0004F913F912F911F910F91FF90EF90DF90DA
:1009E000CF90BF90AF909F908F900F900FBE0F90C1
:1009F0001F9018951092E3021092E202DECF1F9230
:100A00000F920FB60F9211242F933F934F935F9342
:100A10006F937F938F939F93AF93BF93CF93EF93F6
:100A2000FF9380910403882341F10E94A801C091A3
:100A300000016C2F88E00E947A0181E0C827C093F2
:100A400000010E94A80160934E0170934F018093B2
:100A5000500190935101FF91EF91CF91BF91AF91D0
:100A60009F918F917F916F915F914F913F912F91C6
:100A70000F900FBE0F901F90189560E088E00E94C5
:100A80007A01E9CFEFE0F3E01382128288EE93E07F
:100A9000A0E0B0E084839583A683B7838BE091E0E8
:100AA0009183808385EC90E09587848784EC90E047
:100AB0009787868780EC90E0918B808B81EC90E02B
:100AC000938B828B82EC90E0958B848B86EC90E00C
:100AD000978B868B118E128E138E148E0C94A80118
:100AE000CF93DF93CDB7DEB766970FB6F894DEBF2E
:100AF0000FBECDBF789484B5826084BD84B581601B
:100B000084BD85B5826085BD85B5816085BD8091D8
:100B10006E00816080936E00109281008091810050
:100B20008260809381008091810081608093810048
:100B3000809180008160809380008091B10084600A
:100B40008093B1008091B00081608093B00080916B
:100B50007A00846080937A0080917A00826080932A
:100B60007A0080917A00816080937A0080917A0087
:100B7000806880937A001092C100E0911F03F09189
:100B8000200312E01083E0911B03F0911C031082FC
:100B9000E0911D03F0911E0380E1808310922703F2
:100BA000E0912303F091240386E08083E091210308
:100BB000F0912203808180618083E0912103F09194
:100BC0002203808188608083E0912103F0912203D9
:100BD000808180688083E0912103F09122038081ED
:100BE0008F7D80838DE00E94090188E00E940901C9
:100BF00089E00E94090160E089E00E947A0160E0DA
:100C00008DE00E947A0160E088E00E947A01F89409
:100C10001092B0001092B1001092B2008CEA809352
:100C2000B3008091B00082608093B0008091B100E9
:100C300087608093B1008091700082608093700023
:100C40001092800010928100109285001092840012
:100C500082E19AE7909389008093880088E08093EE
:100C600081008091810083608093810010936F00E8
:100C7000789400E010E00E94A8010E94C10261E0A7
:100C8000811101C060E089E00E947A010E94EA02BD
:100C9000882309F4D0C08091E8028111AFC081E0BF
:100CA0008093E8020E94A8016093E4027093E50239
:100CB0008093E6029093E7021B8A1C8A1D8A1E8A93
:100CC0001F86188A198A1A8A1B861C861D861E860C
:100CD0001F82188619861A86F0900503F110B2C09B
:100CE0002DEC3CEC4CE45FE36091E9027091EA0288
:100CF0008091EB029091EC020E94680C18160CF4A3
:100D0000A1C02DEC3CEC4CE45FE36091ED027091EE
:100D1000EE028091EF029091F0020E94680C18168A
:100D20000CF090C01092040380910303882309F40F
:100D300042C0109203030E94A801C090FE02D0900E
:100D4000FF02E0900003F09001036C197D098E0909
:100D50009F096F83788789879A876F8178858985CE
:100D60009A850E94A00A20E030E04AE754E40E94FD
:100D7000F60BAB01BC01CE0101960E943A03CE01F5
:100D800001960E941D03CE0101960E9432038F81BD
:100D90009885A985BA8589389341A105B10558F48C
:100DA00081E0809304038CE191E00E94100389E1CB
:100DB00091E00E941003109202031092F902109227
:100DC000030381E08093050384E291E00E94100315
:100DD0000E94A8016093FA027093FB028093FC02C8
:100DE0009093FD020115110509F445CF0E941E02E2
:100DF000882309F440CF0E9400003DCF0E94A80143
:100E0000C090E402D090E502E090E602F090E702A4
:100E10006C197D098E099F090E94A00A20E030E02C
:100E200040E251E40E94680C87FD46CF61E08DE00E
:100E30000E947A0141CF60E08DE00E947A01109219
:100E4000E8023ACFE0900203E11006C0FF2021F053
:100E50000E94EA02811173C0F090F902F110B9C04A
:100E6000EE2009F4B6C02DEC3CEC4CE45FE360915D
:100E7000E9027091EA028091EB029091EC020E94EB
:100E8000680C18160CF0A5C02DEC3CEC4CE45FE3AC
:100E90006091ED027091EE028091EF029091F0026C
:100EA0000E94680C18160CF494C0109202030E9461
:100EB000A801C090F502D090F602E090F702F09001
:100EC000F8026C197D098E099F096F87788B898BD1
:100ED0009A8B6F85788989899A890E94A00A20E077
:100EE00030E04AE754E40E94F60BAB01BC01CE01AE
:100EF00001960E943A03CE0101960E941D03CE0185
:100F000001960E9432038F859889A989BA89813117
:100F10009742A105B10508F065CF81E08093F90201
:100F200086E391E00E9410030E94A8016093F10201
:100F30007093F2028093F3029093F40253CF1092D5
:100F400005030E94A801C090FA02D090FB02E09035
:100F5000FC02F090FD026C197D098E099F096B8BD4
:100F60007C8B8D8B9E8B6B897C898D899E890E9461
:100F7000A00A20E030E04AE754E40E94F60BAB01FF
:100F8000BC01CE0101960E943A03CE0101960E9457
:100F90001D03CE0101960E9432038B899C89AD8985
:100FA000BE8981319742A105B10508F01BCF81E0D0
:100FB0008093020380E391E00E9410030E94A80145
:100FC0006093F5027093F6028093F7029093F80213
:100FD00009CF80910303811106C0FF2021F00E94F8
:100FE000EA0281110EC00E94C102882309F4FACEE0
:100FF00010920503109202031092F902109203035B
:10100000F1CE1092F9020E94A801C090F102D09096
:10101000F202E090F302F090F4026C197D098E095F
:101020009F096B877C878D879E876B857C858D85E7
:101030009E850E94A00A20E030E04AE754E40E9426
:10104000F60BAB01BC01CE0101960E943A03CE0122
:1010500001960E941D03CE0101960E9432038B85EA
:101060009C85AD85BE8581319742A105B10508F00B
:10107000B9CE81E08093030383E491E00E941003E2
:101080000E94A8016093FE027093FF028093000308
:1010900090930103A7CEEF920F931F93CF93DF930B
:1010A000E80134E047FD34E1042E000C550B57FFF6
:1010B00003C0519541955109E32E022F242FAE0113
:1010C0000E946908CE01DF91CF911F910F91EF909F
:1010D0000895A9E0B0E0EFE6F8E00C94580B6A013F
:1010E000F22EB02E102FFBE3AF2EA01608F41BE358
:1010F0001F5F012F27E0AE014F5F5F4F0E94C809BD
:10110000BC018981982F9970913009F43FC09BE20E
:10111000E1FC04C09E2D9170E0FC3AC05E2D507140
:10112000E82FE87083FF46C084E0911101C083E09E
:10113000EF2DE81B8F1508F0E0E0D6018E2F20E29E
:10114000552351F1992329F0D6019C93C6010196AC
:101150006C0196012D5F3F4FE2FE24C08EE4D60164
:101160008C9391E411969C93119712968C93D901CC
:101170008E2F90E281111BC0E20FF32FF11D108220
:101180008EEF9FEF2996ECE00C94740B9DE2C6CF96
:1011900090E2C4CF2D9381508111FCCFCE0ED11C93
:1011A000E0E0D0CF8EE6D6018C9391E6DBCF9D9325
:1011B0008150E0CF482F447082FF3DC084E0911100
:1011C00001C083E08F1510F4EF2DE81BD6018E2FA0
:1011D00020E2552309F1992329F0D6019C93C601F9
:1011E00001966C0196012D5F3F4FE2FE1BC089E422
:1011F000D6018C938EE411968C93119786E4129607
:101200008C93D9018E2F90E2882309F4B5CF9D935A
:101210008150FACF2D9381508111FCCFCE0ED11C7D
:10122000E0E0D9CF89E6D6018C938EE611968C93B7
:10123000119786E6E4CF9B0177FF02C030E020E003
:10124000A1E0B0E0911102C0B0E0A0E0F901319658
:10125000AE0FBF1F8B2C912CBB2009F461C0540131
:10126000EFEFAE1ABE0AAA0DBB1DFA161B0619F047
:1012700014F04F2D4A1B511188C0E3FC59C0760170
:10128000A42FB0E2A1114FC0C40ED11C992309F4C0
:101290005BC040E0D6011196F60190836D015523A5
:1012A00009F448C0012F060F9A81582F507184FF0E
:1012B00003C0913309F4015010160CF047C00930F7
:1012C00008F008E0EEE2FE2E5B01A01AB1088501ED
:1012D0009194819491082F3F320729F4D601FC9212
:1012E000F60131966F016217730794F10217130725
:1012F0007CF5DB01A21BB30BAA24A394B12CAC0E8A
:10130000BD1EAA0DBB1D11968C9121503109D6012D
:10131000119628153905F4F0F60180836D01DBCFB5
:10132000B12CA12CA0CFF701B1937F01A150AACF7E
:101330009111B0CFD601942F50E302C05D9391502C
:101340009111FCCFC40ED11C40E0ACCF01E0BACF6C
:1013500080E3DBCF6217730731F4963388F495335B
:1013600011F4552369F0F6018083FD01842F90E28A
:10137000811108C0A40FB11D1C9290E080E002CF43
:1013800081E3F1CF91938150F3CF911183CF8ACF35
:10139000283008F027E03327DA01990F311D87FD47
:1013A000916000966105710539F432602E5F3D93BE
:1013B00030E32A95E1F708959F3F30F080387105BA
:1013C000610509F03C5F3C5F3D93913008F0806817
:1013D000911DDF93CF931F930F93FF92EF92192FDD
:1013E000987F9695E92F96959695E90FFF27EE53EE
:1013F000FF4F99273327EE24FF24A701E70105902B
:101400000894079428F4360FE71EF81E491F511D53
:10141000660F771F881F991F0694A1F70590079400
:1014200028F4E70EF81E491F561FC11D770F881FAD
:10143000991F661F0694A1F70590079428F4F80EEB
:10144000491F561FC71FD11D880F991F661F771F81
:101450000694A1F70590079420F4490F561FC71F63
:10146000D81F990F661F771F881F0694A9F78491CC
:101470001095177041F0D695C79557954795F794F5
:10148000E7941A95C1F7E8E6F0E068941590159195
:1014900035916591959105907FE27395E118F10A78
:1014A000430B560BC90BD009C0F7E10CF11E431FCB
:1014B000561FC91FD01D7EF4703311F48A95E6CFF4
:1014C000E894015030F0080F0AF40027021708F4DE
:1014D000202F2395022F7A3328F079E37D932A95E4
:1014E000E9F710C07D932A9589F60694979567953C
:1014F000379517951794E118F10A430B560BC90B52
:10150000D00998F023957E9173957A3308F070E3B3
:101510007C932013B8F77E9170617D9330F08395B2
:1015200071E37D9370E32A95E1F71124EF90FF902A
:101530000F911F91CF91DF91992787FD9095089585
:10154000E89409C097FB3EF490958095709561955D
:101550007F4F8F4F9F4F9923A9F0F92F96E9BB2713
:101560009395F695879577956795B795F111F8CF8F
:10157000FAF4BB0F11F460FF1BC06F5F7F4F8F4FFA
:101580009F4F16C0882311F096E911C0772321F0F0
:101590009EE8872F762F05C0662371F096E8862F88
:1015A00070E060E02AF09A95660F771F881FDAF7DF
:1015B000880F9695879597F90895990F0008550F0C
:1015C000AA0BE0E8FEEF16161706E807F907C0F0C9
:1015D00012161306E407F50798F0621B730B840BD1
:1015E000950B39F40A2661F0232B242B252B21F4AB
:1015F00008950A2609F4A140A6958FEF811D811D4B
:10160000089597F99F6780E870E060E008959FEF84
:1016100080EC089500240A94161617061806090689
:10162000089500240A941216130614060506089558
:10163000092E0394000C11F4882352F0BB0F40F4E0
:10164000BF2B11F460FF04C06F5F7F4F8F4F9F4F20
:10165000089557FD9058440F551F59F05F3F71F0A2
:101660004795880F97FB991F61F09F3F79F0879509
:101670000895121613061406551FF2CF4695F1DF92
:1016800008C0161617061806991FF1CF8695710522
:10169000610508940895E894BB2766277727CB0156
:1016A00097F908952F923F924F925F926F927F9297
:1016B0008F929F92AF92BF92CF92DF92EF92FF9262
:1016C0000F931F93CF93DF93CDB7DEB7CA1BDB0B0E
:1016D0000FB6F894DEBF0FBECDBF09942A883988B3
:1016E00048885F846E847D848C849B84AA84B984BA
:1016F000C884DF80EE80FD800C811B81AA81B981C6
:10170000CE0FD11D0FB6F894DEBF0FBECDBFED01D9
:1017100008955058BB27AA270E94A10B0C94180BC0
:101720000E940A0B38F00E94110B20F039F49F3F01
:1017300019F426F40C94070B0EF4E095E7FB0C94D7
:10174000010BE92F0E94290B58F3BA1762077307A0
:101750008407950720F079F4A6F50C944B0B0EF452
:10176000E0950B2EBA2FA02D0B01B90190010C01B1
:10177000CA01A0011124FF27591B99F0593F50F4C9
:10178000503E68F11A16F040A22F232F342F442721
:10179000585FF3CF469537952795A795F040539519
:1017A000C9F77EF41F16BA0B620B730B840BBAF0E9
:1017B0009150A1F0FF0FBB1F661F771F881FC2F754
:1017C0000EC0BA0F621F731F841F48F48795779568
:1017D0006795B795F7959E3F08F0B0CF9395880F22
:1017E00008F09927EE0F9795879508950E940A0CA7
:1017F0000C94180B0E94110B58F00E940A0B40F039
:1018000029F45F3F29F00C94010B51110C944C0BFF
:101810000C94070B0E94290B68F39923B1F355230D
:1018200091F3951B550BBB27AA27621773078407F3
:1018300038F09F5F5F4F220F331F441FAA1FA9F389
:1018400035D00E2E3AF0E0E832D091505040E69577
:10185000001CCAF72BD0FE2F29D0660F771F881FD8
:10186000BB1F261737074807AB07B0E809F0BB0BCB
:10187000802DBF01FF2793585F4F3AF09E3F5105DF
:1018800078F00C94010B0C944C0B5F3FE4F3983E02
:10189000D4F3869577956795B795F7959F5FC9F7C8
:1018A000880F911D9695879597F90895E1E0660F49
:1018B000771F881FBB1F621773078407BA0720F0C2
:1018C000621B730B840BBA0BEE1F88F7E09508952B
:1018D0000E94DD0A08F48FEF0895EE0FFF1F0590B8
:1018E000F491E02D09940F931F93CF93DF938230EF
:1018F000910510F482E090E0E091AE03F091AF0327
:1019000030E020E0B0E0A0E0309799F421153105F7
:1019100009F44AC0281B390B24303105D8F58A81D7
:101920009B816115710589F1FB0193838283FE011F
:1019300011C0408151810281138148175907E0F09D
:101940004817590799F4109761F012960C93129763
:1019500013961C933296CF01DF91CF911F910F9177
:1019600008950093AE031093AF03F4CF2115310512
:1019700051F04217530738F0A901DB019A01BD016C
:10198000DF01F801C1CFEF01F9CF9093AF0380934E
:10199000AE03CDCFFE01E20FF31F8193919322504E
:1019A000310939832883D7CF2091AC033091AD031F
:1019B000232B41F420910301309104013093AD03B6
:1019C0002093AC03209101013091020121153105D2
:1019D00041F42DB73EB74091050150910601241BFB
:1019E000350BE091AC03F091AD03E217F307A0F4DF
:1019F0002E1B3F0B2817390778F0AC014E5F5F4F65
:101A00002417350748F04E0F5F1F5093AD034093E6
:101A1000AC03819391939FCFF0E0E0E09CCFCF9314
:101A2000DF930097E9F0FC01329713821282A091B4
:101A3000AE03B091AF03ED0130E020E01097A1F4C8
:101A400020813181820F931F2091AC033091AD032F
:101A50002817390709F061C0F093AD03E093AC0398
:101A6000DF91CF910895EA01CE17DF07E8F54A81AB
:101A70005B819E0141155105B1F7E901FB83EA83C2
:101A800049915991C40FD51FEC17FD0761F480816E
:101A900091810296840F951FE90199838883828141
:101AA00093819B838A83F0E0E0E012968D919C9174
:101AB00013970097B9F52D913C911197CD0102969E
:101AC000820F931F2091AC033091AD032817390783
:101AD00039F6309751F51092AF031092AE03B093E0
:101AE000AD03A093AC03BCCFD383C28340815181AB
:101AF000840F951FC817D90761F44E5F5F4F888127
:101B00009981480F591F518340838A819B81938318
:101B100082832115310509F0B0CFF093AF03E09334
:101B2000AE039ECFFD01DC01C0CF13821282D7CF5E
:101B3000B0E0A0E0EEE9FDE00C94540B8C010097BE
:101B400051F4CB010E94730C8C01C801CDB7DEB7F4
:101B5000E0E10C94700BFC01E60FF71F9C01225092
:101B60003109E217F30708F49DC0D901CD91DC914A
:101B70001197C617D70798F0C530D10530F3CE01BD
:101B800004978617970708F3C61BD70B2297C193B4
:101B9000D1936D937C93CF010E940F0DD6CF5B0143
:101BA000AC1ABD0A4C018C0E9D1EA091AE03B091E3
:101BB000AF03512C412CF12CE12C109731F5809181
:101BC000AC039091AD038815990509F05CC04616E9
:101BD000570608F058C080910101909102010097CA
:101BE00041F48DB79EB74091050150910601841BC9
:101BF000950BE817F90708F055C0F093AD03E09393
:101C0000AC03F90171836083A0CF8D919C911197F2
:101C100012966C90129713967C901397A815B9059D
:101C200059F56C0142E0C40ED11CCA14DB0420F14A
:101C3000AC014A195B09DA011296159780F06282AD
:101C4000738251834083D9016D937C93E114F10435
:101C500071F0D7011396FC93EE93129776CF2296EC
:101C60008C0F9D1FF90191838083F301EFCFF093D7
:101C7000AF03E093AE0369CF4816590608F42C0170
:101C80007D01D3019ACFCB010E94730C7C01009798
:101C900049F0AE01B8010E94550EC8010E940F0D17
:101CA000870153CF10E000E050CFFB01DC0102C000
:101CB00001900D9241505040D8F70895FB01DC018E
:101CC00001900D920020E1F70895F894FFCF0100F4
:101CD00000B0038000000000005402B401E101A143
:101CE000021202F00104020D0A00494E5641534F00
:101CF00052004341525F315F4558495420005357C9
:101D0000415020004341525F325F454E54455220BE
:0C1D1000004341525F325F5041592000F7
:107E0000112484B714BE81FFF0D085E080938100F7
:107E100082E08093C00088E18093C10086E0809377
:107E2000C20080E18093C4008EE0C9D0259A86E02C
:107E300020E33CEF91E0309385002093840096BBD3
:107E4000B09BFECF1D9AA8958150A9F7CC24DD24C4
:107E500088248394B5E0AB2EA1E19A2EF3E0BF2EE7
:107E6000A2D0813461F49FD0082FAFD0023811F036
:107E7000013811F484E001C083E08DD089C08234E0
:107E800011F484E103C0853419F485E0A6D080C0E4
:107E9000853579F488D0E82EFF2485D0082F10E0AE
:107EA000102F00270E291F29000F111F8ED06801E7
:107EB0006FC0863521F484E090D080E0DECF843638
:107EC00009F040C070D06FD0082F6DD080E0C81688
:107ED00080E7D80618F4F601B7BEE895C0E0D1E017
:107EE00062D089930C17E1F7F0E0CF16F0E7DF06D8
:107EF00018F0F601B7BEE89568D007B600FCFDCFD4
:107F0000A601A0E0B1E02C9130E011968C91119780
:107F100090E0982F8827822B932B1296FA010C0160
:107F200087BEE89511244E5F5F4FF1E0A038BF0790
:107F300051F7F601A7BEE89507B600FCFDCF97BE46
:107F4000E89526C08437B1F42ED02DD0F82E2BD052
:107F50003CD0F601EF2C8F010F5F1F4F84911BD097
:107F6000EA94F801C1F70894C11CD11CFA94CF0C13
:107F7000D11C0EC0853739F428D08EE10CD085E9AC
:107F80000AD08FE07ACF813511F488E018D01DD067
:107F900080E101D065CF982F8091C00085FFFCCF94
:107FA0009093C60008958091C00087FFFCCF809118
:107FB000C00084FD01C0A8958091C6000895E0E648
:107FC000F0E098E1908380830895EDDF803219F02E
:107FD00088E0F5DFFFCF84E1DECF1F93182FE3DFCA
:107FE0001150E9F7F2DF1F91089580E0E8DFEE27F6
:047FF000FF270994CA
:027FFE00040479
:00000001FF
