:020000040000FA
:100000000C9462000C948A000C948A000C948A0070
:100010000C948A000C948A000C948A000C948A0038
:100020000C948A000C948A000C948A000C948A0028
:100030000C948A000C948A000C948A000C948A0018
:100040000C9437020C948A000C94A7020C94810241
:100050000C948A000C948A000C948A000C948A00F8
:100060000C948A000C948A000000000023002600F3
:10007000290000000008000201000003040700003E
:1000800000000000000000000000250028002B00F8
:1000900000000000240027002A00040404040404D3
:1000A0000404020202020202030303030303010227
:1000B00004081020408001020408102001020408F6
:1000C0001020820411241FBECFEFD8E0DEBFCDBFC9
:1000D00011E0A0E0B1E0E6E4FDE002C005900D9281
:1000E000A232B107D9F721E0A2E2B1E001C01D922E
:1000F000A83CB207E1F710E0C2E6D0E004C02197C7
:10010000FE010E949B06C136D107C9F70E94D902A1
:100110000C94A1060C940000CF93DF9390E0FC01B7
:10012000E255FF4F249186569F4FFC01849188230E
:10013000C1F090E0880F991FFC01E057FF4FC59177
:10014000D491FC01EA57FF4FA591B4919FB7F89461
:100150008881E22FE0958E2388838C91E823EC93AD
:100160009FBFDF91CF9108953FB7F8948091270109
:1001700090912801A0912901B0912A0126B5A89B50
:1001800005C02F3F19F00196A11DB11D3FBFBA2F29
:10019000A92F982F8827BC01CD01620F711D811DE9
:1001A000911D42E0660F771F881F991F4A95D1F76E
:1001B0000895AF92BF92CF92DF92EF92FF920F938A
:1001C0001F93CF93DF936C017B018B01040F151FED
:1001D000EB015E01AE18BF08C017D10759F0699155
:1001E000D601ED91FC910190F081E02DC6010995B9
:1001F000892B79F7C501DF91CF911F910F91FF9066
:10020000EF90DF90CF90BF90AF900895FC01538D99
:10021000448D252F30E0842F90E0821B930B5417E0
:1002200010F0CF96089501970895FC01918D828D6D
:10023000981761F0A28DAE0FBF2FB11D5D968C9106
:10024000928D9F5F9F73928F90E008958FEF9FEF45
:100250000895FC01918D828D981731F0828DE80F01
:10026000F11D858D90E008958FEF9FEF0895FC01BB
:10027000918D228D892F90E0805C9F4F821B910988
:100280008F73992708958BE291E00E94370121E056
:10029000892B09F420E0822F089580E090E0892BDB
:1002A00029F00E94430181110C9400000895FC0183
:1002B000A48DA80FB92FB11DA35ABF4F2C91848DC7
:1002C00090E001968F739927848FA689B7892C9324
:1002D000A089B1898C91837080648C93938D848D77
:1002E000981306C00288F389E02D80818F7D80837A
:1002F0000895EF92FF920F931F93CF93DF93EC013A
:1003000081E0888F9B8D8C8D98131AC0E889F989BC
:10031000808185FF15C09FB7F894EE89FF896083BF
:10032000E889F98980818370806480839FBF81E040
:1003300090E0DF91CF911F910F91FF90EF90089582
:10034000F62E0B8D10E00F5F1F4F0F731127E02E5D
:100350008C8D8E110CC00FB607FCFACFE889F98995
:10036000808185FFF5CFCE010E945701F1CFEB8D43
:10037000EC0FFD2FF11DE35AFF4FF0829FB7F89469
:100380000B8FEA89FB8980818062CFCFCF93DF9387
:10039000EC01888D8823B9F0AA89BB89E889F9899D
:1003A0008C9185FD03C0808186FD0DC00FB607FCD2
:1003B000F7CF8C9185FFF2CF808185FFEDCFCE0105
:1003C0000E945701E9CFDF91CF910895FC01019080
:1003D0000020E9F73197AF01481B590BBC018BE2B4
:1003E00091E00C94D9008F929F92AF92BF920F939D
:1003F0001F93CF93DF93CDB7DEB7A1970FB6F894D5
:10040000DEBF0FBECDBF19A2423008F44AE08E0114
:100410000F5D1F4F842E912CB12CA12CA5019401AE
:100420000E947906E62FB901CA01EA30F4F4E05DD2
:10043000D801EE938D01232B242B252B79F790E007
:1004400080E0109719F0CD010E94E601A1960FB649
:10045000F894DEBF0FBECDBFDF91CF911F910F91FA
:10046000BF90AF909F908F900895E95CE1CF1F926D
:100470000F920FB60F9211242F933F938F939F9358
:10048000AF93BF938091230190912401A091250106
:10049000B09126013091220123E0230F2D3758F52A
:1004A0000196A11DB11D20932201809323019093F9
:1004B0002401A0932501B0932601809127019091FA
:1004C0002801A0912901B0912A010196A11DB11D19
:1004D0008093270190932801A0932901B0932A01CA
:1004E000BF91AF919F918F913F912F910F900FBE30
:1004F0000F901F90189526E8230F0296A11DB11D9D
:10050000D2CF1F920F920FB60F9211242F933F93C9
:100510004F935F936F937F938F939F93AF93BF930B
:10052000EF93FF938BE291E00E945701FF91EF91CF
:10053000BF91AF919F918F917F916F915F914F91FB
:100540003F912F910F900FBE0F901F9018951F9203
:100550000F920FB60F9211242F938F939F93EF93C7
:10056000FF93E0913B01F0913C018081E0914101DA
:10057000F091420182FD1BC09081809144018F5F08
:100580008F7320914501821741F0E0914401F0E022
:10059000E55DFE4F958F80934401FF91EF919F9110
:1005A0008F912F910F900FBE0F901F901895808103
:1005B000F4CF789484B5826084BD84B5816084BDB5
:1005C00085B5826085BD85B5816085BD80916E00F1
:1005D000816080936E001092810080918100826022
:1005E000809381008091810081608093810080915F
:1005F00080008160809380008091B100846080934E
:10060000B1008091B00081608093B00080917A0049
:10061000846080937A0080917A00826080937A006F
:1006200080917A00816080937A0080917A0080685E
:1006300080937A001092C100E0913B01F0913C015F
:1006400082E08083E0913701F09138011082E091DF
:100650003901F0913A0180E1808310924301E091E9
:100660003F01F091400186E08083E0913D01F091EF
:100670003E01808180618083E0913D01F0913E01E7
:10068000808188608083E0913D01F0913E0180810E
:1006900080688083E0913D01F0913E0180818F7DF3
:1006A00080838EE00E948C0080E10E948C0060E0DC
:1006B00070E0CB016B017C01F7FAF094F7F8F0944D
:1006C0009B01AC010E941C051601870187FD04C037
:1006D000212C312C00E010E0812C912C5401C0E041
:1006E000D0E0E0E8F0E08491ECEBF0E09491E8EA0F
:1006F000F0E094919923B1F0882359F0833009F404
:100700005EC008F051C0813009F45FC0823009F446
:1007100060C0E92FF0E0EE0FFF1FE859FF4FA591F1
:10072000B4918C9160E070E0CB019B01AC010E9420
:100730007406882309F45AC082E191E00E94E60120
:100740008EE191E00E94E6010E94B4002B013C0181
:1007500084EFC82EDD24D394E12CF12C0E94B40048
:100760006419750986099709683E734081059105EA
:10077000A8F3F1E0CF1AD108E108F10828EE420E03
:1007800023E0521E611C711CC114D104E104F10468
:1007900029F7209709F4A5CF0E944301882309F483
:1007A000A0CF0E9400009DCF8730B1F08830D1F0FB
:1007B000843009F0AECF809180008F7D03C080919E
:1007C00080008F7780938000A4CF84B58F7784BD1D
:1007D000A0CF84B58F7DFBCF8091B0008F778093C1
:1007E000B00097CF8091B0008F7DF9CF2FEF3FEF12
:1007F0004FE75FE7C501B4010E94740681110DC087
:100800002FEF3FEF4FE75FE7C501B4010E941C05E2
:1008100018161CF486E191E091CF2FEF3FEF4FE7E0
:100820005FE460E070E0CB010E94020618161CF441
:100830008AE191E083CF2FEF3FEF4FE75FEC60E07D
:1008400070E0CB010E941C0587FDF2CF20E030E074
:10085000A901CA01B9010E941C0587FF05C06DE20C
:100860008BE291E00E9479012AE037ED43EA5BE3F5
:10087000B101C8010E94B0042B013C010E94210576
:100880006B017C010E9450059B01AC01C301B201C8
:100890000E94AF042B013C014AE0C701B6010E944F
:1008A000F3016EE28BE291E00E94790120E030E0FA
:1008B00040E251E4C301B2010E9407062B013C0152
:1008C0000E9421056B01F12CE12C4AE0C701B60121
:1008D0000E94F301C701B6010E9450059B01AC01C3
:1008E000C301B2010E94AF0420E030E040E251E4D5
:1008F0000E9407060E94210590E080E04AE00E94E5
:10090000F3011ECFEBE2F1E01382128288EE93E056
:10091000A0E0B0E084839583A683B78384E091E070
:100920009183808385EC90E09587848784EC90E0C8
:100930009787868780EC90E0918B808B81EC90E0AC
:10094000938B828B82EC90E0958B848B86EC90E08D
:10095000978B868B118E128E138E148E089550589D
:10096000BB27AA270E94C7040C94C8050E94BA0599
:1009700038F00E94C10520F039F49F3F19F426F4A5
:100980000C94B7050EF4E095E7FB0C94B105E92F44
:100990000E94D90558F3BA176207730784079507B1
:1009A00020F079F4A6F50C94FB050EF4E0950B2EDF
:1009B000BA2FA02D0B01B90190010C01CA01A001B1
:1009C0001124FF27591B99F0593F50F4503E68F10C
:1009D0001A16F040A22F232F342F4427585FF3CF4D
:1009E000469537952795A795F0405395C9F77EF41E
:1009F0001F16BA0B620B730B840BBAF09150A1F067
:100A0000FF0FBB1F661F771F881FC2F70EC0BA0FEC
:100A1000621F731F841F48F4879577956795B79574
:100A2000F7959E3F08F0B0CF9395880F08F099276F
:100A3000EE0F9795879508950E948D0508F481E043
:100A400008950E94E10588F09F5798F0B92F9927E3
:100A5000B751B0F0E1F0660F771F881F991F1AF0A9
:100A6000BA95C9F714C0B13091F00E94FB05B1E00E
:100A700008950C94FB05672F782F8827B85F39F00D
:100A8000B93FCCF3869577956795B395D9F73EF442
:100A900090958095709561957F4F8F4F9F4F0895EA
:100AA000E89409C097FB3EF4909580957095619508
:100AB0007F4F8F4F9F4F9923A9F0F92F96E9BB27BE
:100AC0009395F695879577956795B795F111F8CF3A
:100AD000FAF4BB0F11F460FF1BC06F5F7F4F8F4FA5
:100AE0009F4F16C0882311F096E911C0772321F09B
:100AF0009EE8872F762F05C0662371F096E8862F33
:100B000070E060E02AF09A95660F771F881FDAF789
:100B1000880F9695879597F90895990F0008550FB6
:100B2000AA0BE0E8FEEF16161706E807F907C0F073
:100B300012161306E407F50798F0621B730B840B7B
:100B4000950B39F40A2661F0232B242B252B21F455
:100B500008950A2609F4A140A6958FEF811D811DF5
:100B6000089597F99F6780E870E060E008959FEF2F
:100B700080EC089500240A94161617061806090634
:100B8000089500240A941216130614060506089503
:100B9000092E0394000C11F4882352F0BB0F40F48B
:100BA000BF2B11F460FF04C06F5F7F4F8F4F9F4FCB
:100BB000089557FD9058440F551F59F05F3F71F04D
:100BC0004795880F97FB991F61F09F3F79F08795B4
:100BD0000895121613061406551FF2CF4695F1DF3D
:100BE00008C0161617061806991FF1CF86957105CD
:100BF000610508940895E894BB2766277727CB0101
:100C000097F908950E948D0508F48FEF08950E94CA
:100C10001A060C94C8050E94BA0538F00E94C10556
:100C200020F0952311F00C94B1050C94B705112414
:100C30000C94FC050E94D90570F3959FC1F3950FA4
:100C400050E0551F629FF001729FBB27F00DB11D50
:100C5000639FAA27F00DB11DAA1F649F6627B00DE0
:100C6000A11D661F829F2227B00DA11D621F739FC9
:100C7000B00DA11D621F839FA00D611D221F749FD7
:100C80003327A00D611D231F849F600D211D822F1E
:100C9000762F6A2F11249F5750409AF0F1F0882345
:100CA0004AF0EE0FFF1FBB1F661F771F881F915072
:100CB0005040A9F79E3F510580F00C94B1050C946B
:100CC000FC055F3FE4F3983ED4F3869577956795EE
:100CD000B795F795E7959F5FC1F7FE2B880F911D9C
:100CE0009695879597F908950E948D05880B990B25
:100CF0000895A1E21A2EAA1BBB1BFD010DC0AA1F5D
:100D0000BB1FEE1FFF1FA217B307E407F50720F074
:100D1000A21BB30BE40BF50B661F771F881F991FEF
:100D20001A9469F760957095809590959B01AC0138
:100D3000BD01CF010895EE0FFF1F0590F491E02D46
:100D40000994F894FFCF000000007901D900060152
:100D5000C6013701150129016E616E00696E6600DA
:080D60006F7666000D0A000029
:107E0000112484B714BE81FFF0D085E080938100F7
:107E100082E08093C00088E18093C10086E0809377
:107E2000C20080E18093C4008EE0C9D0259A86E02C
:107E300020E33CEF91E0309385002093840096BBD3
:107E4000B09BFECF1D9AA8958150A9F7CC24DD24C4
:107E500088248394B5E0AB2EA1E19A2EF3E0BF2EE7
:107E6000A2D0813461F49FD0082FAFD0023811F036
:107E7000013811F484E001C083E08DD089C08234E0
:107E800011F484E103C0853419F485E0A6D080C0E4
:107E9000853579F488D0E82EFF2485D0082F10E0AE
:107EA000102F00270E291F29000F111F8ED06801E7
:107EB0006FC0863521F484E090D080E0DECF843638
:107EC00009F040C070D06FD0082F6DD080E0C81688
:107ED00080E7D80618F4F601B7BEE895C0E0D1E017
:107EE00062D089930C17E1F7F0E0CF16F0E7DF06D8
:107EF00018F0F601B7BEE89568D007B600FCFDCFD4
:107F0000A601A0E0B1E02C9130E011968C91119780
:107F100090E0982F8827822B932B1296FA010C0160
:107F200087BEE89511244E5F5F4FF1E0A038BF0790
:107F300051F7F601A7BEE89507B600FCFDCF97BE46
:107F4000E89526C08437B1F42ED02DD0F82E2BD052
:107F50003CD0F601EF2C8F010F5F1F4F84911BD097
:107F6000EA94F801C1F70894C11CD11CFA94CF0C13
:107F7000D11C0EC0853739F428D08EE10CD085E9AC
:107F80000AD08FE07ACF813511F488E018D01DD067
:107F900080E101D065CF982F8091C00085FFFCCF94
:107FA0009093C60008958091C00087FFFCCF809118
:107FB000C00084FD01C0A8958091C6000895E0E648
:107FC000F0E098E1908380830895EDDF803219F02E
:107FD00088E0F5DFFFCF84E1DECF1F93182FE3DFCA
:107FE0001150E9F7F2DF1F91089580E0E8DFEE27F6
:047FF000FF270994CA
:027FFE00040479
:00000001FF
