:020000040000FA
:100000000C9462000C948A000C948A000C948A0070
:100010000C948A000C948A000C948A000C946E0450
:100020000C948A000C948A000C948A000C9432057B
:100030000C948A000C948A000C948A000C948A0018
:100040000C94CC030C948A000C943C040C9416047D
:100050000C948A000C948A000C948A000C948A00F8
:100060000C948A000C948A000000000023002600F3
:10007000290000000008000201000003040700003E
:1000800000000000000000000000250028002B00F8
:1000900000000000240027002A00040404040404D3
:1000A0000404020202020202030303030303010227
:1000B00004081020408001020408102001020408F6
:1000C0001020580511241FBECFEFD8E0DEBFCDBFF2
:1000D00011E0A0E0B1E0EEEFF1E102C005900D9279
:1000E000A232B107D9F723E0A2E2B1E001C01D922C
:1000F000A636B207E1F710E0C2E6D0E004C02197CF
:10010000FE010E94F708C136D107C9F70E948F058A
:100110000C94FD080C94000090E0FC01E255FF4FA8
:10012000249186569F4FFC018491882399F090E09A
:10013000880F991FFC01E057FF4FA591B491FC0176
:10014000EA57FF4F859194918FB7F894EC91E22B89
:10015000EC938FBF0895833081F028F4813099F0BB
:100160008230A9F008958730A9F08830C9F0843032
:10017000B1F4809180008F7D03C0809180008F77E3
:1001800080938000089584B58F7784BD089584B5E9
:100190008F7DFBCF8091B0008F778093B000089562
:1001A0008091B0008F7DF9CFCF93DF93282F30E07F
:1001B000F901EE58FF4F8491F901E255FF4FD491B8
:1001C000F901E656FF4FC491CC23A1F081110E94A2
:1001D000AB00EC2FF0E0EE0FFF1FE859FF4FA591A9
:1001E000B491EC91ED2381E090E009F480E0DF919F
:1001F000CF91089580E090E0FACF1F93CF93DF93E3
:10020000282F30E0F901EE58FF4F8491F901E255B3
:10021000FF4FD491F901E656FF4FC491CC23A9F0CA
:10022000162F81110E94AB00EC2FF0E0EE0FFF1FA4
:10023000EA57FF4FA591B4918FB7F894EC91111143
:1002400008C0D095DE23DC938FBFDF91CF911F9143
:100250000895DE2BF8CF3FB7F8948091C1029091BA
:10026000C202A091C302B091C40226B5A89B05C0EA
:100270002F3F19F00196A11DB11D3FBFBA2FA92F25
:10028000982F8827BC01CD01620F711D811D911D22
:1002900042E0660F771F881F991F4A95D1F708958E
:1002A0008F929F92AF92BF92CF92DF92EF92FF9286
:1002B0000E942B014B015C0184EFC82EDD24D394F6
:1002C000E12CF12C0E942B01681979098A099B09FC
:1002D000683E734081059105A8F321E0C21AD10858
:1002E000E108F10888EE880E83E0981EA11CB11C7D
:1002F000C114D104E104F10429F7FF90EF90DF90DD
:10030000CF90BF90AF909F908F9008952FB7F894A3
:100310006091BD027091BE028091BF029091C002B7
:100320002FBF0895AF92BF92CF92DF92EF92FF92CC
:100330000F931F93CF93DF936C017B018B01040F0D
:10034000151FEB015E01AE18BF08C017D10759F0A9
:100350006991D601ED91FC910190F081E02DC601EB
:100360000995892B79F7C501DF91CF911F910F91E5
:10037000FF90EF90DF90CF90BF90AF900895FC0179
:10038000538D448D252F30E0842F90E0821B930BFA
:10039000541710F0CF96089501970895FC01918DA0
:1003A000828D981761F0A28DAE0FBF2FB11D5D96A3
:1003B0008C91928D9F5F9F73928F90E008958FEF45
:1003C0009FEF0895FC01918D828D981731F0828DF9
:1003D000E80FF11D858D90E008958FEF9FEF089550
:1003E000FC01918D228D892F90E0805C9F4F821BB4
:1003F00091098F739927089585EC92E00E94F0018E
:1004000021E0892B09F420E0822F089580E090E01C
:10041000892B29F00E94FC0181110C9400000895A1
:10042000FC01A48DA80FB92FB11DA35ABF4F2C9169
:10043000848D90E001968F739927848FA689B78960
:100440002C93A089B1898C91837080648C93938D57
:10045000848D981306C00288F389E02D80818F7DFA
:1004600080830895EF92FF920F931F93CF93DF93B2
:10047000EC0181E0888F9B8D8C8D98131AC0E889E0
:10048000F989808185FF15C09FB7F894EE89FF89AF
:100490006083E889F98980818370806480839FBF4D
:1004A00081E090E0DF91CF911F910F91FF90EF904D
:1004B0000895F62E0B8D10E00F5F1F4F0F7311275D
:1004C000E02E8C8D8E110CC00FB607FCFACFE88998
:1004D000F989808185FFF5CFCE010E941002F1CF0E
:1004E000EB8DEC0FFD2FF11DE35AFF4FF0829FB70C
:1004F000F8940B8FEA89FB8980818062CFCFCF93FC
:10050000DF93EC01888D8823B9F0AA89BB89E8893B
:10051000F9898C9185FD03C0808186FD0DC00FB6E1
:1005200007FCF7CF8C9185FFF2CF808185FFEDCF5F
:10053000CE010E941002E9CFDF91CF910895FC0116
:1005400001900020E9F73197AF01481B590BBC011E
:1005500085EC92E00C9492018F929F92AF92BF92A1
:100560000F931F93CF93DF93CDB7DEB7A1970FB64D
:10057000F894DEBF0FBECDBF19A2423008F44AE0A6
:100580008E010F5D1F4F842E912CB12CA12CA50143
:1005900094010E94D508E62FB901CA01EA30F4F4AB
:1005A000E05DD801EE938D01232B242B252B79F7C9
:1005B00090E080E0109719F0CD010E949F02A19673
:1005C0000FB6F894DEBF0FBECDBFDF91CF911F9164
:1005D0000F91BF90AF909F908F900895E95CE1CF0D
:1005E0004F925F926F927F928F929F92AF92BF9243
:1005F000CF92DF92EF92FF920F931F93CF936B01F5
:100600007C01742EAC019B010E94D008882399F0D4
:1006100082E191E0CF911F910F91FF90EF90DF90D9
:10062000CF90BF90AF909F908F907F906F905F9092
:100630004F900C949F0246015701E894B7F82FEFB2
:100640003FEF4FE75FE7C501B4010E94D008811179
:100650000DC02FEF3FEF4FE75FE7C501B4010E94E8
:10066000060718161CF486E191E0D4CF2FEF3FEF78
:100670004FE75FE4C701B6010E945E0818161CF43C
:100680008AE191E0C7CF2FEF3FEF4FE75FECC70163
:10069000B6010E94060787FDF3CF20E030E0A901F4
:1006A000C701B6010E94060710E000E087FF0AC0FC
:1006B0006DE285EC92E00E9432028C01F7FAF09430
:1006C000F7F8F094C0E060E070E080E09FE37C1613
:1006D00041F020E030E040E251E40E940B07CF5FA0
:1006E000F6CFA70196010E949A062B013C010E94B9
:1006F0007D074B015C014AE00E94AC027C01E00EE8
:10070000F11ECC23C1F1C501B4010E94AC079B01CD
:10071000AC01C301B2010E9499064B015C016EE27B
:1007200085EC92E00E943202E80EF91EC15018F1E9
:1007300020E030E040E251E4C501B4010E946308CA
:100740002B013C010E947D074B01B12CA12C4AE0FA
:10075000C501B4010E94AC02E80EF91EC501B40146
:100760000E94AC079B01AC01C301B2010E94990633
:100770004B015C01DBCFC701CF911F910F91FF901F
:10078000EF90DF90CF90BF90AF909F908F907F9031
:100790006F905F904F9008951F920F920FB60F9237
:1007A00011242F933F938F939F93AF93BF93809187
:1007B000BD029091BE02A091BF02B091C0023091E3
:1007C000BC0223E0230F2D3758F50196A11DB11D62
:1007D0002093BC028093BD029093BE02A093BF02FF
:1007E000B093C0028091C1029091C202A091C30255
:1007F000B091C4020196A11DB11D8093C1029093D6
:10080000C202A093C302B093C402BF91AF919F9163
:100810008F913F912F910F900FBE0F901F901895C1
:1008200026E8230F0296A11DB11DD2CF1F920F9271
:100830000FB60F9211242F933F934F935F936F93B3
:100840007F938F939F93AF93BF93EF93FF9385EC29
:1008500092E00E941002FF91EF91BF91AF919F91A2
:100860008F917F916F915F914F913F912F910F9059
:100870000FBE0F901F9018951F920F920FB60F92F8
:1008800011242F938F939F93EF93FF93E091D502C1
:10089000F091D6028081E091DB02F091DC0282FDD2
:1008A0001BC090818091DE028F5F8F732091DF02E9
:1008B000821741F0E091DE02F0E0EB53FD4F958F9F
:1008C0008093DE02FF91EF919F918F912F910F9076
:1008D0000FBE0F901F9018958081F4CF1F920F923A
:1008E0000FB60F921124CF92DF92EF92FF920F93E7
:1008F0001F932F933F934F935F936F937F938F93A8
:100900009F93AF93BF93CF93DF93EF93FF938EE0CB
:100910000E94D400BC01990F880B990B0E94AE076E
:1009200020E030E048E452E40E940B076B017C01B8
:1009300042E00E94F0028EE191E00E949F020E943C
:100940005001C091B602D091B7022091B802309107
:10095000B9024091BA025091BB02C701B6010E9490
:100960009A06CC0FDD1FCC0FDD1FC251DE4F288150
:1009700039814A815B810E9499066093B802709325
:10098000B9028093BA029093BB02C882D982EA82EC
:10099000FB8242E00E94F0028EE191E00E949F0201
:1009A0000E94500180E10E94D400BC01990F880B85
:1009B000990B0E94AE0720E030E048E452E40E9428
:1009C0000B076B017C01C091B602D091B702209158
:1009D000EA013091EB014091EC015091ED010E9450
:1009E0009A068E01000F111F000F111F0E5D1E4F82
:1009F000F80120813181428153810E9499066093E0
:100A0000EA017093EB018093EC019093ED01F80102
:100A1000C082D182E282F3822196C233D105E9F00D
:100A2000D093B702C093B602FF91EF91DF91CF91BF
:100A3000BF91AF919F918F917F916F915F914F91F6
:100A40003F912F911F910F91FF90EF90DF90CF90EA
:100A50000F900FBE0F901F9018951092B702109232
:100A6000B602E2CF1F920F920FB60F9211242F936E
:100A70003F934F935F936F937F938F939F93AF9326
:100A8000BF93EF93FF9360E088E00E94FD00FF9129
:100A9000EF91BF91AF919F918F917F916F915F91F6
:100AA0004F913F912F910F900FBE0F901F9018956F
:100AB000E5ECF2E01382128288EE93E0A0E0B0E071
:100AC00084839583A683B78384E091E091838083B8
:100AD00085EC90E09587848784EC90E09787868703
:100AE00080EC90E0918B808B81EC90E0938B828BFB
:100AF00082EC90E0958B848B86EC90E0978B868BD4
:100B0000118E128E138E148E0E94860160936203E2
:100B10007093630380936403909365030895CF9368
:100B2000DF93CDB7DEB760970FB6F894DEBF0FBE88
:100B3000CDBF789484B5826084BD84B5816084BD66
:100B400085B5826085BD85B5816085BD80916E006B
:100B5000816080936E00109281008091810082609C
:100B600080938100809181008160809381008091D9
:100B700080008160809380008091B10084608093C8
:100B8000B1008091B00081608093B00080917A00C4
:100B9000846080937A0080917A00826080937A00EA
:100BA00080917A00816080937A0080917A008068D9
:100BB00080937A001092C100E091D502F091D602A4
:100BC00012E01083E091D102F091D2021082E09104
:100BD000D302F091D40280E180831092DD02E09193
:100BE000D902F091DA0286E08083E091D702F09199
:100BF000D802808180618083E091D702F091D80291
:100C0000808188608083E091D702F091D802808152
:100C100080688083E091D702F091D80280818F7D37
:100C200080838DE00E948C0088E00E948C0089E027
:100C30000E948C0060E089E00E94FD0060E08DE091
:100C40000E94FD0060E088E00E94FD00F894109290
:100C5000B0001092B1001092B2008CEA8093B30001
:100C60008091B00082608093B0008091B100876075
:100C70008093B10080917000826080937000109228
:100C8000800010928100109285001092840082E111
:100C90009AE7909389008093880088E08093810090
:100CA0008091810083608093810010936F0078941D
:100CB00000E010E00E948601C0906203D0906303C0
:100CC000E0906403F09065036C197D098E099F091B
:100CD000653671058105910550F00E94860160938B
:100CE000620370936303809364039093650361E0F0
:100CF00089E00E94FD0060E08DE00E94FD001D86FD
:100D00001E861F86188A19861A861B861C861D82D7
:100D10001E821F82188619821A821B821C8201156C
:100D2000110541F20E94FC01882321F20E9400007B
:100D3000C1CF5058BB27AA270E94B1060C942408A3
:100D40000E94160838F00E941D0820F039F49F3FD9
:100D500019F426F40C9413080EF4E095E7FB0C94B8
:100D60000D08E92F0E94350858F3BA176207730778
:100D70008407950720F079F4A6F50C9457080EF433
:100D8000E0950B2EBA2FA02D0B01B90190010C019B
:100D9000CA01A0011124FF27591B99F0593F50F4B3
:100DA000503E68F11A16F040A22F232F342F44270B
:100DB000585FF3CF469537952795A795F040539503
:100DC000C9F77EF41F16BA0B620B730B840BBAF0D3
:100DD0009150A1F0FF0FBB1F661F771F881FC2F73E
:100DE0000EC0BA0F621F731F841F48F48795779552
:100DF0006795B795F7959E3F08F0B0CF9395880F0C
:100E000008F09927EE0F9795879508950E94E907B6
:100E100008F481E008950E941F070C9424080E94A2
:100E20001D0858F00E94160840F029F45F3F29F091
:100E30000C940D0851110C9458080C9413080E943E
:100E4000350868F39923B1F3552391F3951B550B9E
:100E5000BB27AA2762177307840738F09F5F5F4F8D
:100E6000220F331F441FAA1FA9F335D00E2E3AF0CC
:100E7000E0E832D091505040E695001CCAF72BD0E4
:100E8000FE2F29D0660F771F881FBB1F2617370735
:100E90004807AB07B0E809F0BB0B802DBF01FF2767
:100EA00093585F4F3AF09E3F510578F00C940D082F
:100EB0000C9458085F3FE4F3983ED4F386957795F9
:100EC0006795B795F7959F5FC9F7880F911D969520
:100ED000879597F90895E1E0660F771F881FBB1F7C
:100EE000621773078407BA0720F0621B730B840B29
:100EF000BA0BEE1F88F7E09508950E943D0888F030
:100F00009F5798F0B92F9927B751B0F0E1F0660FCD
:100F1000771F881F991F1AF0BA95C9F714C0B1300E
:100F200091F00E945708B1E008950C945708672F7C
:100F3000782F8827B85F39F0B93FCCF3869577953D
:100F40006795B395D9F73EF4909580957095619526
:100F50007F4F8F4F9F4F0895E89409C097FB3EF451
:100F600090958095709561957F4F8F4F9F4F9923F6
:100F7000A9F0F92F96E9BB279395F6958795779574
:100F80006795B795F111F8CFFAF4BB0F11F460FF34
:100F90001BC06F5F7F4F8F4F9F4F16C0882311F08C
:100FA00096E911C0772321F09EE8872F762F05C0A0
:100FB000662371F096E8862F70E060E02AF09A953B
:100FC000660F771F881FDAF7880F9695879597F930
:100FD0000895990F0008550FAA0BE0E8FEEF1616CA
:100FE0001706E807F907C0F012161306E407F5071D
:100FF00098F0621B730B840B950B39F40A2661F091
:10100000232B242B252B21F408950A2609F4A14033
:10101000A6958FEF811D811D089597F99F6780E840
:1010200070E060E008959FEF80EC089500240A943A
:101030001616170618060906089500240A941216B3
:101040001306140605060895092E0394000C11F4E6
:10105000882352F0BB0F40F4BF2B11F460FF04C093
:101060006F5F7F4F8F4F9F4F089557FD9058440FEC
:10107000551F59F05F3F71F04795880F97FB991FF7
:1010800061F09F3F79F087950895121613061406B4
:10109000551FF2CF4695F1DF08C016161706180641
:1010A000991FF1CF86957105610508940895E8941C
:1010B000BB2766277727CB0197F908950E94E90798
:1010C00008F48FEF08950E9476080C9424080E947B
:1010D000160838F00E941D0820F0952311F00C949A
:1010E0000D080C94130811240C9458080E9435081C
:1010F00070F3959FC1F3950F50E0551F629FF0016B
:10110000729FBB27F00DB11D639FAA27F00DB11D83
:10111000AA1F649F6627B00DA11D661F829F22270C
:10112000B00DA11D621F739FB00DA11D621F839F93
:10113000A00D611D221F749F3327A00D611D231F69
:10114000849F600D211D822F762F6A2F11249F57B7
:1011500050409AF0F1F088234AF0EE0FFF1FBB1FBA
:10116000661F771F881F91505040A9F79E3F510579
:1011700080F00C940D080C9458085F3FE4F3983EFF
:10118000D4F3869577956795B795F795E7959F5F23
:10119000C1F7FE2B880F911D9695879597F90895B5
:1011A0000E94E907880B990B0895A1E21A2EAA1B49
:1011B000BB1BFD010DC0AA1FBB1FEE1FFF1FA21707
:1011C000B307E407F50720F0A21BB30BE40BF50B04
:1011D000661F771F881F991F1A9469F7609570958D
:1011E000809590959B01AC01BD01CF010895EE0F54
:1011F000FF1F0590F491E02D0994F894FFCF0000B3
:10120000000032029201BF017F02F001CE01E20133
:101210006E616E00696E66006F7666000D0A0000F2
:107E0000112484B714BE81FFF0D085E080938100F7
:107E100082E08093C00088E18093C10086E0809377
:107E2000C20080E18093C4008EE0C9D0259A86E02C
:107E300020E33CEF91E0309385002093840096BBD3
:107E4000B09BFECF1D9AA8958150A9F7CC24DD24C4
:107E500088248394B5E0AB2EA1E19A2EF3E0BF2EE7
:107E6000A2D0813461F49FD0082FAFD0023811F036
:107E7000013811F484E001C083E08DD089C08234E0
:107E800011F484E103C0853419F485E0A6D080C0E4
:107E9000853579F488D0E82EFF2485D0082F10E0AE
:107EA000102F00270E291F29000F111F8ED06801E7
:107EB0006FC0863521F484E090D080E0DECF843638
:107EC00009F040C070D06FD0082F6DD080E0C81688
:107ED00080E7D80618F4F601B7BEE895C0E0D1E017
:107EE00062D089930C17E1F7F0E0CF16F0E7DF06D8
:107EF00018F0F601B7BEE89568D007B600FCFDCFD4
:107F0000A601A0E0B1E02C9130E011968C91119780
:107F100090E0982F8827822B932B1296FA010C0160
:107F200087BEE89511244E5F5F4FF1E0A038BF0790
:107F300051F7F601A7BEE89507B600FCFDCF97BE46
:107F4000E89526C08437B1F42ED02DD0F82E2BD052
:107F50003CD0F601EF2C8F010F5F1F4F84911BD097
:107F6000EA94F801C1F70894C11CD11CFA94CF0C13
:107F7000D11C0EC0853739F428D08EE10CD085E9AC
:107F80000AD08FE07ACF813511F488E018D01DD067
:107F900080E101D065CF982F8091C00085FFFCCF94
:107FA0009093C60008958091C00087FFFCCF809118
:107FB000C00084FD01C0A8958091C6000895E0E648
:107FC000F0E098E1908380830895EDDF803219F02E
:107FD00088E0F5DFFFCF84E1DECF1F93182FE3DFCA
:107FE0001150E9F7F2DF1F91089580E0E8DFEE27F6
:047FF000FF270994CA
:027FFE00040479
:00000001FF
