:100000000C94DF000C9407010C9407010C94070179
:100010000C9407010C9407010C9407010C947404D0
:100020000C9407010C9407010C9407010C9428050B
:100030000C9407010C9407010C9407010C94070120
:100040000C94D2030C9407010C9442040C941C04ED
:100050000C9407010C9407010C9407010C94070100
:100060000C9407010C94070100407A10F35A00A089
:10007000724E18090010A5D4E80000E87648170071
:1000800000E40B54020000CA9A3B000000E1F505B1
:10009000000080969800000040420F000000A086FB
:1000A00001000000102700000000E803000000002D
:1000B0006400000000000A000000000001000000D1
:1000C00000002C76D888DC674F0823DFC1DFAE59EB
:1000D000E1B1B796E5E3E453C63AE651997696E87E
:1000E000E6C28426EB898C9B62ED407C6FFCEFBC02
:1000F0009C9F40F2BAA56FA5F490055A2AF75C932D
:100100006B6CF9676DC11BFCE0E40D47FEF520E662
:10011000B500D0ED902E0300943577050080841E45
:10012000080000204E0A000000C80C333333330FA0
:10013000986E12831141EF8D2114893BE65516CF3D
:10014000FEE6DB18D1844B381BF77C1D901DA4BB49
:10015000E424203284725E228100C9F124ECA1E5FE
:100160003D270000000023002600290000000008B1
:10017000000201000003040700000000000000006E
:1001800000000000250028002B00000000002400D3
:1001900027002A00040404040404040402020202E6
:1001A000020203030303030301020408102040803A
:1001B0000102040810200102040810206B0511241C
:1001C0001FBECFEFD8E0DEBFCDBF23E0A4E5B1E096
:1001D00001C01D92AB3BB207E1F711E0A0E0B1E036
:1001E000E2E1FEE102C005900D92A435B107D9F716
:1001F00010E0CFEDD0E004C02197FE010E940F0D6A
:10020000CE3DD107C9F70E9499050C94070F0C94B5
:10021000000090E0FC01E855FE4F24918C569E4F63
:10022000FC018491882399F090E0880F991FFC01CC
:10023000E657FE4FA591B491FC01E058FE4F859121
:1002400094918FB7F894EC91E22BEC938FBF0895C3
:10025000833081F028F4813099F08230A9F008953C
:100260008730A9F08830C9F08430B1F480918000E3
:100270008F7D03C0809180008F77809380000895E8
:1002800084B58F7784BD089584B58F7DFBCF809131
:10029000B0008F778093B00008958091B0008F7D7B
:1002A000F9CFCF93DF93282F30E0F901E459FE4FC7
:1002B0008491F901E855FE4FD491F901EC56FE4FB7
:1002C000C491CC23A1F081110E942801EC2FF0E011
:1002D000EE0FFF1FEE59FE4FA591B491EC91ED2367
:1002E00081E090E009F480E0DF91CF91089580E013
:1002F00090E0FACF1F93CF93DF93282F30E0F901DE
:10030000E459FE4F8491F901E855FE4FD491F9016B
:10031000EC56FE4FC491CC23A9F0162F81110E94F8
:100320002801EC2FF0E0EE0FFF1FE058FE4FA591E3
:10033000B4918FB7F894EC91111108C0D095DE23D9
:10034000DC938FBFDF91CF911F910895DE2BF8CF03
:100350002FB7F894609116037091170380911803DA
:10036000909119032FBF0895AF92BF92CF92DF9261
:10037000EF92FF920F931F93CF93DF936C017B015A
:100380008B01040F151FEB015E01AE18BF08C017EB
:10039000D10759F06991D601ED91FC910190F0815E
:1003A000E02DC6010995892B79F7C501DF91CF9121
:1003B0001F910F91FF90EF90DF90CF90BF90AF9083
:1003C0000895FC01538D448D252F30E0842F90E05B
:1003D000821B930B541710F0CF9608950197089540
:1003E000FC01918D828D981761F0A28DAE0FBF2F09
:1003F000B11D5D968C91928D9F5F9F73928F90E05F
:1004000008958FEF9FEF0895FC01918D828D9817CD
:1004100031F0828DE80FF11D858D90E008958FEF0A
:100420009FEF0895FC01918D228D892F90E0805CD3
:100430009F4F821B91098F73992708958AE193E05A
:100440000E94120221E0892B09F420E0822F0895F6
:1004500080E090E0892B29F00E941E0281110C940B
:1004600000000895FC01A48DA80FB92FB11DA35A57
:10047000BF4F2C91848D90E001968F739927848FC4
:10048000A689B7892C93A089B1898C9183708064E7
:100490008C93938D848D981306C00288F389E02D88
:1004A00080818F7D80830895EF92FF920F931F9339
:1004B000CF93DF93EC0181E0888F9B8D8C8D981317
:1004C0001AC0E889F989808185FF15C09FB7F89423
:1004D000EE89FF896083E889F9898081837080646F
:1004E00080839FBF81E090E0DF91CF911F910F91BA
:1004F000FF90EF900895F62E0B8D10E00F5F1F4FC9
:100500000F731127E02E8C8D8E110CC00FB607FCD7
:10051000FACFE889F989808185FFF5CFCE010E9465
:100520003202F1CFEB8DEC0FFD2FF11DE35AFF4F9F
:10053000F0829FB7F8940B8FEA89FB8980818062F3
:10054000CFCFCF93DF93EC01888D8823B9F0AA89B0
:10055000BB89E889F9898C9185FD03C0808186FD7E
:100560000DC00FB607FCF7CF8C9185FFF2CF8081CD
:1005700085FFEDCFCE010E943202E9CFDF91CF910E
:100580000895CF932DEC3CEC4CE45FE36091EF02D7
:100590007091F0028091F1029091F2020E940A0D96
:1005A0001816B4F0C1E02DEC3CEC4CE45FE3609134
:1005B000F3027091F4028091F5029091F6020E948C
:1005C0000A0D18160CF0C0E081E08C27CF91089539
:1005D00080E0FCCFCF932DEC3CEC4CE45FE36091EA
:1005E000EF027091F0028091F1029091F2020E946C
:1005F0000A0D1816B4F4C1E02DEC3CEC4CE45FE3BA
:100600006091F3027091F4028091F5029091F602EC
:100610000E940A0D18160CF0C0E081E08C27CF91E3
:10062000089580E0FCCFCF932DEC3CEC4CE45FE3ED
:100630006091EF027091F0028091F1029091F202CC
:100640000E940A0D18168CF4C1E02DEC3CEC4CE431
:100650005FE36091F3027091F4028091F502909152
:10066000F6020E940A0D18160CF0C0E08C2FCF91F4
:100670000895FC0101900020E9F73197AF01481B74
:10068000590BBC018AE193E00C94B401CF93DF9342
:10069000FC0144815581608171818AE193E00E946F
:1006A000B401EC0189E191E00E9439038C0F9D1F98
:1006B000DF91CF910895FC0180819181009711F025
:1006C0000C94B10D0895CF92DF92EF92FF920F93A9
:1006D0001F93CF93DF93CDB7DEB7A1970FB6F894F2
:1006E000DEBF0FBECDBF7C01CB01BA01F701118285
:1006F000108213821282158214828E010F5F1F4FA7
:1007000021E043E00E94BE086C01F70180819181E5
:10071000C114D10469F1F60101900020E9F7319785
:100720008F010C191D09009731F0F70122813381E7
:100730002017310790F4B8016F5F7F4F0E943A0E87
:10074000F701009799F091838083138302832481BA
:100750003581232B11F4FC011082F70115830483EA
:10076000B601808191810E94000F0DC0808191812E
:10077000009711F00E94B10DF701118210821582CD
:10078000148213821282A1960FB6F894DEBF0FBEB8
:10079000CDBFDF91CF911F910F91FF90EF90DF9030
:1007A000CF9008951F920F920FB60F9211242F939E
:1007B0003F938F939F93AF93BF9380911603909134
:1007C0001703A0911803B09119033091150323E08A
:1007D000230F2D3758F50196A11DB11D2093150348
:1007E0008093160390931703A0931803B0931903F3
:1007F0008091110390911203A0911303B0911403FF
:100800000196A11DB11D8093110390931203A09333
:100810001303B0931403BF91AF919F918F913F91B8
:100820002F910F900FBE0F901F90189526E8230F61
:100830000296A11DB11DD2CF1F920F920FB60F923B
:1008400011242F933F934F935F936F937F938F93D5
:100850009F93AF93BF93EF93FF938AE193E00E943E
:100860003202FF91EF91BF91AF919F918F917F9154
:100870006F915F914F913F912F910F900FBE0F900D
:100880001F9018951F920F920FB60F9211242F935D
:100890008F939F93EF93FF93E0912A03F0912B03A3
:1008A0008081E0913003F091310382FD1BC0908183
:1008B000809133038F5F8F7320913403821741F04F
:1008C000E0913303F0E0E65EFC4F958F80933303B5
:1008D000FF91EF919F918F912F910F900FBE0F90ED
:1008E0001F9018958081F4CF1F920F920FB60F9230
:1008F00011248F929F92AF92BF92CF92DF92EF928C
:10090000FF920F931F932F933F934F935F936F9398
:100910007F938F939F93AF93BF93CF93DF93EF9387
:10092000FF938EE00E945101BC01990F880B990B37
:100930000E94150B20E030E048E452E40E94690C6C
:100940004B015C01C091E802D091E9022091EF02D5
:100950003091F0024091F1025091F2020E94FD0BA1
:100960008E01000F111F000F111F9801205E3D4FD7
:100970007901F90120813181428153810E94FC0B70
:100980006093EF027093F0028093F1029093F20271
:10099000F70180829182A282B38280E10E9451019C
:1009A000BC01990F880B990B0E94150B20E030E0D9
:1009B00048E452E40E94690C6B017C012091F3022F
:1009C0003091F4024091F5025091F6020E94FD0B25
:1009D000085A1E4FF80120813181428153810E94C3
:1009E000FC0B6093F3027093F4028093F5029093F2
:1009F000F602F801C082D182E282F3822196C233EC
:100A0000D10509F1D093E902C093E802FF91EF917B
:100A1000DF91CF91BF91AF919F918F917F916F9116
:100A20005F914F913F912F911F910F91FF90EF9008
:100A3000DF90CF90BF90AF909F908F900F900FBEA0
:100A40000F901F9018951092E9021092E802DECFE5
:100A50001F920F920FB60F9211242F933F934F9333
:100A60005F936F937F938F939F93AF93BF93CF9336
:100A7000EF93FF9380910903882341F10E94A8011D
:100A8000C09100016C2F88E00E947A0181E0C827A4
:100A9000C09300010E94A801609354017093550116
:100AA0008093560190935701FF91EF91CF91BF91A1
:100AB000AF919F918F917F916F915F914F913F91F6
:100AC0002F910F900FBE0F901F90189560E088E057
:100AD0000E947A01E9CFEAE1F3E01382128288EE04
:100AE00093E0A0E0B0E084839583A683B7838BE096
:100AF00091E09183808385EC90E09587848784ECF6
:100B000090E09787868780EC90E0918B808B81ECDA
:100B100090E0938B828B82EC90E0958B848B86ECBB
:100B200090E0978B868B118E128E138E148E0C9400
:100B3000A801CF93DF93CDB7DEB76A970FB6F894CD
:100B4000DEBF0FBECDBF789484B5826084BD84B50E
:100B5000816084BD85B5826085BD85B5816085BDB8
:100B600080916E00816080936E0010928100809170
:100B700081008260809381008091810081608093F8
:100B80008100809180008160809380008091B1001D
:100B900084608093B1008091B00081608093B00048
:100BA00080917A00846080937A0080917A008260DC
:100BB00080937A0080917A00816080937A0080919E
:100BC0007A00806880937A001092C100E0912A0335
:100BD000F0912B0312E01083E0912603F09127039C
:100BE0001082E0912803F091290380E18083109224
:100BF0003203E0912E03F0912F0386E08083E09191
:100C00002C03F0912D03808180618083E0912C037F
:100C1000F0912D03808188608083E0912C03F09116
:100C20002D03808180688083E0912C03F0912D0357
:100C300080818F7D80838DE00E94090188E00E9481
:100C4000090189E00E94090160E089E00E947A01BF
:100C500060E08DE00E947A0160E088E00E947A0105
:100C6000F8941092B0001092B1001092B2008CEA89
:100C70008093B3008091B00082608093B000809137
:100C8000B10087608093B100809170008260809392
:100C900070001092800010928100109285001092D6
:100CA000840082E19AE7909389008093880088E02D
:100CB00080938100809181008360809381001093F4
:100CC0006F00789480E0E82E80E0F82E0E94A80162
:100CD0000E94C10261E0811101C060E089E00E94D0
:100CE0007A010E941303882309F4DBC08091EE028D
:100CF0008111BAC081E08093EE020E94A801609346
:100D0000EA027093EB028093EC029093ED021F8A4B
:100D1000188E198E1A8E1B8A1C8A1D8A1E8A1F869F
:100D2000188A198A1A8A1B861C861D861E861F82AF
:100D3000188619861A86809110038111B9C0109106
:100D40000B03111142C12DEC3CEC4CE45FE36091CC
:100D5000EF027091F0028091F1029091F2020E94F4
:100D60000A0D18160CF431C12DEC3CEC4CE45FE399
:100D70006091F3027091F4028091F5029091F60275
:100D80000E940A0D18160CF020C1109209038091E0
:100D90000803882309F445C0109208030E94A801A3
:100DA000009104031091050320910603309107037D
:100DB000601B710B820B930B0E94130B20E030E041
:100DC0004AE754E40E94690C0E94DB0C6B877C8725
:100DD0008D879E876B857C858D859E850E94130BF4
:100DE000AB01BC01CE0101960E946303CE010196C6
:100DF0000E944603CE0101960E945B038B859C8571
:100E0000AD85BE850697A105B10558F481E08093B4
:100E100009038CE191E00E94390389E191E00E948D
:100E2000390310920A031092FF021092080381E026
:100E300080930B0384E291E00E9439030E94A80191
:100E40006093000370930103809302039093030364
:100E5000E114F10409F43ACF0E941E02882309F438
:100E600035CF0E94000032CF0E94A8010091EA0213
:100E70001091EB022091EC023091ED02601B710B9E
:100E8000820B930B0E94130B20E030E040E251E410
:100E90000E940A0D87FD3BCF61E08DE00E947A0140
:100EA00036CF60E08DE00E947A011092EE022FCFE3
:100EB0000E94EA02882309F442CF109210030E9494
:100EC000A80100910C0310910D0320910E033091A5
:100ED0000F03601B710B820B930B0E94130B20E01E
:100EE00030E04AE754E40E94690C0E94DB0C6F83F7
:100EF000788789879A876F81788589859A850E9406
:100F0000130BAB01BC01CE0101960E946303CE011D
:100F100001960E944603CE0101960E945B038F81D9
:100F20009885A985BA850397A105B10508F007CF73
:100F300010920A030E94A8010091FB021091FC028A
:100F40002091FD023091FE02601B710B820B930B0E
:100F50000E94130B20E030E04AE754E40E94690C41
:100F60000E94DB0C6B8B7C8B8D8B9E8B6B897C89C1
:100F70008D899E890E94130BAB01BC01CE010196A5
:100F80000E946303CE0101960E944603CE010196A2
:100F90000E945B038B899C89AD89BE890B97A10553
:100FA000B10508F055CF81E08093FF0286E391E020
:100FB0000E9439030E94A8016093F7027093F8021F
:100FC0008093F9029093FA0243CFD0900A03D11094
:100FD00006C0112321F00E941303811135C0009136
:100FE000FF02011106C0DD2021F00E94EA028111FA
:100FF0009FCF80910803811106C0002321F00E9439
:10100000130381116EC00E94C102882309F420CF0E
:1010100081E080931003112371F08EE491E00E942F
:1010200039030E94A80160930C0370930D03809311
:101030000E0390930F0310920B0310920A03109269
:10104000FF021092080304CF10920B030E94A80124
:1010500000910003109101032091020330910303DA
:10106000601B710B820B930B0E94130B20E030E08E
:101070004AE754E40E94690C0E94DB0C6F8B788F66
:10108000898F9A8F6F89788D898D9A8D0E94130B25
:10109000AB01BC01CE0101960E946303CE01019613
:1010A0000E944603CE0101960E945B038F89988DB2
:1010B000A98DBA8D0B97A105B10508F0C9CE81E0C5
:1010C00080930A0380E391E00E9439030E94A80103
:1010D0006093FB027093FC028093FD029093FE02EA
:1010E000B7CE1092FF020E94A8010091F702109162
:1010F000F8022091F9023091FA02601B710B820B09
:10110000930B0E94130B20E030E04AE754E40E9466
:10111000690C0E94DB0C6F87788B898B9A8B6F85AB
:10112000788989899A890E94130BAB01BC01CE0191
:1011300001960E946303CE0101960E944603CE01F0
:1011400001960E945B038F859889A989BA890B97BC
:10115000A105B10508F07CCE81E08093080383E40B
:1011600091E00E9439030E94A801609304037093E8
:10117000050380930603909307036ACEEF920F93C3
:101180001F93CF93DF93E80134E047FD34E1042E51
:10119000000C550B57FF03C0519541955109E32EA3
:1011A000022F242FAE010E94DC08CE01DF91CF91E7
:1011B0001F910F91EF900895A9E0B0E0E2EEF8E002
:1011C0000C94CB0B6A01F22EB02E102FFBE3AF2E46
:1011D000A01608F41BE31F5F012F27E0AE014F5F4D
:1011E0005F4F0E943B0ABC018981982F9970913012
:1011F00009F43FC09BE2E1FC04C09E2D9170E0FC2D
:101200003AC05E2D5071E82FE87083FF46C084E03D
:10121000911101C083E0EF2DE81B8F1508F0E0E08D
:10122000D6018E2F20E2552351F1992329F0D601C2
:101230009C93C60101966C0196012D5F3F4FE2FE23
:1012400024C08EE4D6018C9391E411969C9311975F
:1012500012968C93D9018E2F90E281111BC0E20F60
:10126000F32FF11D10828EEF9FEF2996ECE00C9486
:10127000E70B9DE2C6CF90E2C4CF2D938150811140
:10128000FCCFCE0ED11CE0E0D0CF8EE6D6018C9301
:1012900091E6DBCF9D938150E0CF482F447082FFD1
:1012A0003DC084E0911101C083E08F1510F4EF2D53
:1012B000E81BD6018E2F20E2552309F1992329F04E
:1012C000D6019C93C60101966C0196012D5F3F4F9C
:1012D000E2FE1BC089E4D6018C938EE411968C93B8
:1012E000119786E412968C93D9018E2F90E2882371
:1012F00009F4B5CF9D938150FACF2D938150811180
:10130000FCCFCE0ED11CE0E0D9CF89E6D6018C937C
:101310008EE611968C93119786E6E4CF9B0177FFBA
:1013200002C030E020E0A1E0B0E0911102C0B0E0E6
:10133000A0E0F9013196AE0FBF1F8B2C912CBB2082
:1013400009F461C05401EFEFAE1ABE0AAA0DBB1D2D
:10135000FA161B0619F014F04F2D4A1B511188C0C4
:10136000E3FC59C07601A42FB0E2A1114FC0C40E16
:10137000D11C992309F45BC040E0D6011196F60117
:1013800090836D01552309F448C0012F060F9A81FF
:10139000582F507184FF03C0913309F40150101687
:1013A0000CF047C0093008F008E0EEE2FE2E5B01C9
:1013B000A01AB10885019194819491082F3F3207BA
:1013C00029F4D601FC92F60131966F01621773077A
:1013D00094F1021713077CF5DB01A21BB30BAA24BF
:1013E000A394B12CAC0EBD1EAA0DBB1D11968C9101
:1013F00021503109D601119628153905F4F0F6016E
:1014000080836D01DBCFB12CA12CA0CFF701B1936C
:101410007F01A150AACF9111B0CFD601942F50E3F4
:1014200002C05D9391509111FCCFC40ED11C40E0DD
:10143000ACCF01E0BACF80E3DBCF6217730731F4A2
:10144000963388F4953311F4552369F0F6018083BF
:10145000FD01842F90E2811108C0A40FB11D1C92E0
:1014600090E080E002CF81E3F1CF91938150F3CF00
:10147000911183CF8ACF283008F027E03327DA0193
:10148000990F311D87FD916000966105710539F452
:1014900032602E5F3D9330E32A95E1F708959F3F38
:1014A00030F080387105610509F03C5F3C5F3D9389
:1014B000913008F08068911DDF93CF931F930F93B5
:1014C000FF92EF92192F987F9695E92F9695969512
:1014D000E90FFF27EE53FF4F99273327EE24FF2410
:1014E000A701E70105900894079428F4360FE71E3A
:1014F000F81E491F511D660F771F881F991F0694FC
:10150000A1F70590079428F4E70EF81E491F561F0F
:10151000C11D770F881F991F661F0694A1F70590BC
:10152000079428F4F80E491F561FC71FD11D880FB6
:10153000991F661F771F0694A1F70590079420F462
:10154000490F561FC71FD81F990F661F771F881F87
:101550000694A9F784911095177041F0D695C79518
:1015600057954795F794E7941A95C1F7E8E6F0E0A8
:1015700068941590159135916591959105907FE24C
:101580007395E118F10A430B560BC90BD009C0F74C
:10159000E10CF11E431F561FC91FD01D7EF470338E
:1015A00011F48A95E6CFE894015030F0080F0AF460
:1015B0000027021708F4202F2395022F7A3328F0F2
:1015C00079E37D932A95E9F710C07D932A9589F6F2
:1015D000069497956795379517951794E118F10A32
:1015E000430B560BC90BD00998F023957E91739548
:1015F0007A3308F070E37C932013B8F77E91706122
:101600007D9330F0839571E37D9370E32A95E1F744
:101610001124EF90FF900F911F91CF91DF919927A7
:1016200087FD90950895E89409C097FB3EF4909546
:101630008095709561957F4F8F4F9F4F9923A9F0AB
:10164000F92F96E9BB279395F6958795779567953A
:10165000B795F111F8CFFAF4BB0F11F460FF1BC07E
:101660006F5F7F4F8F4F9F4F16C0882311F096E911
:1016700011C0772321F09EE8872F762F05C06623BF
:1016800071F096E8862F70E060E02AF09A95660F78
:10169000771F881FDAF7880F9695879597F9089531
:1016A000990F0008550FAA0BE0E8FEEF1616170673
:1016B000E807F907C0F012161306E407F50798F0DB
:1016C000621B730B840B950B39F40A2661F0232BF4
:1016D000242B252B21F408950A2609F4A140A69570
:1016E0008FEF811D811D089597F99F6780E870E055
:1016F00060E008959FEF80EC089500240A94161688
:10170000170618060906089500240A9412161306EF
:10171000140605060895092E0394000C11F488237D
:1017200052F0BB0F40F4BF2B11F460FF04C06F5F99
:101730007F4F8F4F9F4F089557FD9058440F551F6F
:1017400059F05F3F71F04795880F97FB991F61F043
:101750009F3F79F087950895121613061406551FBA
:10176000F2CF4695F1DF08C0161617061806991F26
:10177000F1CF86957105610508940895E894BB271B
:1017800066277727CB0197F908952F923F924F92C2
:101790005F926F927F928F929F92AF92BF92CF9201
:1017A000DF92EF92FF920F931F93CF93DF93CDB70A
:1017B000DEB7CA1BDB0B0FB6F894DEBF0FBECDBF82
:1017C00009942A88398848885F846E847D848C8453
:1017D0009B84AA84B984C884DF80EE80FD800C815C
:1017E0001B81AA81B981CE0FD11D0FB6F894DEBF3F
:1017F0000FBECDBFED0108955058BB27AA270E9408
:10180000140C0C948B0B0E947D0B38F00E94840BFF
:1018100020F039F49F3F19F426F40C947A0B0EF45F
:10182000E095E7FB0C94740BE92F0E949C0B58F396
:10183000BA17620773078407950720F079F4A6F5B5
:101840000C94BE0B0EF4E0950B2EBA2FA02D0B01BD
:10185000B90190010C01CA01A0011124FF27591BF5
:1018600099F0593F50F4503E68F11A16F040A22FFB
:10187000232F342F4427585FF3CF4695379527956C
:10188000A795F0405395C9F77EF41F16BA0B620B6B
:10189000730B840BBAF09150A1F0FF0FBB1F661FB2
:1018A000771F881FC2F70EC0BA0F621F731F841FF5
:1018B00048F4879577956795B795F7959E3F08F01B
:1018C000B0CF9395880F08F09927EE0F97958795DD
:1018D00008950E947D0C0C948B0B0E94840B58F091
:1018E0000E947D0B40F029F45F3F29F00C94740BAB
:1018F00051110C94BF0B0C947A0B0E949C0B68F353
:101900009923B1F3552391F3951B550BBB27AA27B8
:1019100062177307840738F09F5F5F4F220F331FF2
:10192000441FAA1FA9F335D00E2E3AF0E0E832D0BA
:1019300091505040E695001CCAF72BD0FE2F29D0BD
:10194000660F771F881FBB1F261737074807AB078F
:10195000B0E809F0BB0B802DBF01FF2793585F4F04
:101960003AF09E3F510578F00C94740B0C94BF0B29
:101970005F3FE4F3983ED4F3869577956795B795E6
:10198000F7959F5FC9F7880F911D9695879597F9F1
:101990000895E1E0660F771F881FBB1F621773076A
:1019A0008407BA0720F0621B730B840BBA0BEE1F7F
:1019B00088F7E09508950E94A40B88F09F5798F04F
:1019C000B92F9927B751B0F0E1F0660F771F881F44
:1019D000991F1AF0BA95C9F714C0B13091F00E945E
:1019E000BE0BB1E008950C94BE0B672F782F8827AB
:1019F000B85F39F0B93FCCF3869577956795B39585
:101A0000D9F73EF490958095709561957F4F8F4FF3
:101A10009F4F08950E94500B08F48FEF0895EE0F2A
:101A2000FF1F0590F491E02D09940F931F93CF931E
:101A3000DF938230910510F482E090E0E091B903E9
:101A4000F091BA0330E020E0B0E0A0E0309799F4E4
:101A50002115310509F44AC0281B390B2430310502
:101A6000D8F58A819B816115710589F1FB0193830A
:101A70008283FE0111C04081518102811381481788
:101A80005907E0F04817590799F4109761F012963A
:101A90000C93129713961C933296CF01DF91CF913E
:101AA0001F910F9108950093B9031093BA03F4CFD7
:101AB0002115310551F04217530738F0A901DB0118
:101AC0009A01BD01DF01F801C1CFEF01F9CF909379
:101AD000BA038093B903CDCFFE01E20FF31F8193C8
:101AE00091932250310939832883D7CF2091B703AE
:101AF0003091B803232B41F420910301309104016C
:101B00003093B8032093B703209101013091020173
:101B10002115310541F42DB73EB740910501509193
:101B20000601241B350BE091B703F091B803E217CF
:101B3000F307A0F42E1B3F0B2817390778F0AC01F0
:101B40004E5F5F4F2417350748F04E0F5F1F5093CD
:101B5000B8034093B703819391939FCFF0E0E0E007
:101B60009CCFCF93DF930097E9F0FC01329713826B
:101B70001282A091B903B091BA03ED0130E020E0E8
:101B80001097A1F420813181820F931F2091B70318
:101B90003091B8032817390709F061C0F093B803F2
:101BA000E093B703DF91CF910895EA01CE17DF07E5
:101BB000E8F54A815B819E0141155105B1F7E901C4
:101BC000FB83EA8349915991C40FD51FEC17FD0798
:101BD00061F4808191810296840F951FE9019983B8
:101BE0008883828193819B838A83F0E0E0E0129670
:101BF0008D919C9113970097B9F52D913C91119778
:101C0000CD010296820F931F2091B7033091B80344
:101C10002817390739F6309751F51092BA03109208
:101C2000B903B093B803A093B703BCCFD383C283E7
:101C300040815181840F951FC817D90761F44E5F09
:101C40005F4F88819981480F591F518340838A8152
:101C50009B81938382832115310509F0B0CFF093E6
:101C6000BA03E093B9039ECFFD01DC01C0CF13821C
:101C70001282D7CFB0E0A0E0E0E4FEE00C94C70B06
:101C80008C01009751F4CB010E94150D8C01C80105
:101C9000CDB7DEB7E0E10C94E30BFC01E60FF71FD4
:101CA0009C0122503109E217F30708F49DC0D901C5
:101CB000CD91DC911197C617D70798F0C530D105A3
:101CC00030F3CE0104978617970708F3C61BD70B8E
:101CD0002297C193D1936D937C93CF010E94B10D54
:101CE000D6CF5B01AC1ABD0A4C018C0E9D1EA09193
:101CF000B903B091BA03512C412CF12CE12C10976F
:101D000031F58091B7039091B8038815990509F0D2
:101D10005CC04616570608F058C0809101019091AA
:101D20000201009741F48DB79EB740910501509193
:101D30000601841B950BE817F90708F055C0F093CE
:101D4000B803E093B703F90171836083A0CF8D914D
:101D50009C91119712966C90129713967C90139702
:101D6000A815B90559F56C0142E0C40ED11CCA147E
:101D7000DB0420F1AC014A195B09DA0112961597D0
:101D800080F06282738251834083D9016D937C938A
:101D9000E114F10471F0D7011396FC93EE931297BE
:101DA00076CF22968C0F9D1FF90191838083F301DA
:101DB000EFCFF093BA03E093B90369CF4816590601
:101DC00008F42C017D01D3019ACFCB010E94150D9F
:101DD0007C01009749F0AE01B8010E94F70EC801DE
:101DE0000E94B10D870153CF10E000E050CFFB01FE
:101DF000DC0102C001900D9241505040D8F7089587
:101E0000FB01DC0101900D920020E1F70895F894A8
:021E1000FFCF02
:101E1200010000BB038000000000005402B401E195
:101E220001A1021202F00104020D0A00494E5641BC
:101E3200534F52004341525F315F4558495420008D
:101E42005357415020004341525F325F454E544543
:101E52005220004341525F325F50415920004944B1
:041E62004C450000EB
:00000001FF
