:100000000C94DF000C9407010C9407010C94070179
:100010000C9407010C9407010C9407010C94410502
:100020000C9407010C9407010C9407010C94F5053E
:100030000C9407010C9407010C9407010C94070120
:100040000C949F040C9407010C940F050C94E90484
:100050000C9407010C9407010C9407010C94070100
:100060000C9407010C94070100407A10F35A00A089
:10007000724E18090010A5D4E80000E87648170071
:1000800000E40B54020000CA9A3B000000E1F505B1
:10009000000080969800000040420F000000A086FB
:1000A00001000000102700000000E803000000002D
:1000B0006400000000000A000000000001000000D1
:1000C00000002C76D888DC674F0823DFC1DFAE59EB
:1000D000E1B1B796E5E3E453C63AE651997696E87E
:1000E000E6C28426EB898C9B62ED407C6FFCEFBC02
:1000F0009C9F40F2BAA56FA5F490055A2AF75C932D
:100100006B6CF9676DC11BFCE0E40D47FEF520E662
:10011000B500D0ED902E0300943577050080841E45
:10012000080000204E0A000000C80C333333330FA0
:10013000986E12831141EF8D2114893BE65516CF3D
:10014000FEE6DB18D1844B381BF77C1D901DA4BB49
:10015000E424203284725E228100C9F124ECA1E5FE
:100160003D270000000023002600290000000008B1
:10017000000201000003040700000000000000006E
:1001800000000000250028002B00000000002400D3
:1001900027002A00040404040404040402020202E6
:1001A000020203030303030301020408102040803A
:1001B000010204081020010204081020380611244E
:1001C0001FBECFEFD8E0DEBFCDBF28E0ACE5B1E089
:1001D00001C01D92A138B207E1F711E0A0E0B1E043
:1001E000EAE8F0E202C005900D92AC35B107D9F70C
:1001F00010E0CFEDD0E004C02197FE010E94420E36
:10020000CE3DD107C9F70E9466060C9443100C94AA
:10021000000090E0FC01E855FE4F24918C569E4F63
:10022000FC018491882399F090E0880F991FFC01CC
:10023000E657FE4FA591B491FC01E058FE4F859121
:1002400094918FB7F894EC91E22BEC938FBF0895C3
:10025000833081F028F4813099F08230A9F008953C
:100260008730A9F08830C9F08430B1F480918000E3
:100270008F7D03C0809180008F77809380000895E8
:1002800084B58F7784BD089584B58F7DFBCF809131
:10029000B0008F778093B00008958091B0008F7D7B
:1002A000F9CFCF93DF93282F30E0F901E459FE4FC7
:1002B0008491F901E855FE4FD491F901EC56FE4FB7
:1002C000C491CC23A1F081110E942801EC2FF0E011
:1002D000EE0FFF1FEE59FE4FA591B491EC91ED2367
:1002E00081E090E009F480E0DF91CF91089580E013
:1002F00090E0FACF1F93CF93DF93282F30E0F901DE
:10030000E459FE4F8491F901E855FE4FD491F9016B
:10031000EC56FE4FC491CC23A9F0162F81110E94F8
:100320002801EC2FF0E0EE0FFF1FE058FE4FA591E3
:10033000B4918FB7F894EC91111108C0D095DE23D9
:10034000DC938FBFDF91CF911F910895DE2BF8CF03
:100350002FB7F8946091DC077091DD078091DE077C
:100360009091DF072FBF0895AF92BF92CF92DF9297
:10037000EF92FF920F931F93CF93DF936C017B015A
:100380008B01040F151FEB015E01AE18BF08C017EB
:10039000D10759F06991D601ED91FC910190F0815E
:1003A000E02DC6010995892B79F7C501DF91CF9121
:1003B0001F910F91FF90EF90DF90CF90BF90AF9083
:1003C0000895FC01448155816081718180EE97E040
:1003D0000C94B401FC01538D448D252F30E0842F03
:1003E00090E0821B930B541710F0CF96089501975D
:1003F0000895FC01918D828D981761F0A28DAE0F4A
:10040000BF2FB11D5D968C91928D9F5F9F73928FD0
:1004100090E008958FEF9FEF0895FC01918D828DFC
:10042000981731F0828DE80FF11D858D90E00895C9
:100430008FEF9FEF0895FC01918D228D892F90E021
:10044000805C9F4F821B91098F739927089580EEDE
:1004500097E00E941B0221E0892B09F420E0822F03
:10046000089580E090E0892B29F00E9427028111F5
:100470000C9400000895FC01A48DA80FB92FB11DA4
:10048000A35ABF4F2C91848D90E001968F739927CA
:10049000848FA689B7892C93A089B1898C918370A8
:1004A00080648C93938D848D981306C00288F389A1
:1004B000E02D80818F7D80830895EF92FF920F93CE
:1004C0001F93CF93DF93EC0181E0888F9B8D8C8D00
:1004D00098131AC0E889F989808185FF15C09FB7F4
:1004E000F894EE89FF896083E889F98980818370B7
:1004F000806480839FBF81E090E0DF91CF911F9166
:100500000F91FF90EF900895F62E0B8D10E00F5F86
:100510001F4F0F731127E02E8C8D8E110CC00FB65C
:1005200007FCFACFE889F989808185FFF5CFCE01F4
:100530000E943B02F1CFEB8DEC0FFD2FF11DE35A32
:10054000FF4FF0829FB7F8940B8FEA89FB89808177
:100550008062CFCFCF93DF93EC01888D8823B9F0F1
:10056000AA89BB89E889F9898C9185FD03C08081BE
:1005700086FD0DC00FB607FCF7CF8C9185FFF2CF3B
:10058000808185FFEDCFCE010E943B02E9CFDF9154
:10059000CF910895CF932AE939E949E15FE360916A
:1005A000B5077091B6078091B7079091B8070E9480
:1005B0003D0E1816B4F0C1E02AE939E949E15FE3DC
:1005C0006091B9077091BA078091BB079091BC0701
:1005D0000E943D0E18160CF0C0E081E08C27CF91F0
:1005E000089580E0FCCF1092D6071092D3071092A6
:1005F000CA071092D4071092C5070895CF932AE92D
:1006000039E949E15FE36091B5077091B6078091E0
:10061000B7079091B8070E943D0E18168CF4C1E000
:100620002AE939E949E15FE36091B9077091BA07B6
:100630008091BB079091BC070E943D0E18160CF0EC
:10064000C0E08C2FCF91089542E050E069E171E065
:1006500080EE97E00C94B401CF93DF93FC010190FE
:100660000020E9F73197AF01481B590BBC0180EE20
:1006700097E00E94B401EC010E9424038C0F9D1F9F
:10068000DF91CF910895FC0124813581232B39F42A
:1006900021E0FB018081882349F020E007C08081B0
:1006A00091810E94331021E0892BB9F7822F0895A0
:1006B000CF93DF93EC016CE171E00E944303811161
:1006C00022C068E271E0CE010E94430381111BC089
:1006D0006EE271E0CE010E944303811114C06BE30E
:1006E00071E0CE010E94430381110DC066E471E008
:1006F000CE010E94430391E0811101C090E0892F57
:10070000DF91CF91089591E0FACFCF93DF93EC0181
:1007100088819981009711F00E94E40E1982188255
:100720001D821C821B821A82DF91CF910895EF9265
:10073000FF920F931F93CF93DF93EC017B018A010C
:1007400088819981009729F02A813B8124173507F8
:1007500088F4B8016F5F7F4F0E946D0F0097C9F05A
:10076000998388831B830A832C813D81232B11F479
:10077000FC0110821D830C83B701888199810E943E
:100780003C10CE01DF91CF911F910F91FF90EF9020
:100790000895CE010E948503F4CFEF92FF920F934C
:1007A0001F93CF93DF93CDB7DEB7A1970FB6F89421
:1007B000DEBF0FBECDBF7C01CB01BA01F7011182B4
:1007C000108213821282158214828E010F5F1F4FD6
:1007D00021E043E00E94F1090097C9F0FC0101907B
:1007E0000020E9F73197AF01481B590BBC01C70145
:1007F0000E949703A1960FB6F894DEBF0FBECDBF3F
:10080000DF91CF911F910F91FF90EF900895C70155
:100810000E948503EFCFCF93DF93EC01FB01861796
:10082000970749F0608171816115710541F044813C
:1008300055810E949703CE01DF91CF9108950E94C8
:100840008503F9CFFC011182108213821282158276
:100850001482FB0101900020E9F73197AF01461B9C
:10086000570B0C949703FC0180819181009711F044
:100870000C94E40E0895FF920F931F93CF93DF9390
:1008800000D000D000D0CDB7DEB78C018091A80792
:10089000811109C06BE171E082EA97E00E942204B5
:1008A00081E08093A8071A8219821C821B821E8213
:1008B0001D8262EA77E0CE0101960E940B04CE0110
:1008C00001960E945803F82ECE0101960E9433042F
:1008D000FF20D9F01A8219821C821B821E821D827F
:1008E000B801CE0101960E940B04CE0101960E9430
:1008F0005803F82ECE0101960E943304FF2049F0E0
:100900006AE080EE97E00E945D02C8010E94E1016A
:1009100005C0C8010E94E1010E942403B80182EAD7
:1009200097E00E940B0426960FB6F894DEBF0FBE28
:10093000CDBFDF91CF911F910F91FF9008951F922E
:100940000F920FB60F9211242F933F938F939F9383
:10095000AF93BF938091DC079091DD07A091DE07F4
:10096000B091DF073091DB0723E0230F2D3758F5D7
:100970000196A11DB11D2093DB078093DC079093A6
:10098000DD07A093DE07B093DF078091D707909132
:10099000D807A091D907B091DA070196A11DB11D22
:1009A0008093D7079093D807A093D907B093DA071D
:1009B000BF91AF919F918F913F912F910F900FBE5B
:1009C0000F901F90189526E8230F0296A11DB11DC8
:1009D000D2CF1F920F920FB60F9211242F933F93F5
:1009E0004F935F936F937F938F939F93AF93BF9337
:1009F000EF93FF9380EE97E00E943B02FF91EF910F
:100A0000BF91AF919F918F917F916F915F914F9126
:100A10003F912F910F900FBE0F901F9018951F922E
:100A20000F920FB60F9211242F938F939F93EF93F2
:100A3000FF93E091F007F091F1078081E091F607D4
:100A4000F091F70782FD1BC090818091F9078F5FBD
:100A50008F732091FA07821741F0E091F907F0E0D7
:100A6000E052F84F958F8093F907FF91EF919F9196
:100A70008F912F910F900FBE0F901F90189580812E
:100A8000F4CF1F920F920FB60F9211248F929F9264
:100A9000AF92BF92CF92DF92EF92FF920F931F938C
:100AA0002F933F934F935F936F937F938F939F9376
:100AB000AF93BF93CF93DF93EF93FF938EE00E94AA
:100AC0005101BC01990F880B990B0E94480C20E042
:100AD00030E048E453E40E949C0D4B015C01C0915E
:100AE000A007D091A1072091B5073091B60740919A
:100AF000B7075091B8070E94300D8E01000F111FEB
:100B0000000F111F980120583B4F7901F9012081F6
:100B10003181428153810E942F0D6093B5077093FC
:100B2000B6078093B7079093B807F7018082918248
:100B3000A282B38280E10E945101BC01990F880B0F
:100B4000990B0E94480C20E030E048E453E40E94F6
:100B50009C0D6B017C012091B9073091BA0740913F
:100B6000BB075091BC070E94300D005A1E4FF80180
:100B700020813181428153810E942F0D6093B907FA
:100B80007093BA078093BB079093BC07F801C082AB
:100B9000D182E282F3822196C83CD10509F1D0933B
:100BA000A107C093A007FF91EF91DF91CF91BF9173
:100BB000AF919F918F917F916F915F914F913F91F5
:100BC0002F911F910F91FF90EF90DF90CF90BF90EA
:100BD000AF909F908F900F900FBE0F901F90189521
:100BE0001092A1071092A007DECF1F920F920FB6AE
:100BF0000F9211242F933F934F935F936F937F93A3
:100C00008F939F93AF93BF93CF93EF93FF93809175
:100C1000D507882341F10E94A801C09100016C2FE3
:100C200088E00E947A0181E0C827C09300010E94F9
:100C3000A80160935C0170935D0180935E019093C5
:100C40005F01FF91EF91CF91BF91AF919F918F91F4
:100C50007F916F915F914F913F912F910F900FBEB8
:100C60000F901F90189560E088E00E947A01E9CF0C
:100C7000E0EEF7E01382128288EE93E0A0E0B0E0AD
:100C800084839583A683B7838BE091E091838083EF
:100C900085EC90E09587848784EC90E09787868741
:100CA00080EC90E0918B808B81EC90E0938B828B39
:100CB00082EC90E0958B848B86EC90E0978B868B12
:100CC000118E128E138E148E0C94A801CF93DF9385
:100CD000CDB7DEB76A970FB6F894DEBF0FBECDBFB3
:100CE000789484B5826084BD84B5816084BD85B507
:100CF000826085BD85B5816085BD80916E00816013
:100D000080936E00109281008091810082608093B8
:100D100081008091810081608093810080918000BA
:100D20008160809380008091B10084608093B100E5
:100D30008091B00081608093B00080917A008460DF
:100D400080937A0080917A00826080937A0080910B
:100D50007A00816080937A0080917A008068809325
:100D60007A001092C100E091F007F091F10712E0D3
:100D70001083E091EC07F091ED071082E091EE070F
:100D8000F091EF0780E180831092F807E091F4077B
:100D9000F091F50786E08083E091F207F091F30788
:100DA000808180618083E091F207F091F307808178
:100DB00088608083E091F207F091F307808180687A
:100DC0008083E091F207F091F30780818F7D80832B
:100DD0008DE00E94090188E00E94090189E00E94DB
:100DE000090160E089E00E947A0160E08DE00E94E4
:100DF0007A0160E088E00E947A01F8941092B000D5
:100E00001092B1001092B2008CEA8093B3008091EE
:100E1000B00082608093B0008091B10087608093C1
:100E2000B100809170008260809370001092800009
:100E300010928100109285001092840082E19AE75E
:100E4000909389008093880088E08093810080914E
:100E5000810083608093810010936F00789400E09C
:100E600010E00E94A8010E94CA0261E0811101C045
:100E700060E089E00E947A010E94FE02882309F462
:100E8000D9C08091B4078111B8C081E08093B407C4
:100E90000E94A8016093B0077093B1078093B207D6
:100EA0009093B3071F8A188E198E1A8E1B8A1C8A7C
:100EB0001D8A1E8A1F86188A198A1A8A1B861C8612
:100EC0001D861E861F82188619861A86E090D60710
:100ED000E110B7C02AE939E949E15FE36091B5075C
:100EE0007091B6078091B7079091B8070E943D0EA8
:100EF00018160CF4A6C02AE939E949E15FE36091CC
:100F0000B9077091BA078091BB079091BC070E9406
:100F10003D0E18160CF095C01092D5078091D4079D
:100F2000882309F441C01092D4070E94A801C09000
:100F3000CF07D090D007E090D107F090D2076C197E
:100F40007D098E099F090E94460C20E030E04AE7A7
:100F500054E40E949C0D0E940E0E6B877C878D8747
:100F60009E876B857C858D859E850E94460CAB0196
:100F7000BC01CE0101960E94CD03CE0101960E94D4
:100F80003B04CE0101960E9433048B859C85AD8580
:100F9000BE850697A105B10538F481E08093D50799
:100FA0008CE491E00E942C030E94F30281E0809384
:100FB000D6076CE171E0CE0101960E942204CE01B9
:100FC00001960E943B04CE0101960E9433040E94C8
:100FD000A8016093CB077093CC078093CD079093C3
:100FE000CE070115110509F43CCF0E942702882382
:100FF00009F437CF0E94000034CF0E94A801C090AE
:10100000B007D090B107E090B207F090B3076C1929
:101010007D098E099F090E94460C20E030E040E2E5
:1010200051E40E943D0E87FD3DCF61E08DE00E94BE
:101030007A0138CF60E08DE00E947A011092B40707
:1010400031CFF090D307F11006C0EE2021F00E94BE
:10105000FE0281118FC0E090CA07E110E2C0F110DA
:1010600005C08091C507882309F4DBC02AE939E966
:1010700049E15FE36091B5077091B6078091B707CA
:101080009091B8070E943D0E18160CF0CAC02AE9CC
:1010900039E949E15FE36091B9077091BA0780913E
:1010A000BB079091BC070E943D0E18160CF4B9C006
:1010B000FF2009F4D8C01092D3070E94A801C09065
:1010C000C607D090C707E090C807F090C9076C1911
:1010D0007D098E099F090E94460C20E030E04AE716
:1010E00054E40E949C0D0E940E0E6B8B7C8B8D8BAA
:1010F0009E8B6B897C898D899E890E94460CAB01F1
:10110000BC01CE0101960E94CD03CE0101960E9442
:101110003B04CE0101960E9433048B899C89AD89E2
:10112000BE890497A105B10548F08F819885A985EE
:10113000BA850397A105B10508F053CF81E08093EC
:10114000CA076EE271E0CE0101960E942204CE0130
:1011500001960E943B04CE0101960E9433040E9436
:10116000A8016093BD077093BE078093BF0790935B
:10117000C00737CF1092D6070E94A801C090CB07B6
:10118000D090CC07E090CD07F090CE076C197D0988
:101190008E099F090E94460C20E030E04AE754E4A3
:1011A0000E949C0D0E940E0E6F8B788F898F9A8FF4
:1011B0006F89788D898D9A8D0E94460CAB01BC0198
:1011C000CE0101960E94CD03CE0101960E943B0400
:1011D000CE0101960E9433048F89988DA98DBA8D16
:1011E0000497A105B10508F0FCCE81E08093D307F8
:1011F00068E271E0CE0101960E942204CE010196C0
:101200000E943B04CE0101960E9433040E94A80173
:101210006093C6077093C7078093C8079093C90768
:10122000E0CE8091D407811106C0EE2021F00E940B
:10123000FE02811140C08091C507811104C00E9447
:10124000CA0281118FC08B899C89AD89BE89892B87
:101250008A2B8B2B09F4A9C084E591E00E942C0312
:101260000E94F302BECE8091C507882309F455CFB2
:101270001092C5070E94A801C090C107D090C20774
:10128000E090C307F090C4076C197D098E099F098F
:101290000E94460C20E030E04AE754E40E949C0D96
:1012A0000E940E0E6F83788789879A876F81788571
:1012B00089859A8522CF1092CA070E94A801C09002
:1012C000BD07D090BE07E090BF07F090C0076C1933
:1012D0007D098E099F090E94460C20E030E04AE714
:1012E00054E40E949C0D0E940E0E6F87788B898BB0
:1012F0009A8B6F85788989899A890E94460CAB01FF
:10130000BC01CE0101960E94CD03CE0101960E9440
:101310003B04CE0101960E9433048F859889A989E8
:10132000BA890497A105B10508F05BCE81E08093EE
:10133000D4076BE371E0CE0101960E942204CE0136
:1013400001960E943B04CE0101960E9433040E9444
:10135000A8016093CF077093D0078093D107909333
:10136000D2073FCE0E94F30281E08093C5078091AF
:10137000D607882309F435CE66E471E0CE010196E4
:101380000E942204CE0101960E943B04CE010196E8
:101390000E9433040E94A8016093C1077093C207A2
:1013A0008093C3079093C4071CCE8F89988DA98D15
:1013B000BA8D892B8A2B8B2B09F04ECF8F8598897C
:1013C000A989BA89892B8A2B8B2B09F045CF8B856C
:1013D0009C85AD85BE850B97A105B10508F03CCF76
:1013E00000CEEF920F931F93CF93DF93E80134E089
:1013F00047FD34E1042E000C550B57FF03C05195F7
:1014000041955109E32E022F242FAE010E940F0AAD
:10141000CE01DF91CF911F910F91EF900895A9E038
:10142000B0E0E5E1FAE00C94FE0C6A01F22EB02E79
:10143000102FFBE3AF2EA01608F41BE31F5F012F54
:1014400027E0AE014F5F5F4F0E946E0BBC018981A8
:10145000982F9970913009F43FC09BE2E1FC04C0E1
:101460009E2D9170E0FC3AC05E2D5071E82FE8701F
:1014700083FF46C084E0911101C083E0EF2DE81B9B
:101480008F1508F0E0E0D6018E2F20E2552351F1B0
:10149000992329F0D6019C93C60101966C0196010F
:1014A0002D5F3F4FE2FE24C08EE4D6018C9391E481
:1014B00011969C93119712968C93D9018E2F90E2DE
:1014C00081111BC0E20FF32FF11D10828EEF9FEFF1
:1014D0002996ECE00C941A0D9DE2C6CF90E2C4CFA1
:1014E0002D9381508111FCCFCE0ED11CE0E0D0CFE6
:1014F0008EE6D6018C9391E6DBCF9D938150E0CFB1
:10150000482F447082FF3DC084E0911101C083E008
:101510008F1510F4EF2DE81BD6018E2F20E25523F6
:1015200009F1992329F0D6019C93C60101966C011B
:1015300096012D5F3F4FE2FE1BC089E4D6018C93DC
:101540008EE411968C93119786E412968C93D901B0
:101550008E2F90E2882309F4B5CF9D938150FACF66
:101560002D9381508111FCCFCE0ED11CE0E0D9CF5C
:1015700089E6D6018C938EE611968C93119786E6B8
:10158000E4CF9B0177FF02C030E020E0A1E0B0E0B3
:10159000911102C0B0E0A0E0F9013196AE0FBF1F7B
:1015A0008B2C912CBB2009F461C05401EFEFAE1AD3
:1015B000BE0AAA0DBB1DFA161B0619F014F04F2D1A
:1015C0004A1B511188C0E3FC59C07601A42FB0E238
:1015D000A1114FC0C40ED11C992309F45BC040E097
:1015E000D6011196F60190836D01552309F448C088
:1015F000012F060F9A81582F507184FF03C0913339
:1016000009F4015010160CF047C0093008F008E04A
:10161000EEE2FE2E5B01A01AB1088501919481943F
:1016200091082F3F320729F4D601FC92F60131963A
:101630006F016217730794F1021713077CF5DB0142
:10164000A21BB30BAA24A394B12CAC0EBD1EAA0DF1
:10165000BB1D11968C9121503109D6011196281588
:101660003905F4F0F60180836D01DBCFB12CA12C9C
:10167000A0CFF701B1937F01A150AACF9111B0CFB4
:10168000D601942F50E302C05D9391509111FCCF8D
:10169000C40ED11C40E0ACCF01E0BACF80E3DBCF79
:1016A0006217730731F4963388F4953311F4552398
:1016B00069F0F6018083FD01842F90E2811108C05A
:1016C000A40FB11D1C9290E080E002CF81E3F1CF26
:1016D00091938150F3CF911183CF8ACF283008F0B6
:1016E00027E03327DA01990F311D87FD91600096BD
:1016F0006105710539F432602E5F3D9330E32A9520
:10170000E1F708959F3F30F080387105610509F0D9
:101710003C5F3C5F3D93913008F08068911DDF9302
:10172000CF931F930F93FF92EF92192F987F969567
:10173000E92F96959695E90FFF27EE53FF4F9927CE
:101740003327EE24FF24A701E701059008940794AE
:1017500028F4360FE71EF81E491F511D660F771F2C
:10176000881F991F0694A1F70590079428F4E70EA7
:10177000F81E491F561FC11D770F881F991F661F2E
:101780000694A1F70590079428F4F80E491F561FF8
:10179000C71FD11D880F991F661F771F0694A1F7D9
:1017A0000590079420F4490F561FC71FD81F990FA3
:1017B000661F771F881F0694A9F7849110951770EC
:1017C00041F0D695C79557954795F794E7941A95A4
:1017D000C1F7E8E6F0E068941590159135916591B0
:1017E000959105907FE27395E118F10A430B560B32
:1017F000C90BD009C0F7E10CF11E431F561FC91FCA
:10180000D01D7EF4703311F48A95E6CFE894015030
:1018100030F0080F0AF40027021708F4202F239550
:10182000022F7A3328F079E37D932A95E9F710C0E7
:101830007D932A9589F60694979567953795179520
:101840001794E118F10A430B560BC90BD00998F015
:1018500023957E9173957A3308F070E37C9320137F
:10186000B8F77E9170617D9330F0839571E37D933D
:1018700070E32A95E1F71124EF90FF900F911F91EB
:10188000CF91DF91992787FD90950895E89409C03D
:1018900097FB3EF490958095709561957F4F8F4FA3
:1018A0009F4F9923A9F0F92F96E9BB279395F695B9
:1018B000879577956795B795F111F8CFFAF4BB0F37
:1018C00011F460FF1BC06F5F7F4F8F4F9F4F16C09B
:1018D000882311F096E911C0772321F09EE8872F25
:1018E000762F05C0662371F096E8862F70E060E0E1
:1018F0002AF09A95660F771F881FDAF7880F96955A
:10190000879597F90895990F0008550FAA0BE0E8FD
:10191000FEEF16161706E807F907C0F012161306B1
:10192000E407F50798F0621B730B840B950B39F4F1
:101930000A2661F0232B242B252B21F408950A2657
:1019400009F4A140A6958FEF811D811D089597F997
:101950009F6780E870E060E008959FEF80EC089555
:1019600000240A941616170618060906089500247E
:101970000A9412161306140605060895092E0394F8
:10198000000C11F4882352F0BB0F40F4BF2B11F46C
:1019900060FF04C06F5F7F4F8F4F9F4F089557FDCB
:1019A0009058440F551F59F05F3F71F04795880FCD
:1019B00097FB991F61F09F3F79F087950895121664
:1019C00013061406551FF2CF4695F1DF08C0161610
:1019D00017061806991FF1CF8695710561050894C1
:1019E0000895E894BB2766277727CB0197F90895D8
:1019F0002F923F924F925F926F927F928F929F921F
:101A0000AF92BF92CF92DF92EF92FF920F931F930C
:101A1000CF93DF93CDB7DEB7CA1BDB0B0FB6F894BD
:101A2000DEBF0FBECDBF09942A88398848885F84FD
:101A30006E847D848C849B84AA84B984C884DF806E
:101A4000EE80FD800C811B81AA81B981CE0FD11D52
:101A50000FB6F894DEBF0FBECDBFED01089550580C
:101A6000BB27AA270E94470D0C94BE0C0E94B00C05
:101A700038F00E94B70C20F039F49F3F19F426F497
:101A80000C94AD0C0EF4E095E7FB0C94A70CE92F39
:101A90000E94CF0C58F3BA176207730784079507A3
:101AA00020F079F4A6F50C94F10C0EF4E0950B2ED1
:101AB000BA2FA02D0B01B90190010C01CA01A001A0
:101AC0001124FF27591B99F0593F50F4503E68F1FB
:101AD0001A16F040A22F232F342F4427585FF3CF3C
:101AE000469537952795A795F0405395C9F77EF40D
:101AF0001F16BA0B620B730B840BBAF09150A1F056
:101B0000FF0FBB1F661F771F881FC2F70EC0BA0FDB
:101B1000621F731F841F48F4879577956795B79563
:101B2000F7959E3F08F0B0CF9395880F08F099275E
:101B3000EE0F9795879508950E94B00D0C94BE0CFA
:101B40000E94B70C58F00E94B00C40F029F45F3F9F
:101B500029F00C94A70C51110C94F20C0C94AD0CC0
:101B60000E94CF0C68F39923B1F3552391F3951B91
:101B7000550BBB27AA2762177307840738F09F5FAE
:101B80005F4F220F331F441FAA1FA9F335D00E2E1B
:101B90003AF0E0E832D091505040E695001CCAF788
:101BA0002BD0FE2F29D0660F771F881FBB1F26174B
:101BB00037074807AB07B0E809F0BB0B802DBF0122
:101BC000FF2793585F4F3AF09E3F510578F00C94F1
:101BD000A70C0C94F20C5F3FE4F3983ED4F3869587
:101BE00077956795B795F7959F5FC9F7880F911D12
:101BF0009695879597F90895E1E0660F771F881FFE
:101C0000BB1F621773078407BA0720F0621B730BB0
:101C1000840BBA0BEE1F88F7E09508950E94D70C4D
:101C200088F09F5798F0B92F9927B751B0F0E1F09D
:101C3000660F771F881F991F1AF0BA95C9F714C04D
:101C4000B13091F00E94F10CB1E008950C94F10CC8
:101C5000672F782F8827B85F39F0B93FCCF3869586
:101C600077956795B395D9F73EF4909580957095E3
:101C700061957F4F8F4F9F4F08950E94830C08F40A
:101C80008FEF0895EE0FFF1F0590F491E02D09945A
:101C90000F931F93CF93DF938230910510F482E06E
:101CA00090E0E0917F08F091800830E020E0B0E023
:101CB000A0E0309799F42115310509F44AC0281B9A
:101CC000390B24303105D8F58A819B816115710566
:101CD00089F1FB0193838283FE0111C04081518110
:101CE0000281138148175907E0F04817590799F402
:101CF000109761F012960C93129713961C933296DC
:101D0000CF01DF91CF911F910F91089500937F082C
:101D100010938008F4CF2115310551F04217530775
:101D200038F0A901DB019A01BD01DF01F801C1CF43
:101D3000EF01F9CF9093800880937F08CDCFFE010B
:101D4000E20FF31F81939193225031093983288345
:101D5000D7CF20917D0830917E08232B41F420912C
:101D600003013091040130937E0820937D08209177
:101D70000101309102012115310541F42DB73EB723
:101D80004091050150910601241B350BE0917D081F
:101D9000F0917E08E217F307A0F42E1B3F0B2817E3
:101DA000390778F0AC014E5F5F4F2417350748F0D4
:101DB0004E0F5F1F50937E0840937D08819391934F
:101DC0009FCFF0E0E0E09CCFCF93DF930097E9F066
:101DD000FC01329713821282A0917F08B091800893
:101DE000ED0130E020E01097A1F420813181820FD5
:101DF000931F20917D0830917E082817390709F03C
:101E000061C0F0937E08E0937D08DF91CF91089543
:101E1000EA01CE17DF07E8F54A815B819E01411593
:101E20005105B1F7E901FB83EA8349915991C40F48
:101E3000D51FEC17FD0761F4808191810296840F14
:101E4000951FE90199838883828193819B838A838B
:101E5000F0E0E0E012968D919C9113970097B9F510
:101E60002D913C911197CD010296820F931F2091E5
:101E70007D0830917E082817390739F6309751F5DB
:101E80001092800810927F08B0937E08A0937D087E
:101E9000BCCFD383C28340815181840F951FC81763
:101EA000D90761F44E5F5F4F88819981480F591FB0
:101EB000518340838A819B819383828321153105DD
:101EC00009F0B0CFF0938008E0937F089ECFFD012A
:101ED000DC01C0CF13821282D7CFB0E0A0E0E3E7ED
:101EE000FFE00C94FA0C8C01009751F4CB010E9496
:101EF000480E8C01C801CDB7DEB7E0E10C94160D99
:101F0000FC01E60FF71F9C0122503109E217F3078D
:101F100008F49DC0D901CD91DC911197C617D70760
:101F200098F0C530D10530F3CE0104978617970796
:101F300008F3C61BD70B2297C193D1936D937C9363
:101F4000CF010E94E40ED6CF5B01AC1ABD0A4C0152
:101F50008C0E9D1EA0917F08B0918008512C412CC1
:101F6000F12CE12C109731F580917D0890917E083D
:101F70008815990509F05CC04616570608F058C048
:101F80008091010190910201009741F48DB79EB7B5
:101F90004091050150910601841B950BE817F90744
:101FA00008F055C0F0937E08E0937D08F901718335
:101FB0006083A0CF8D919C91119712966C9012978F
:101FC00013967C901397A815B90559F56C0142E05A
:101FD000C40ED11CCA14DB0420F1AC014A195B0900
:101FE000DA011296159780F06282738251834083E2
:101FF000D9016D937C93E114F10471F0D70113962C
:10200000FC93EE93129776CF22968C0F9D1FF901C9
:1020100091838083F301EFCFF0938008E0937F08F2
:1020200069CF4816590608F42C017D01D3019ACFD7
:10203000CB010E94480E7C01009749F0AE01B80127
:102040000E942A10C8010E94E40E870153CF10E0BD
:1020500000E050CFFB01DC0102C001900D92415025
:102060005040D8F70895FB01DC018D910190801953
:102070000110D9F3990B0895FB01DC0101900D9239
:0A2080000020E1F70895F894FFCF67
:10208A0001000081088000000000005D02B401EA3E
:10209A0001AA021B02F9010D020D0A004341525F17
:1020AA00315F45584954200053574150200043415D
:1020BA00525F325F454E54455220004341525F32CF
:1020CA005F504159200049444C452000494E564131
:0C20DA00534F520054494D454F555400DF
:00000001FF
